:020000040800F2
:1000000000000220392500086D1F00086F1F00083E
:10001000711F0008731F0008751F00080000000012
:10002000000000000000000000000000771F000832
:10003000791F0008000000007B1F00087D1F0008DA
:1000400089250008892500088925000889250008D8
:1000500089250008892500088925000889250008C8
:1000600089250008892500088925000889250008B8
:1000700089250008892500088925000889250008A8
:100080008925000889250008892500088925000898
:10009000892500088925000889250008851F000892
:1000A0008925000889250008892500088925000878
:1000B0008925000889250008892500088925000868
:1000C0008925000889250008892500088925000858
:1000D0008925000889250008911F0008A11F000834
:1000E0008925000889250008892500088925000838
:1000F0008925000889250008892500088925000828
:100100008925000889250008892500088925000817
:100110008925000889250008B11F0008C11F0008B3
:1001200089250008892500088925000889250008F7
:1001300089250008892500088925000889250008E7
:1001400089250008892500088925000889250008D7
:1001500089250008892500088925000889250008C7
:1001600089250008892500088925000889250008B7
:10017000892500088925000889250008000000005D
:0801800089250008892500080B
:1001C00010B5054C237833B9044B13B10448AFF391
:1001D00000800123237010BDC8090020000000002A
:1001E000C09C000808B5034B1BB103490348AFF39B
:1001F000008008BD00000000CC090020C09C000861
:1002000081F0004102E000BF83F0004330B54FEAC7
:1002100041044FEA430594EA050F08BF90EA020F34
:100220001FBF54EA000C55EA020C7FEA645C7FEAC7
:10023000655C00F0E2804FEA5454D4EB5555B8BFEA
:100240006D420CDD2C4480EA020281EA030382EA5B
:10025000000083EA010180EA020281EA0303362DED
:1002600088BF30BD11F0004F4FEA01314FF4801CC0
:100270004CEA113102D0404261EB410113F0004FD2
:100280004FEA03334CEA133302D0524263EB430389
:1002900094EA050F00F0A780A4F10104D5F1200E27
:1002A0000DDB02FA0EFC22FA05F2801841F1000182
:1002B00003FA0EF2801843FA05F359410EE0A5F156
:1002C00020050EF1200E012A03FA0EFC28BF4CF087
:1002D000020C43FA05F3C01851EBE37101F000453D
:1002E00007D54FF0000EDCF1000C7EEB00006EEB4A
:1002F0000101B1F5801F1BD3B1F5001F0CD34908D4
:100300005FEA30004FEA3C0C04F101044FEA44522A
:1003100012F5800F80F09A80BCF1004F08BF5FEAB1
:10032000500C50F1000041EB045141EA050130BD91
:100330005FEA4C0C404141EB0101013C28BFB1F5A3
:10034000801FE9D291F0000F04BF01460020B1FAEE
:1003500081F308BF2033A3F10B03B3F120020CDAC1
:100360000C3208DD02F1140CC2F10C0201FA0CF09F
:1003700021FA02F10CE002F11402D8BFC2F1200C04
:1003800001FA02F120FA0CFCDCBF41EA0C019040BA
:10039000E41AA2BF01EB0451294330BD6FEA040403
:1003A0001F3C1CDA0C340EDC04F11404C4F12002EE
:1003B00020FA04F001FA02F340EA030021FA04F300
:1003C00045EA030130BDC4F10C04C4F1200220FA57
:1003D00002F001FA04F340EA0300294630BD21FA95
:1003E00004F0294630BD94F0000F83F4801306BF5B
:1003F00081F480110134013D4EE77FEA645C18BF4F
:100400007FEA655C29D094EA050F08BF90EA020FE5
:1004100005D054EA000C04BF1946104630BD91EADD
:10042000030F1EBF0021002030BD5FEA545C05D1E0
:100430004000494128BF41F0004130BD14F580041F
:100440003CBF01F5801130BD01F0004545F0FE4193
:1004500041F470014FF0000030BD7FEA645C1ABFC8
:10046000194610467FEA655C1CBF0B46024650EAFF
:10047000013406BF52EA033591EA030F41F400212B
:1004800030BD00BF90F0000F04BF0021704730B5B1
:100490004FF4806404F132044FF000054FF0000186
:1004A00050E700BF90F0000F04BF0021704730B547
:1004B0004FF4806404F1320410F0004548BF40421C
:1004C0004FF000013EE700BF42004FEAE2014FEA71
:1004D00031014FEA02701FBF12F07F4393F07F4F4C
:1004E00081F06051704732F07F4208BF704793F04F
:1004F0007F4F04BF41F40021704730B54FF4607462
:1005000001F0004521F000411CE700BF50EA010264
:1005100008BF704730B54FF000050AE050EA01020D
:1005200008BF704730B511F0004502D5404261EB7D
:1005300041014FF4806404F132045FEA915C3FF4BE
:10054000D8AE4FF003025FEADC0C18BF03325FEA5B
:10055000DC0C18BF033202EBDC02C2F1200300FA0C
:1005600003FC20FA02F001FA03FE40EA0E0021FA31
:1005700002F11444BDE600BF70B54FF0FF0C4CF41F
:10058000E06C1CEA11541DBF1CEA135594EA0C0FD1
:1005900095EA0C0F00F0DEF82C4481EA030621EA0C
:1005A0004C5123EA4C5350EA013518BF52EA033547
:1005B00041F4801143F4801338D0A0FB02CE4FF0F9
:1005C0000005E1FB02E506F00042E0FB03E54FF029
:1005D0000006E1FB03569CF0000F18BF4EF0010E21
:1005E000A4F1FF04B6F5007F64F5407404D25FEA1D
:1005F0004E0E6D4146EB060642EAC62141EA5551D0
:100600004FEAC52040EA5E504FEACE2EB4F1FD0C11
:1006100088BFBCF5E06F1ED8BEF1004F08BF5FEA8F
:10062000500E50F1000041EB045170BD06F0004641
:1006300046EA010140EA020081EA0301B4EB5C04EE
:10064000C2BFD4EB0C0541EA045170BD41F48011E6
:100650004FF0000E013C00F3AB8014F1360FDEBF0B
:10066000002001F0004170BDC4F10004203C35DAE7
:100670000C341BDC04F11404C4F1200500FA05F36A
:1006800020FA04F001FA05F240EA020001F000420B
:1006900021F0004110EBD37021FA04F642EB060181
:1006A0005EEA430E08BF20EAD37070BDC4F10C04AB
:1006B000C4F1200500FA04F320FA05F001FA04F26F
:1006C00040EA020001F0004110EBD37041F100015B
:1006D0005EEA430E08BF20EAD37070BDC4F1200566
:1006E00000FA05F24EEA020E20FA04F301FA05F2CE
:1006F00043EA020321FA04F001F0004121FA04F276
:1007000020EA020000EBD3705EEA430E08BF20EA45
:10071000D37070BD94F0000F0FD101F0004640007F
:1007200041EB010111F4801F08BF013CF7D041EA01
:10073000060195F0000F18BF704703F00046520005
:1007400043EB030313F4801F08BF013DF7D043EAD6
:100750000603704794EA0C0F0CEA135518BF95EA8C
:100760000C0F0CD050EA410618BF52EA4306D1D113
:1007700081EA030101F000414FF0000070BD50EA32
:10078000410606BF1046194652EA430619D094EABC
:100790000C0F02D150EA013613D195EA0C0F05D1A6
:1007A00052EA03361CBF104619460AD181EA0301FA
:1007B00001F0004141F0FE4141F470014FF00000B2
:1007C00070BD41F0FE4141F4780170BD70B54FF04D
:1007D000FF0C4CF4E06C1CEA11541DBF1CEA1355CD
:1007E00094EA0C0F95EA0C0F00F0A7F8A4EB0504AF
:1007F00081EA030E52EA03354FEA013100F08880A6
:100800004FEA03334FF0805545EA131343EA12636E
:100810004FEA022245EA111545EA10654FEA002623
:100820000EF000419D4208BF964244F1FD0404F5DC
:10083000407402D25B084FEA3202B61A65EB030538
:100840005B084FEA32024FF480104FF4002CB6EBF5
:10085000020E75EB030E22BFB61A754640EA0C0075
:100860005B084FEA3202B6EB020E75EB030E22BFB5
:10087000B61A754640EA5C005B084FEA3202B6EBF6
:10088000020E75EB030E22BFB61A754640EA9C00B5
:100890005B084FEA3202B6EB020E75EB030E22BF85
:1008A000B61A754640EADC0055EA060E18D04FEA43
:1008B000051545EA16754FEA06164FEAC30343EAE3
:1008C00052734FEAC2025FEA1C1CC0D111F4801FB0
:1008D0000BD141EA00014FF000004FF0004CB6E7A9
:1008E00011F4801F04BF01430020B4F1FD0C88BF48
:1008F000BCF5E06F3FF6AFAEB5EB030C04BFB6EB53
:10090000020C5FEA500C50F1000041EB045170BD45
:100910000EF0004E4EEA113114EB5C04C2BFD4EB72
:100920000C0541EA045170BD41F480114FF0000EF6
:10093000013C90E645EA060E8DE60CEA135594EA72
:100940000C0F08BF95EA0C0F3FF43BAF94EA0C0F75
:100950000AD150EA01347FF434AF95EA0C0F7FF4EA
:1009600025AF104619462CE795EA0C0F06D152EA3E
:1009700003353FF4FDAE1046194622E750EA410622
:1009800018BF52EA43067FF4C5AE50EA41047FF433
:100990000DAF52EA43057FF4EBAE12E74FEA410296
:1009A000B2F1E04324BFB3F5001CDCF1FE5C0DD9CD
:1009B00001F0004C4FEAC0024CEA5070B2F1004F17
:1009C00040EB830008BF20F00100704711F0804F1A
:1009D00021D113F13872BCBF01F00040704741F4DF
:1009E00080114FEA5252C2F11802C2F1200C10FAE3
:1009F0000CF320FA02F018BF40F001004FEAC123C7
:100A00004FEAD32303FA0CFC40EA0C0023FA02F36A
:100A10004FEA4303CCE77FEA625307D150EA013340
:100A20001EBF4FF0FE4040F44000704701F0004010
:100A300040F0FE4040F40000704700BF80F00040EE
:100A400002E000BF81F0004142001FBF5FEA4103A6
:100A500092EA030F7FEA226C7FEA236C6AD04FEAA6
:100A60001262D2EB1363C1BFD218414048404140EB
:100A7000B8BF5B42192B88BF704710F0004F40F49D
:100A8000000020F07F4018BF404211F0004F41F4B9
:100A9000000121F07F4118BF494292EA030F3FD085
:100AA000A2F1010241FA03FC10EB0C00C3F1200398
:100AB00001FA03F100F0004302D5494260EB400027
:100AC000B0F5000F13D3B0F1807F06D340084FEA92
:100AD000310102F10102FE2A51D2B1F1004F40EB87
:100AE000C25008BF20F0010040EA030070474900EF
:100AF00040EB0000013A28BFB0F5000FEDD2B0FA8C
:100B000080FCACF1080CB2EB0C0200FA0CF0AABFAE
:100B100000EBC25052421843BCBFD040184370474C
:100B200092F0000F81F4000106BF80F40000013252
:100B3000013BB5E74FEA41037FEA226C18BF7FEA29
:100B4000236C21D092EA030F04D092F0000F08BF6B
:100B50000846704790EA010F1CBF0020704712F052
:100B60007F4F04D1400028BF40F00040704712F191
:100B700000723CBF00F50000704700F0004343F0F6
:100B8000FE4040F4000070477FEA226216BF08462C
:100B90007FEA23630146420206BF5FEA412390EAEF
:100BA000010F40F4800070474FF0000304E000BFE5
:100BB00010F0004348BF40425FEA000C08BF704796
:100BC00043F0964301464FF000001CE050EA01025A
:100BD00008BF70474FF000030AE000BF50EA01026F
:100BE00008BF704711F0004302D5404261EB41015C
:100BF0005FEA010C02BF84460146002043F0B64381
:100C000008BFA3F18053A3F50003BCFA8CF2083AA5
:100C1000A3EBC25310DB01FA02FC634400FA02FCAE
:100C2000C2F12002BCF1004F20FA02F243EB0200B5
:100C300008BF20F00100704702F1200201FA02FC17
:100C4000C2F1200250EA4C0021FA02F243EB02000A
:100C500008BF20EADC7070474FF0FF0C1CEAD0524E
:100C60001EBF1CEAD15392EA0C0F93EA0C0F6FD00F
:100C70001A4480EA010C400218BF5FEA41211ED0ED
:100C80004FF0006343EA501043EA5111A0FB0131D9
:100C90000CF00040B1F5000F3EBF490041EAD371AE
:100CA0005B0040EA010062F17F02FD2A1DD8B3F12A
:100CB000004F40EBC25008BF20F00100704790F099
:100CC000000F0CF0004C08BF49024CEA502040EAEB
:100CD00051207F3AC2BFD2F1FF0340EAC2507047B1
:100CE00040F400004FF00003013A5DDC12F1190FEF
:100CF000DCBF00F000407047C2F10002410021FA61
:100D000002F1C2F1200200FA02FC5FEA310040F178
:100D1000000053EA4C0308BF20EADC70704792F0F1
:100D2000000F00F0004C02BF400010F4000F013A29
:100D3000F9D040EA0C0093F0000F01F0004C02BF24
:100D4000490011F4000F013BF9D041EA0C018FE793
:100D50000CEAD15392EA0C0F18BF93EA0C0F0AD099
:100D600030F0004C18BF31F0004CD8D180EA0100BF
:100D700000F00040704790F0000F17BF90F0004F58
:100D8000084691F0000F91F0004F14D092EA0C0F3A
:100D900001D142020FD193EA0C0F03D14B0218BFCD
:100DA000084608D180EA010000F0004040F0FE4013
:100DB00040F40000704740F0FE4040F440007047AF
:100DC0004FF0FF0C1CEAD0521EBF1CEAD15392EA2E
:100DD0000C0F93EA0C0F69D0A2EB030280EA010C1E
:100DE00049024FEA402037D04FF0805343EA1111B7
:100DF00043EA10130CF000408B4238BF5B0042F115
:100E00007D024FF4000C8B4224BF5B1A40EA0C00B9
:100E1000B3EB510F24BFA3EB510340EA5C00B3EBEB
:100E2000910F24BFA3EB910340EA9C00B3EBD10FD9
:100E300024BFA3EBD10340EADC001B0118BF5FEA2B
:100E40001C1CE0D1FD2A3FF650AF8B4240EBC25054
:100E500008BF20F0010070470CF0004C4CEA502015
:100E60007F32C2BFD2F1FF0340EAC250704740F464
:100E700000004FF00003013A37E792F0000F00F056
:100E8000004C02BF400010F4000F013AF9D040EAD4
:100E90000C0093F0000F01F0004C02BF490011F468
:100EA000000F013BF9D041EA0C0195E70CEAD15360
:100EB00092EA0C0F08D142027FF47DAF93EA0C0F47
:100EC0007FF470AF084676E793EA0C0F04D14B022B
:100ED0003FF44CAF08466EE730F0004C18BF31F0DD
:100EE000004CCAD130F000427FF45CAF31F00043D7
:100EF0007FF43CAF5FE700BF4FEA4002B2F1FE4F24
:100F00000FD34FF09E03B3EB12620DD94FEA0023CB
:100F100043F0004310F0004F23FA02F018BF4042A4
:100F200070474FF00000704712F1610F01D142028B
:100F300005D110F0004008BF6FF0004070474FF03F
:100F40000000704753B94AB9002908BF00281CBFE8
:100F50004FF0FF314FF0FF3000F092B9ADF1080CC7
:100F60006DE904CE00F024F8DDF804E0DDE90223A9
:100F700004B07047D0B50C4B002206460F46FFF771
:100F8000FBFA00F07FF90446FFF77CFA074B0022DA
:100F9000FFF7F2FA02460B4630463946FFF734F9BE
:100FA00000F070F92146D0BD0000F03D0000F04196
:100FB0002DE9F047089E0D4604468846002B4DD18A
:100FC0008A42944668D9B2FA82F252B101FA02F327
:100FD000C2F1200120FA01F10CFA02FC41EA0308F7
:100FE00094404FEA1C45210CB8FBF5FE1FFA8CF724
:100FF00005FB1E8341EA03430EFB07F199420BD91F
:101000001CEB03030EF1FF3080F01E81994240F289
:101010001B81AEF1020E63445B1AA4B2B3FBF5F080
:1010200005FB103344EA034400FB07F7A7420AD943
:101030001CEB040400F1FF3380F00881A74240F26A
:10104000058164440238E41B40EA0E4000211EB1D1
:10105000D4400023C6E90043BDE8F0878B4208D99D
:10106000002E00F0EE800021C6E900050846BDE82C
:10107000F087B3FA83F100294AD1AB4202D382420E
:1010800000F2F980841A65EB030301209846002ED4
:10109000E2D0C6E90048DFE702B9FFDEB2FA82F229
:1010A000002A40F09180A1EB0C054FEA1C471FFA83
:1010B0008CFE0121B5FBF7F307FB1350250C45EA25
:1010C00000450EFB03F0A84208D91CEB050503F10F
:1010D000FF3802D2A84200F2CB8043462D1AA4B2B8
:1010E000B5FBF7F007FB105544EA05440EFB00FE84
:1010F000A64508D91CEB040400F1FF3502D2A64531
:1011000000F2BB802846A4EB0E0440EA03409EE7B1
:10111000C1F120078B4022FA07FC4CEA030C20FAAD
:1011200007F405FA01F31C43FD404FEA1C4900FA9D
:1011300001F3B5FBF9F8200C1FFA8CFE09FB1855DA
:1011400040EA054508FB0EF0A84202FA01F20BD96D
:101150001CEB050508F1FF3A80F08880A84240F2B8
:101160008580A8F1020865442D1AA4B2B5FBF9F0F8
:1011700009FB105544EA054500FB0EFEAE4508D9B3
:101180001CEB050500F1FF346CD2AE456AD902387C
:10119000654440EA0840A0FB0294A5EB0E05A54279
:1011A000C846A64656D353D05EB1B3EB080265EBF2
:1011B0000E0505FA07F722FA01F3CD401F43C6E9F1
:1011C00000750021BDE8F087C2F1200320FA03F189
:1011D0000CFA02FC25FA03F395400D434FEA1C4735
:1011E0001FFA8CFEB3FBF7F107FB11302B0C43EA1F
:1011F000004301FB0EF0984204FA02F408D91CEBFC
:10120000030301F1FF382FD298422DD902396344EC
:101210001B1AADB2B3FBF7F007FB103345EA0345E9
:1012200000FB0EF3AB4208D91CEB050500F1FF38BB
:1012300016D2AB4214D902386544ED1A40EA014196
:1012400038E73146304607E78646E5E61846FAE6CF
:101250004B45A9D2B9EB020864EB0C0E0138A3E7A9
:101260004046EAE7204694E74146D1E7D0467BE78F
:10127000023B654432E7084609E76444023842E726
:10128000704700BF4A0011D212F5001211D20DD5DD
:101290006FF47873B3EB62520ED44FEAC12343F07C
:1012A000004343EA505323FA02F070474FF0000026
:1012B000704750EA013002D14FF0FF3070474FF0D5
:1012C0000000704700000000000000000000000067
:1012D00001F0FF01102A2BDB10F0070F08D010F8E7
:1012E000013B013A8B422DD010F0070F42B3F6D1EB
:1012F000F0B441EA012141EA014122F007047FF004
:1013000000070023F0E80256083C85EA010586EA5A
:10131000010685FA47F5A3FA87F586FA47F6A5FA96
:1013200087F68EB9EED1F0BC01F0FF0102F00702A2
:1013300032B110F8013B013A83EA010313B1F8D14D
:101340000020704701387047002D06BF354603382E
:10135000073815F0010F07D1013015F4807F02BF67
:10136000013015F4C03F0130F0BC0138704700BFB8
:10137000844641EA000313F003036DD1403A41D3A0
:1013800051F8043B40F8043B51F8043B40F8043B5F
:1013900051F8043B40F8043B51F8043B40F8043B4F
:1013A00051F8043B40F8043B51F8043B40F8043B3F
:1013B00051F8043B40F8043B51F8043B40F8043B2F
:1013C00051F8043B40F8043B51F8043B40F8043B1F
:1013D00051F8043B40F8043B51F8043B40F8043B0F
:1013E00051F8043B40F8043B51F8043B40F8043BFF
:1013F00051F8043B40F8043B51F8043B40F8043BEF
:10140000403ABDD2303211D351F8043B40F8043B8E
:1014100051F8043B40F8043B51F8043B40F8043BCE
:1014200051F8043B40F8043B103AEDD20C3205D39E
:1014300051F8043B40F8043B043AF9D2043208D096
:10144000D2071CBF11F8013B00F8013B01D30B8808
:1014500003806046704700BF082A13D38B078DD0E6
:1014600010F003038AD0C3F10403D21ADB071CBFB8
:1014700011F8013B00F8013B80D331F8023B20F822
:10148000023B7BE7043AD9D3013A11F8013B00F85B
:10149000013BF9D20B7803704B7843708B788370E3
:1014A00060467047000000000000000000000000DF
:1014B000000000000000000000000000000000002C
:1014C00090F800F06DE9024520F007016FF0000C84
:1014D00010F0070491F820F040F049804FF000042C
:1014E0006FF00700D1E9002391F840F000F1080007
:1014F00082FA4CF2A4FA8CF283FA4CF3A2FA8CF33F
:101500004BBBD1E9022382FA4CF200F10800A4FAA5
:101510008CF283FA4CF3A2FA8CF3E3B9D1E90423F9
:1015200082FA4CF200F10800A4FA8CF283FA4CF330
:10153000A2FA8CF37BB9D1E9062301F1200182FAEA
:101540004CF200F10800A4FA8CF283FA4CF3A2FAF0
:101550008CF3002BC6D0002A04BF04301A4612BAFE
:10156000B2FA82F2FDE8024500EBD2007047D1E901
:10157000002304F00305C4F100004FEAC50514F090
:10158000040F91F840F00CFA05F562EA05021CBF61
:1015900063EA050362464FF00004A9E74FF0FF3C01
:1015A00006E000BF4FF0010C02E000BF4FF0010C5D
:1015B0004DF804CD4FEA410C7FEA6C5C4FEA430CD6
:1015C00018BF7FEA6C5C1BD001B050EA410C0CBF25
:1015D00052EA430C91EA030F02BF90EA020F002087
:1015E000704710F1000F91EA030F58BF994208BFEE
:1015F00090422CBFD8176FEAE37040F001007047AB
:101600004FEA410C7FEA6C5C02D150EA013C07D101
:101610004FEA430C7FEA6C5CD6D152EA033CD3D04C
:101620005DF8040B704700BF8446104662468C4646
:101630001946634600E000BF01B5FFF7B7FF002879
:1016400048BF10F1000F01BD4DF808EDFFF7F4FFA2
:101650000CBF012000205DF808FB00BF4DF808ED2D
:10166000FFF7EAFF34BF012000205DF808FB00BF50
:101670004DF808EDFFF7E0FF94BF012000205DF872
:1016800008FB00BF4DF808EDFFF7CEFF94BF012027
:1016900000205DF808FB00BF4DF808EDFFF7C4FF20
:1016A00034BF012000205DF808FB00BF4FEA410C69
:1016B0007FEA6C5C02D150EA013C0AD14FEA430C4C
:1016C0007FEA6C5C02D152EA033C02D14FF0000089
:1016D00070474FF0010070474FEA410212F50012C7
:1016E00015D211D56FF47873B3EB625212D94FEA69
:1016F000C12343F0004343EA505311F0004F23FA53
:1017000002F018BF404270474FF00000704750EAA7
:10171000013005D111F0004008BF6FF00040704764
:101720004FF00000704700BF30B504460D464B1E19
:1017300000EB030E0020E05415E05B008EF8003053
:101740004FEA5C0C0132072A0CDC9EF800300CF0EA
:101750000101B1EBD31FF0D05B0083F007038EF8DB
:101760000030EDE701306B1E834203DD14F800C04A
:101770000022E8E730BD000000B583B005238DF8F6
:10178000003000238DF8013060F07F008DF80200FA
:101790000B0E8DF803300B0C8DF804300B0A8DF80E
:1017A00005308DF8061008216846FFF7BDFFFF23BE
:1017B000082269460348006801F0A1FF03B05DF804
:1017C00004FB00BFE80900202DE9F04180460F46E8
:1017D0000024264602E0013446F10006444576EB3B
:1017E000070314D20B4D0022A98BA86901F000F960
:1017F0000A2000F039FA0122A98BA86901F0F8F853
:101800000A2000F031FA044B1B78002BE3D0BDE82E
:10181000F08100BFE8090020140A00202DE9F843F8
:10182000054688462A4CE088FEF72CFE0022294B0C
:10183000FEF7A2FED4E90423FEF7C8FF06460F46D2
:101840004046FEF71FFE804689462079FEF71AFEC5
:1018500002460B4640464946FEF7B8FF8046894699
:101860000022A18C206A01F0C3F80A2000F0E0FEFB
:1018700005B3194C08212046FFF756FFFF23082225
:1018800021461348006801F03AFF42464B46304675
:101890003946FEF771FEFFF76DFBFFF795FF0A2053
:1018A00000F0C6FE0A4B0122998C186A01F0A0F8DC
:1018B000BDE8F883094C08212046FFF735FFFF23D8
:1018C000082221460248006801F019FFDDE700BF49
:1018D000E809002000807640080000200000002079
:1018E00010B582B00023019355238DF804308DF894
:1018F000060004210DEB0100FFF716FFFF23042271
:101900000DEB02010C48006801F0F9FE052000F023
:10191000ABF90A4CFF230F222146094801F0EFFEE4
:10192000E079237A1B0403EB0063607A03EB002366
:10193000A07A184402B010BDE8090020C00B0020B6
:10194000600C002008B50120FFF7CAFF40F003013A
:101950000120FFF711FF08BD08B50749FFF77CF923
:101960000649FFF771F8FFF7C7FA054B83FB002321
:10197000C017C0EBA30008BD000020410000A0403C
:101980006766666608B5FFF713F9C0F3C7507F387E
:1019900008BD10B504460020FFF7A2FF2CB140F0AF
:1019A00004010020FFF7E8FE10BD20F00401F8E775
:1019B00010B504460020FFF793FF2CB140F08001E2
:1019C0000020FFF7D9FE10BD20F08001F8E70000ED
:1019D00038B504466C20FFF783FF05462046FFF725
:1019E000D1FFC0F1080125F0706545EA01616C2066
:1019F000FFF7C2FE0120FFF7DBFFC82000FB04F465
:101A0000014B1C6038BD00BF100A0020802800D0A8
:101A1000704708B50122044B1A70044B998C186A60
:101A200000F0E6FF08BD00BF140A0020E80900200E
:101A300008B5054B00221A7001B108BD01462220ED
:101A4000FFF79AFEF9E700BF140A0020000000002B
:101A500038B5FEF739FD0CA3D3E90023FEF7B6FE37
:101A600004460D460A4B1868FEF70CFD22462B462D
:101A7000FEF782FDFEF792FFFFF76EFF0021FFF7F2
:101A8000D7FF38BDAFF30080E17A14AE47E1E63FFF
:101A9000100A002008B5044BA3FB00304009FFF7F3
:101AA00083F8FFF7D5FF08BD8988888810B50446FC
:101AB0000020FFF76EFF21464020FFF75DFE4FF448
:101AC000FA611420FFF758FE1E20FFF7E3FF10BD58
:101AD00038B50D461A4C20600499A161BDF8141068
:101AE000A18306992162BDF81C10A184E58012A192
:101AF000D1E90001C4E9040122812371FFF722FF2B
:101B00002846FFF765FF5020FFF7D0FFCB210020CC
:101B1000FFF784FE4FF4FA7000F08AFD094C0025AF
:101B200025700F210120FFF779FE3C20FFF7BEFF53
:101B3000257038BDAFF30080CDCCCCCCCCCCFC3FF5
:101B4000E8090020140A002038B50C4B1B7803B1BB
:101B500038BD0124094B1C70094D2B68002299885F
:101B6000186800F045FF4FF4FA7000F061FD2B6833
:101B700022469988186800F03BFFE9E7150A002023
:101B8000180A002038B5154B1B7803B938BD00255D
:101B9000124B1D70124C23682A469988186800F071
:101BA00027FF642000F044FD23680122998818680B
:101BB00000F01EFF642000F03BFD23682A46998850
:101BC000186800F015FF642000F032FD2368012240
:101BD0009988186800F00CFFD8E700BF150A0020AC
:101BE000180A002008B5054B1860054B186800233B
:101BF00002221946806802F06DF808BD200A002014
:101C00001C0000200FB470B5C2B046AD55F8046B8F
:101C100000240294FB22214603A802F009F8019552
:101C20002A46314602A802F02DF9224602AB9B5CFF
:101C30001BB10132D2B2FF2AF8D1FF2302A9044816
:101C4000006801F05CFD42B0BDE8704004B0704730
:101C5000200A002010B50446042000F069FD014B65
:101C60001C7010BD1C0A002010B44FF0E0235C690A
:101C70000C4A92F800C000FB0CFC9B69002104E0B8
:101C8000E01A02441144614509D21A464FF0E0239C
:101C90009B699A42FAD0F3D9D21A1144F3E710BCE7
:101CA000704700BF1C0A00202DE9F0418AB00024D3
:101CB0000594069407940894099400944E4B1A6B6B
:101CC00042F004021A631A6B02F004020092009AB6
:101CD00001941A6B42F080021A631A6B02F08002C0
:101CE0000192019A02941A6B42F001021A631A6B74
:101CF00002F001020292029A03941A6B42F010025F
:101D00001A631A6B02F010020392039A04941A6B7E
:101D100042F002021A631B6B03F002030493049B5C
:101D2000364E224641F27031304600F061FE344FAB
:101D300022464FF40A41384600F05AFE102305931C
:101D4000012506954FF00208CDF81C80089405A9DE
:101D5000304600F05BFD2023059306950795CDF8EE
:101D6000208005A9304600F051FD402305930695DB
:101D700007950323089305A9304600F047FD80230B
:101D800005934FF488130693079505A9304600F094
:101D90003DFD4FF40A43059306950794CDF8208046
:101DA00005A9384600F032FD4FF400530593069420
:101DB000079405A9384600F029FD4FF440730593B8
:101DC00006950795089405A9304600F01FFD4FF4CD
:101DD0008053059306950794089405A9304600F0B2
:101DE00015FD22462146172000F048FC172000F080
:101DF0007DFC0AB0BDE8F0810038024000000240DE
:101E00000010024072B6FEE700B595B03022002106
:101E100008A801F00DFF0023039304930593069394
:101E200007930193204A116C41F080511164126CA8
:101E300002F080520192019A02931C4B1A6842F4FC
:101E400080421A601B6803F480430293029B0123C3
:101E500008934FF48033099302220E924FF48003CB
:101E60000F9304231093A82111911292139308A8A1
:101E700000F0D2FD98B90F230393022304930023AB
:101E800005934FF4A05306934FF480530793052115
:101E900003A801F027F820B915B05DF804FBFFF79F
:101EA000B1FFFFF7AFFF00BF0038024000700040F5
:101EB00000B585B000F090FBFFF7A6FFFFF7F4FE3A
:101EC00000F0FCF900F0E4F800F00AF900F0DCF9A9
:101ED00000F0B8F91348FFF785FEA820FFF7BAFE17
:101EE00020230393104B029340210191009302237E
:101EF000CB220E48FFF7ECFD0D4B1B78002BFBD1DE
:101F000005210120FFF78AFC4FF47A7000F090FB66
:101F100005210020FFF782FC4FF47A7000F088FB67
:101F2000EAE700BF600C002000000240D80B002050
:101F3000140A002082B0002100910B4B5A6C42F42D
:101F400080425A645A6C02F480420092009A0191D5
:101F50001A6C42F080521A641B6C03F08053019398
:101F6000019B02B0704700BF00380240FEE7FEE769
:101F7000FEE7FEE7FEE770477047704708B500F0E0
:101F800045FB08BD08B5802000F038FD08BD000005
:101F900008B5024801F0A8FC08BD00BFD80B00201E
:101FA00008B5024801F0A0FC08BD00BF1C0C0020D1
:101FB00008B5024801F0B4F808BD00BF2C0A0020A3
:101FC00008B5024801F0ACF808BD00BF740A002053
:101FD0000120704708B501F001FE162303604FF0A1
:101FE000FF3008BD08B54FF0FF31FFF7F3FFFEE704
:101FF00070B50C461646002506E0AFF3008021467A
:1020000001F8010B01350C46B542F6DB304670BDD8
:1020100070B50C461646002504E014F8010BAFF32A
:1020200000800135B542F8DB304670BD4FF0FF301F
:1020300070474FF400534B600020704701207047F9
:102040000020704710B503460C4A0D490D48006842
:1020500040B10C4800680344521A934206D8094A1A
:10206000136010BD0748084C0460F2E701F0B6FDAC
:102070000C2303604FF0FF30F3E700BF00000220A5
:1020800000040000240A0020F80C00207047000023
:1020900000B583B00023009301930F480F4A0260FC
:1020A00042F2CF024260836042F20F72C2608361EB
:1020B00001F058F950B9002300930193694606488E
:1020C00001F07CF928B903B05DF804FBFFF79AFE34
:1020D000F1E7FFF797FEF6E72C0A0020001000401A
:1020E00000B583B00023009301930F480F4A0260AC
:1020F00042F2CF024260836042F20F72C26083619B
:1021000001F030F950B90023009301936946064865
:1021100001F054F928B903B05DF804FBFFF772FE33
:10212000F1E7FFF76FFEF6E7740A002000140040A5
:1021300000B583B00368184A934205D0174A93420A
:1021400016D003B05DF804FB00210091144B1A6C0B
:1021500042F010021A641B6C03F010030093009B02
:102160000A46362000F08AFA362000F0BFFAE8E787
:10217000002101910A4B1A6C42F020021A641B6C78
:1021800003F020030193019B0A46372000F076FA02
:10219000372000F0ABFAD4E70010004000140040F4
:1021A000003802401D4B984203D01D4B984231D05D
:1021B000704710B51B4B1B781BB91B4B1B78A3B981
:1021C00010BD1A4C237801332370FFF7BDFC217832
:1021D0001748FFF717FD2278164B1B789A42EFD964
:1021E0000023104A13702370EAE7134C2178013161
:1021F000C9B221701148FFF705FDFFF7C3FC227833
:10220000094B1B789A42DBD9064B01221A70002237
:102210002270D5E70A4B01221A7070472C0A002061
:10222000740A0020BD0A0020A50C0020BC0A002072
:10223000F09C0008A40C0020280A0020009D000843
:10224000BE0A002008B50D480D4B03604FF4E13382
:10225000436000238360C36003610C224261836199
:10226000C36101F01DFA28B901220649034801F0B3
:1022700098FC08BDFFF7C6FDF6E700BFD80B0020AD
:1022800000440040A80C002008B50A480A4B03602F
:102290004FF4E133436000238360C36003610C2289
:1022A00042618361C36101F0FBF900B908BDFFF72A
:1022B000A9FDFBE71C0C00200048004008B50A48B7
:1022C0000A4B03604FF4E133436000238360C36033
:1022D00003610C2242618361C36101F0E1F900B93D
:1022E00008BDFFF78FFDFBE7600C002000140140E4
:1022F00010B58CB000230793089309930A930B93AE
:102300000368424A934207D0414A93422FD0414A40
:10231000934258D00CB010BD002401943E4B1A6C6F
:1023200042F400321A641A6C02F400320192019AEB
:1023300002941A6B42F001021A631B6B03F0010353
:102340000293029B0C2307930223089303230A930F
:1023500007230B9307A9314800F058FA224621467B
:10236000262000F08BF9262000F0C0F9D2E70024E7
:102370000394294B1A6C42F480221A641A6C02F4FA
:1023800080220392039A04941A6B42F002021A63A9
:102390001B6B03F002030493049B4FF44063079309
:1023A0000223089303230A9307230B9307A91C48CE
:1023B00000F02CFA22462146272000F05FF9272062
:1023C00000F094F9A6E700210591134B5A6C42F0F6
:1023D00020025A645A6C02F020020592059A069176
:1023E0001A6B42F004021A631B6B03F0040306939A
:1023F000069BC02307930223089303230A93082311
:102400000B9307A9074800F001FA83E70044004056
:102410000048004000140140003802400000024023
:10242000000402400008024008B50368344A9342A1
:1024300003D0344A93424ED008BD334B1A78FF2A5A
:1024400011D0531CDBB230490B7030493048007852
:1024500088545A1E8A5CFF2A14D001222C492D4828
:1024600001F09FFBE8E7002119704FF480722748C4
:1024700001F0DEFB4FF6FF730A222749254801F0E1
:102480003EF9EAE79A1E8A5CFF2AE6D1033BCB5C61
:10249000FF2BE2D10B78552B08D000211A4B197075
:1024A0004FF48072194801F0C3FBD6E74B78652BD7
:1024B00008D0164BDB78662BEFD1144B1A79174BEB
:1024C0001A70EAE78B78164A1370002BF1D0154882
:1024D00000F0DEFDEDE714490A78531CDBB20B7007
:1024E0001249087812498854132B02D90E4B002246
:1024F0001A7001220D490F4801F053FB9CE700BF01
:102500000014014000440040D50B0020C00A002008
:10251000D60B0020600C0020109D0008A50C0020A8
:10252000A40C00202C0A0020D40B0020A80C0020B2
:10253000C00B0020D80B0020DFF834D00D480E4926
:102540000E4A002302E0D458C4500433C4188C420D
:10255000F9D30B4A0B4C002301E013600432A24272
:10256000FBD3FFF793FD01F03FFBFFF7A1FC7047A2
:102570000000022000000020C80900202CA1000853
:10258000C8090020F80C0020FEE7000010B5044642
:102590000E4B18784FF47A73B3FBF0F30C4A1068C3
:1025A000B0FBF3F000F0B0F868B90F2C01D90120AE
:1025B0000AE0002221464FF0FF3000F05FF8054BA3
:1025C0001C60002000E0012010BD00BF14000020AE
:1025D000100000201800002008B50B4B1A6842F4C8
:1025E00000721A601A6842F480621A601A6842F433
:1025F00080721A60032000F02FF80F20FFF7C6FF4B
:10260000FFF798FC002008BD003C0240034A116817
:10261000034B1B780B441360704700BFAC0C0020C9
:1026200014000020014B1868704700BFAC0C00205C
:1026300038B50446FFF7F6FF0546B4F1FF3F02D078
:10264000044B1B781C44FFF7EDFF401BA042FAD35C
:1026500038BD00BF14000020074AD36823F4E063AC
:102660001B041B0C000200F4E060034343F0BF6353
:1026700043F40033D360704700ED00E000B5194B20
:10268000DB68C3F30223C3F1070CBCF1040F28BFBE
:102690004FF0040C03F1040EBEF1060F18D9033BF2
:1026A0004FF0FF3E0EFA0CFC21EA0C0199400EFAA5
:1026B00003F322EA0303194300280BDB0901C9B223
:1026C00000F1604000F5614080F800135DF804FB04
:1026D0000023E5E700F00F000901C9B2024B1954CD
:1026E000F4E700BF00ED00E014ED00E0002807DB98
:1026F00000F01F02400901239340024A42F82030B3
:10270000704700BF00E100E00138B0F1807F0BD2DC
:102710004FF0E0235861054AF02182F82310002091
:10272000986107221A6170470120704700ED00E0B0
:10273000042806D04FF0E022136923F0040313614C
:1027400070474FF0E022136943F0040313617047B0
:1027500070B50446866DFFF765FF94F83530DBB23F
:10276000022B06D080236365002384F834300120D7
:1027700070BD05462268136823F0160313602268B3
:10278000536923F080035361236CE3B1226813681B
:1027900023F0080313602268136823F00103136019
:1027A00023681B6813F0010F11D0FFF73BFF431B99
:1027B000052BF5D920236365032084F83500002319
:1027C00084F83430D4E7A36C002BDFD1E3E7E26D6B
:1027D0003F239340B360012384F83530002084F810
:1027E0003400C5E790F83530DBB2022B03D08023EC
:1027F000436501207047052380F83530026813686F
:1028000023F00103136000207047000000230F2B0A
:1028100000F2E48070B582B060E085685E00032459
:10282000B44025EA0405CC68B4402C438460456874
:1028300025EA02054C68C4F300129A402A4342601C
:102840005AE0DC08083450F8246003F007029500D1
:102850000F22AA4026EA020E0A69AA4042EA0E02A4
:1028600040F824205CE0072200E0002202FA0EF289
:102870002A4302345A4D45F824205A4A94686FEA94
:102880000C0224EA0C054E6816F4801F01D04CEAB5
:102890000405544CA560E46802EA04054E6816F489
:1028A000001F01D04CEA04054E4CE560646802EA62
:1028B00004054E6816F4003F01D04CEA0405494C6B
:1028C0006560246822404D6815F4803F01D04CEAD1
:1028D0000402444C226001330F2B7DD801229A4020
:1028E0000C6804EA020C32EA0404F4D14C6804F0E7
:1028F0000304013C012C90D94A6802F00302032A28
:1029000009D0C4685D000322AA4024EA02048A6850
:10291000AA402243C2604A6802F00302022A90D011
:1029200004684FEA430E032202FA0EF224EA02047C
:102930004A6802F0030202FA0EF2224302604A6879
:1029400012F4403FC7D000220192274A546C44F44D
:1029500080445464526C02F480420192019A9C08B3
:10296000A51C1F4A52F8255003F003024FEA820EBD
:102970000F2202FA0EF225EA02051C4A90423FF4A9
:1029800074AF02F5806290421AD002F580629042E4
:1029900018D002F58062904216D002F58062904213
:1029A00014D002F58062904212D002F5806290420B
:1029B00010D002F5806290423FF455AF082255E7EF
:1029C000012253E7022251E703224FE704224DE799
:1029D00005224BE7062249E702B070BD704700BFF1
:1029E00000380140003C0140003802400000024035
:1029F0000AB18161704709048161704708B5054BD0
:102A00005B69034200D108BD024B5861FEF7FEFF2F
:102A1000F9E700BF003C0140002800F0E08170B5FC
:102A200082B00446036813F0010F3BD09F4B9B68B4
:102A300003F00C03042B2CD09C4B9B6803F00C037D
:102A4000082B21D06368B3F5803F4FD0B3F5A02F9A
:102A500052D0964B1A6822F480321A601A6822F417
:102A600080221A606368002B50D0FFF7DBFD05461B
:102A70008E4B1B6813F4003F14D1FFF7D3FD401BAE
:102A80006428F5D90320B1E1884B5B6813F4800F0B
:102A9000D8D0864B1B6813F4003F03D06368002B2B
:102AA00000F09F81236813F0020F54D07F4B9B6886
:102AB00013F00C0F3ED07D4B9B6803F00C03082BEA
:102AC00033D0E368002B68D0794B01221A60FFF7FE
:102AD000A9FD0546754B1B6813F0020F54D1FFF793
:102AE000A1FD401B0228F5D903207FE16F4A13683E
:102AF00043F480331360B5E76C4B1A6842F48022CC
:102B00001A601A6842F480321A60ABE7FFF78AFD58
:102B10000546664B1B6813F4003FC3D0FFF782FDE8
:102B2000401B6428F5D9032060E1604B5B6813F417
:102B3000800FC6D15D4B1B6813F0020F03D0E36812
:102B4000012B40F05081594A136823F0F8032169A2
:102B500043EAC1031360236813F0080F42D063698E
:102B60006BB3534B0122C3F8802EFFF75BFD054684
:102B70004E4B5B6F13F0020F34D1FFF753FD401B38
:102B80000228F5D9032031E1484A136823F0F803FD
:102B9000216943EAC1031360DDE7454B00221A6057
:102BA000FFF740FD0546414B1B6813F0020FD2D0E2
:102BB000FFF738FD401B0228F5D9032016E13C4BF6
:102BC0000022C3F8802EFFF72DFD0546374B5B6FC3
:102BD00013F0020F06D0FFF725FD401B0228F5D9A0
:102BE000032003E1236813F0040F77D02F4B1B6CF5
:102BF00013F0805F33D1002301932C4B1A6C42F009
:102C000080521A641B6C03F080530193019B0125D1
:102C1000284B1B6813F4807F23D0A368012B34D08A
:102C2000052B38D0214B1A6F22F001021A671A6F58
:102C300022F004021A67A368002B3DD0FFF7F2FCD4
:102C400006461A4B1B6F13F0020F46D1FFF7EAFC42
:102C5000801B41F288339842F3D90320C6E0002557
:102C6000D6E7144A136843F480731360FFF7DAFC65
:102C70000646104B1B6813F4807FCED1FFF7D2FCC1
:102C8000801B0228F5D90320B0E0084A136F43F0F7
:102C900001031367CFE7054B1A6F42F004021A676E
:102CA0001A6F42F001021A67C5E700BF0038024000
:102CB0000000474200700040FFF7B4FC0646524B4C
:102CC0001B6F13F0020F08D0FFF7ACFC801B41F222
:102CD00088339842F3D9032088E0EDB9A369002B2B
:102CE00000F08380484A926802F00C02082A51D012
:102CF000022B17D0454B00221A66FFF793FC0446BF
:102D0000414B1B6813F0007F42D0FFF78BFC001B88
:102D10000228F5D9032069E03B4A136C23F0805365
:102D20001364DBE7394B00221A66FFF77BFC05468C
:102D3000354B1B6813F0007F06D0FFF773FC401B78
:102D40000228F5D9032051E0E369226A1343626A3D
:102D500043EA8213A26A5208013A43EA0243E26A52
:102D600043EA0263284A5360284B01221A66FFF7A0
:102D700059FC0446244B1B6813F0007F06D1FFF773
:102D800051FC001B0228F5D903202FE000202DE084
:102D900000202BE0012B2BD01B4B5B6803F4800140
:102DA000E269914226D103F03F02216A8A4223D18F
:102DB000616A47F6C0721A40B2EB811F1ED103F45C
:102DC0004031A26A5208013AB1EB024F18D103F028
:102DD0007063E26AB3EB026F14D1002006E00120B9
:102DE0007047012002E0012000E0002002B070BD29
:102DF0000120FBE70120F9E70120F7E70120F5E7D3
:102E00000120F3E70120F1E70038024000004742CB
:102E100008B5314B9B6803F00C03042B57D0082BEB
:102E200057D12D4B5A6802F03F025B6813F4800FB4
:102E30002AD0294B5968C1F3881C4FEA4C11B1EBD9
:102E40000C006EEB0E0E4FEA8E1343EA9063810185
:102E5000091A63EB0E03DB0043EA5173C90011EB5F
:102E60000C0C43F10003590200234FEA4C2041EAC5
:102E7000DC51FEF767F8184B5B68C3F3014301337D
:102E80005B00B0FBF3F025E0134B5968C1F3881CDD
:102E90004FEA4C11B1EB0C006EEB0E0E4FEA8E13A5
:102EA00043EA90638101091A63EB0E03DB0043EAF6
:102EB0005173C90011EB0C0C43F10003990200237C
:102EC0004FEA8C2041EA9C51FEF73CF8D3E70348D7
:102ED00000E0034808BD00BF0038024000127A003D
:102EE0000024F400002800F09B8070B50D460446D5
:102EF0004F4B1B6803F007038B4208D2CBB24C4AFE
:102F00001370136803F007038B4240F08B80236833
:102F100013F0020F17D013F0040F04D0454A936842
:102F200043F4E0539360236813F0080F04D0414A40
:102F3000936843F4604393603E4A936823F0F00340
:102F4000A1680B439360236813F0010F32D06368CC
:102F5000012B21D09A1E012A25D9364A126812F077
:102F6000020F61D033498A6822F0030213438B6059
:102F7000FFF758FB06462F4B9B6803F00C03626873
:102F8000B3EB820F16D0FFF74DFB801B41F2883365
:102F90009842F0D9032042E0264A126812F4003F1A
:102FA000E0D101203BE0234A126812F0007FD9D122
:102FB000012034E01E4B1B6803F00703AB4207D926
:102FC000EAB21B4B1A701B6803F00703AB422DD10A
:102FD000236813F0040F06D0164A936823F4E053D5
:102FE000E1680B439360236813F0080F07D0114A80
:102FF000936823F46043216943EAC1039360FFF7B8
:1030000007FF0C4B9B68C3F303130B4AD35CD840F8
:103010000A4B18600A4B1868FFF7B8FA002070BD19
:10302000012070470120FAE70120F8E70120F6E7C8
:10303000003C024000380240D89C000810000020EC
:1030400018000020014B1868704700BF10000020D6
:1030500008B5FFF7F7FF044B9B68C3F38223034ACD
:10306000D35CD84008BD00BF00380240E89C00088F
:1030700008B5FFF7E7FF044B9B68C3F34233034AED
:10308000D35CD84008BD00BF00380240E89C00086F
:1030900090F83D30DBB2012B37D1022380F83D3070
:1030A0000268D36843F00103D3600368194A93426E
:1030B00020D0B3F1804F1DD0A2F57C42934219D0AD
:1030C00002F58062934215D002F58062934211D0DE
:1030D00002F5784293420DD002F57052934209D026
:1030E000A2F59432934205D01A6842F001021A60A8
:1030F000002070479A6802F00702062A07D01A6873
:1031000042F001021A600020704701207047002041
:10311000704700BF0000014070477047704770471C
:1031200010B5044603681A6912F0020F11D0DA686C
:1031300012F0020F0DD06FF002021A610123037723
:1031400003689B6913F0030F70D0FFF7E6FF0023BD
:10315000237723681A6912F0040F12D0DA6812F08C
:10316000040F0ED06FF004021A6102232377236844
:103170009B6913F4407F5FD02046FFF7CEFF00230A
:10318000237723681A6912F0080F12D0DA6812F058
:10319000080F0ED06FF008021A610423237723680A
:1031A000DB6913F0030F4ED02046FFF7B6FF002374
:1031B000237723681A6912F0100F12D0DA6812F020
:1031C000100F0ED06FF010021A61082323772368C6
:1031D000DB6913F4407F3DD02046FFF79EFF0023BC
:1031E000237723681A6912F0010F03D0DA6812F00E
:1031F000010F36D123681A6912F0800F03D0DA6804
:1032000012F0800F34D123681A6912F0400F03D0F6
:10321000DA6812F0400F32D123681A6912F0200FD9
:1032200003D0DA6812F0200F30D110BDFFF774FF21
:103230002046FFF773FF8AE72046FFF76DFF204621
:10324000FFF76CFF9BE72046FFF766FF2046FFF77E
:1032500065FFACE72046FFF75FFF2046FFF75EFF04
:10326000BDE76FF001021A612046FEF79BFFC1E740
:103270006FF080021A61204600F0E7F8C3E76FF0B4
:1032800040021A612046FFF74AFFC5E76FF02002AF
:103290001A61204600F0D8F8C7E700000368304AFA
:1032A000904212D0B0F1804F0FD0A2F57C429042F4
:1032B0000BD002F58062904207D002F58062904206
:1032C00003D002F57842904203D123F070034A689C
:1032D0001343234A90422AD0B0F1804F27D0A2F561
:1032E0007C42904223D002F5806290421FD002F5CA
:1032F000806290421BD002F57842904217D002F5CE
:103300007052904213D002F5806290420FD002F5C5
:10331000806290420BD0A2F59832904207D002F51D
:103320008062904203D002F58062904203D123F480
:103330004073CA68134323F080034A691343036050
:103340008B68C3620B688362054B984203D003F518
:103350008063984201D10B69036301234361704785
:103360000000014040B310B5044690F83D30F3B181
:10337000022384F83D30214651F8040BFFF78EFFFD
:10338000012384F8463084F83E3084F83F3084F8D6
:10339000403084F8413084F8423084F8433084F877
:1033A000443084F8453084F83D30002010BD80F86A
:1033B0003C30FEF7BDFEDBE70120704790F83C3063
:1033C000012B3CD010B4012380F83C30022380F85C
:1033D0003D3003685A689C6822F0700C0A6842EA23
:1033E0000C025A600368174A93421AD0B3F1804F17
:1033F00017D0A2F57C42934213D002F5806293422B
:103400000FD002F5806293420BD002F578429342CE
:1034100007D002F57052934203D0A2F59432934242
:1034200004D124F080044A6814439C60012380F88E
:103430003D30002380F83C30184610BC7047022015
:10344000704700BF0000014070477047026802F1FA
:103450000C0353E8003F23F490730C3242E8003130
:103460000029F3D1026802F1140353E8003F23F06E
:103470000103143242E800310029F3D1036B012B20
:1034800005D0202380F83E30002303637047026894
:1034900002F10C0353E8003F23F010030C3242E822
:1034A00000310029F3D1ECE790F83D30DBB2212B5D
:1034B00001D0022070478368B3F5805F17D0036A9C
:1034C0005A1C02621A7803685A60C38C9BB2013B93
:1034D0009BB2C3844BB90268D36823F08003D360E6
:1034E0000268D36843F04003D3600020704703694B
:1034F000002BE4D1036A1B880268C3F308035360FE
:10350000036A02330362E0E738B5044602681369D0
:1035100023F44053C1680B4313618368026913436A
:1035200042691343C2691A430168CB6823F4164306
:1035300023F00C031343CB600268536923F44073F8
:1035400081690B4353610368314A934206D002F507
:103550008062934202D0FFF77BFD01E0FFF788FD18
:10356000E369B3F5004F29D00021031849411B1826
:1035700041F10001C90041EA5371DB00181863688A
:103580004FEA83024FEA937341F10001FDF7DAFC41
:10359000204DA5FB00325109642303FB11031B01DD
:1035A0003233A5FB03235B0903F0F00202EB0112A7
:1035B00003F00F03216813448B6038BD0023021809
:1035C00043EB0301121841F10001C90041EA5271B5
:1035D000D200101841F10001626892185B41FDF7BA
:1035E000B1FC0C4DA5FB00325109642303FB110310
:1035F000DB003233A5FB03235B095A0002F4F872A7
:1036000002EB011203F00703216813448B60D4E737
:10361000001001401F85EB512DE9F84305460F4688
:1036200016469946DDF820802C68246837EA0403A2
:103630000CBF4FF0010C4FF0000CB4452DD1B8F188
:10364000FF3FF1D0B8F1000F05D0FEF7EBFFA0EB84
:1036500009004045E8D92A6802F10C0353E8003F0D
:1036600023F4D0730C3242E800310029F3D12A68E8
:1036700002F1140353E8003F23F00103143242E83F
:1036800000310029F3D1202385F83D3085F83E3004
:10369000002385F83C30032000E00020BDE8F883DB
:1036A00058B310B5044690F83D300BB3242384F88A
:1036B0003D302268D36823F40053D3602046FFF7DF
:1036C00023FF2268136923F490431361226853692E
:1036D00023F02A0353612268D36843F40053D36074
:1036E00000202064202384F83D3084F83E3010BD53
:1036F00080F83C30FEF7FCFDD8E7012070472DE94B
:10370000F04182B01E4690F83D30DBB2202B54D100
:1037100004460D469046002953D0002A53D090F815
:103720003C30012B51D0012380F83C30002303644E
:10373000212380F83D30FEF775FF0746A4F824806A
:10374000A4F82680A368B3F5805F05D04FF0000889
:10375000002384F83C3012E0236913B14FF00008D5
:10376000F6E7A8460025F3E738F8023B2268C3F3E2
:1037700008035360E28C92B2013A92B2E284E38C85
:103780009BB273B100963B46002280212046FFF792
:1037900043FFE0B9002DE7D015F8012B23685A60EC
:1037A000E8E700963B46002240212046FFF734FF21
:1037B00078B9202384F83D3000E0022002B0BDE853
:1037C000F0810120FAE70120F8E70220F6E7032064
:1037D000F4E70320F2E7704708B50168CA6822F0F1
:1037E0004002CA60202280F83D20FFF7F4FF00204D
:1037F00008BD704708B5806B0023C385C384FFF7FD
:10380000F8FF08BD704790F83E30DBB2222B67D13D
:103810008368B3F5805F4DD0826AB3F5805F04D0D2
:10382000002B54D10369002B51D103685B681370DE
:10383000836A01338362C38D9BB2013B9BB2C38514
:10384000002B4FD100B583B00268D36823F020036A
:10385000D3600268D36823F48073D360026853692D
:1038600023F001035361202380F83E30036B012BCA
:1038700033D100230363026802F10C0353E8003FD5
:1038800023F010030C3242E800310029F3D1036821
:103890001A6812F0100F06D0002201921A680192E5
:1038A0005B680193019B818DFFF7ACFF002003B0A3
:1038B0005DF804FB0269002AAED1826A03685B6886
:1038C000C3F308031380836A02338362B3E7036898
:1038D0005B6803F07F031370AAE7FEF7A5FDE5E739
:1038E000022070470020704730B583B0044602685C
:1038F0001368D068516913F00F0505D113F0200F3C
:1039000002D010F0200F19D12DB111F0010119D101
:1039100010F4907F16D1216B01297DD013F0800F18
:1039200003D010F0800F40F0158113F0400F03D04A
:1039300010F0400F40F0128103B030BD2046FFF779
:1039400062FFF9E713F0010F06D010F4807F03D077
:10395000226C42F00102226413F0040F04D019B16A
:10396000226C42F00202226413F0020F04D019B15B
:10397000226C42F00402226413F0080F07D010F00A
:10398000200F00D119B1226C42F008022264226C8F
:10399000002AD1D013F0200F02D010F0200F29D12F
:1039A00023685B6903F04003226C12F0080F00D11A
:1039B00063B32046FFF74AFD23685B6913F0400FAD
:1039C00020D0226802F1140353E8003F23F04003A3
:1039D000143242E800310029F3D1A36B73B1614A7C
:1039E0001A65A06BFEF7FEFE0028A5D0A06B036D44
:1039F0009847A1E72046FFF706FFD1E72046FFF7EB
:103A0000F8FE99E72046FFF7F4FE95E72046FFF71A
:103A1000F0FE002323648FE713F0100F3FF47EAF16
:103A200010F0100F3FF47AAF002301931368019355
:103A300053680193019B536913F0400F50D0A26B60
:103A400013685B689BB2002B3FF476AFA18D99425F
:103A50007FF672AFE385D369B3F5807F37D02268F4
:103A600002F10C0353E8003F23F480730C3242E868
:103A700000310029F3D1226802F1140353E8003F1A
:103A800023F00103143242E800310029F3D1226807
:103A900002F1140353E8003F23F04003143242E8DC
:103AA00000310029F3D1202384F83E300023236322
:103AB000226802F10C0353E8003F23F010030C329C
:103AC00042E800310029F3D1A06BFEF741FEA18D41
:103AD000E38D9BB2C91A89B22046FFF793FE2BE70C
:103AE000A18DE38D9BB2C91A89B2E38D9BB2002BE5
:103AF0003FF422AF00293FF41FAF226802F10C030C
:103B000053E8003F23F490730C3242E80030002861
:103B1000F3D1226802F1140353E8003F23F00103BC
:103B2000143242E800300028F3D1202384F83E30DC
:103B300000232363226802F10C0353E8003F23F0C3
:103B400010030C3242E800300028F3D12046FFF782
:103B500059FEF1E62046FFF7A7FCEDE62046FFF709
:103B60003BFEE9E6F537000881628285C2850023C5
:103B70000364222280F83E2080F83C30036923B1A0
:103B80000268D36843F48073D3600268536943F0DA
:103B9000010353610268D36843F02003D36000201F
:103BA000704708B590F83E30DBB2202B0DD171B1D3
:103BB0007AB190F83C30012B0DD0012380F83C30D5
:103BC00000230363FFF7D0FF00E0022008BD0120BF
:103BD000FCE70120FAE70220F8E70000014B186833
:103BE000704700BF1C00002070B50D4E0D4D761BB8
:103BF000B61006D0002455F8043B01349847A6427D
:103C0000F9D1094E094D761B06F05AF8B61006D0C8
:103C1000002455F8043B01349847A642F9D170BD01
:103C200020A1000820A1000828A1000820A1000868
:103C3000830730B548D0541E002A3FD0CAB203468D
:103C400001E0013C3AD303F8012B9D07F9D1032C85
:103C50002DD9CDB245EA05250F2C45EA054536D9C3
:103C6000A4F1100222F00F0C03F1200EE6444FEAFB
:103C7000121C03F1100242E9045542E902551032C8
:103C80007245F8D10CF1010214F00C0F03EB021293
:103C900004F00F0C13D0ACF1040323F0030304333E
:103CA000134442F8045B9342FBD10CF003042CB1A3
:103CB000CAB21C4403F8012B9C42FBD130BD6446C0
:103CC0001346002CF4D1F9E703461446BFE71A4621
:103CD000A446E0E72DE9F043694CD4F8008083B0B6
:103CE00004460E4617461D46B8F1000F03D0D8F81B
:103CF0003830002B77D0022F05D0012F00F2AC8096
:103D0000002DC0F2A980636EDA0752D521464046E5
:103D100000F074F9216B41B104F14003994202D0E3
:103D2000404600F097FA00232363B4F90CC0002347
:103D30001CF0800FA361636064D12CF44A6C2CF0FA
:103D4000030C022FA4F80CC06AD001AB6A462146CE
:103D5000404600F021FCA3891843A081002D2FD0FC
:103D6000002E2ED0D8F83830002B38D0009B26609B
:103D7000AB42B4F90C301CBF43F40063A381012FA4
:103D800004BF43F00103A3819AB213F00803C4E90E
:103D900004652CD0D1075DD56D42A561656E002309
:103DA00015F00105A36027D00025284603B0BDE823
:103DB000F083A3899B05A9D4A06D00F079FBA5E74A
:103DC000009D284600F018FC0646002847D0A3892D
:103DD00043F08003A381D8F83830002BC6D1404689
:103DE00000F040F9C2E7404600F03CF983E7A360E9
:103DF000656E15F00105D7D1930524D5284603B08B
:103E0000BDE8F0832169404600F024FAB4F90CC003
:103E10002CF44A6C2CF0030C022FA4F80CC094D1A3
:103E20000025002204F14303A2600122C4E9043208
:103E30002360636E4CF0020CD807A4F80CC0DDD4EC
:103E40001CF4007FDAD1A06D00F034FB284603B0EB
:103E5000BDE8F083A560CBE74FF0FF35CEE7DDF896
:103E60000090A94504D0484600F0C6FB064620B99C
:103E7000B4F90CC04FF0FF35D3E74D46A7E700BFBC
:103E80001C00002070B50B4E9AB004466FF0004540
:103E9000CDE90445134600940A463068064C029565
:103EA0006946039400F0C4FE009B00221A701AB009
:103EB00070BD00BF1C0000200802FFFF024B13B1C1
:103EC000024800F005B87047000000008941000872
:103ED000002301461A46184602F0DEBBB1F90C2059
:103EE000F8B50C461107074642D4636842F40062F5
:103EF000002BA28159DDA56A002D54D000233E6815
:103F00003B6093B212F4805253D1E16901233846E9
:103F1000A847421C63D0A389A56A5B0705D56368DF
:103F2000C01A236B0BB1E36BC01AE1690246002390
:103F30003846A847411C3ED13B68002B3BD01D2B87
:103F400001D0162B52D1A3892269226023F4006389
:103F500000216160A381216B3E6021B304F1400325
:103F6000994202D0384600F075F900202063F8BD70
:103F70002669C6B193B2256826609A070CBF6369AB
:103F80000023AD1BA3600CE0D4F824C0E1692B46EC
:103F900032463846E047B0F1000CA5EB0C0566440C
:103FA00016DD002DF0DC0020F8BDE36B002BA2DC59
:103FB000F9E7206DB1E7B4F90C302269226023F4EF
:103FC0000063A3810022DB046260C4D52065C2E7E0
:103FD000A38943F040034FF0FF30A381F8BD3B6855
:103FE000002B98D01D2B06D0162B04D0A38943F0AC
:103FF0004003A381F8BD3E60D5E700BF38B50C464D
:10400000054608B1836BA3B1B4F90C00B8B1636E77
:10401000DB0701D4810515D528462146FFF75EFF51
:10402000636EDA07054602D4A3899B050ED52846A0
:1040300038BD00F017F8B4F90C000028E7D10546A8
:10404000284638BDA06D00F033FAE5E7A06D00F01A
:1040500031FA284638BD00BF014900F001BA00BF5F
:10406000357700082DE9F0478246394800F020FAFC
:10407000DAF83840002C66D1DAF80450354ACAF82C
:104080003C200323CAE9B843DFF8CC90DFF8CC80AA
:10409000334F344E04230AF53B72CAF8E822214616
:1040A000C5E90243C5E90044C5E904446C66082239
:1040B000AC6105F15C00FFF7BBFDC5E90759C5E937
:1040C0000987EE6205F1580000F0EEF9DAF80850C1
:1040D000254BEB602146C5E90044C5E904446C6604
:1040E000AC60AC61082205F15C00FFF7A1FDC5E9F9
:1040F0000759C5E90987EE6205F1580000F0D4F9C7
:10410000DAF80C50194BEB602146C5E90044C5E9CB
:1041100004446C66AC60AC61082205F15C00FFF7FA
:1041200087FD05F15800C5E90759C5E90A76C5F8C4
:10413000248000F0B9F90123CAF838300448BDE8FA
:10414000F04700F0B7B9BDE8F047014800F0B2B958
:10415000BC0C002059400008A54B0008C94B0008C2
:10416000094C0008294C0008090001001200020057
:10417000014800F09DB900BFB80C0020014800F0D4
:1041800099B900BFB80C002038B5084B084D5B1B2F
:104190009C1007D0043B1D44013C55F80439984756
:1041A000002CF9D1BDE8384005F090BD2CA10008E5
:1041B00028A10008F8B5244F0C46064600F0D4FCB0
:1041C000BA685568C4F57E630F3325F003052B44A8
:1041D00023F47F6323F00F03A3F58054B4F5805FCD
:1041E00007DB0021304600F0CBFCBB682B44984233
:1041F00004D0304600F0BEFC0020F8BD61423046DD
:1042000000F0BEFC01300DD0104ABB682D1B45F0FC
:1042100001055D60136830461B1B136000F0AAFCAB
:104220000120F8BD0021304600F0AAFCBA68831ACC
:104230000F2BDEDD43F001035360054B03491B6880
:10424000C01A0860D5E700BF4C040020C00C002055
:1042500054080020002961D0F8B50C46064600F04D
:1042600083FC54F8042C7B4FA4F1080522F00101D3
:1042700005EB010CB868DCF80430604523F003035B
:1042800000F08B80D207CCF8043032D454F8082CDC
:10429000AD1A1144AA6807F1080082426AD00CEBFB
:1042A0000304D4F804E0EC68D4601EF0010FA260AF
:1042B00000F0978041F001036B60CCF80010B1F57D
:1042C000007F35D27A68CB0848090121013381404B
:1042D0001143796007EBC30257F83310083AC5E978
:1042E000021247F83350CD603046BDE8F84000F088
:1042F00041BC0CEB03025268D00710D4194407F1FB
:104300000800DCF80830834273D0DCF80C20DA6057
:10431000936041F001036B606950D0E7704741F052
:104320000103B1F5007F44F8043CCCF80010C9D378
:10433000B1F5206F4FEA512348D28B0903F13900C0
:1043400003F13802C300F818FB580838984259D0D6
:104350005A6822F003028A4202D99B689842F7D138
:10436000D868C5E902308560DD603046BDE8F840B8
:1043700000F000BC0CEB03025268D20763D40B447C
:10438000DCE90212CA60916043F001026A603046C3
:10439000EB50BDE8F84000F0EDBB0B44D10707D46B
:1043A00054F8082CAD1A1344D5E90212CA60916082
:1043B00043F001026A60284ABD6012689A4293D8AD
:1043C000264B30461968FFF7F5FE8DE7142B0AD906
:1043D000542B1FD80B0B03F16F0003F16E02C300C7
:1043E000B1E719448DE703F15C0003F15B02C30000
:1043F000A9E741F00103C7E90455C5E902006B6074
:10440000695071E779689210012404FA02F20A43B4
:104410007A60A6E7B3F5AA7F06D8CB0B03F1780044
:1044200003F17702C3008EE740F25452934206D85C
:104430008B0C03F17D0003F17C02C30083E74FF492
:104440007E737E227FE741F001036B60CCF80010A1
:104450004AE700BF4C04002058080020F00C002060
:104460002DE9F8430746884600F538764FF00009F5
:10447000D6E90154013D11D4A389012B05F1FF3583
:1044800008D9B4F90E300133214603D03846C0476D
:1044900049EA00096B1C04F16804EDD13668002E6E
:1044A000E6D14846BDE8F883704700BF704700BFBB
:1044B000704700BF704700BF2DE9F0418B890C4663
:1044C000990796B008D504F143030122C4E90432E8
:1044D000236016B0BDE8F081B4F90E10002906463D
:1044E00027DB6A4603F08CF9002821DB019D05F4E7
:1044F0007045A5F50055B5FA85F54FF480686D094E
:104500004FF400674146304600F07EF8B4F90C30B5
:10451000F0B1204AF26343F08003C4F81480A38111
:104520002060206135BB3B43A38116B0BDE8F0811C
:10453000A38913F0800519D04FF04008414630465A
:1045400000F062F80025B4F90C302F460028E0D1C5
:104550009A05BED423F0030304F1430243F002039F
:104560000121C4E90421A3812260B2E74FF48068ED
:104570002F46C7E7B4F90E10304603F057F910B9CB
:10458000B4F90C30CFE7A38923F0030343F0010310
:104590001BB2C8E75940000870B50C46B1F90E10BF
:1045A000002996B015461E4614DB6A4603F028F92A
:1045B00000280FDB019A02F47042A2F50052B2FA11
:1045C00082F24FF4806352094FF4006032602B6036
:1045D00016B070BDB4F90C10002311F080003360E8
:1045E00004D0402218462A6016B070BD4FF4806394
:1045F0002B6016B070BD00BF024B0146186800F07A
:1046000003B800BF1C0000202DE9F04F01F10B069C
:10461000162E83B0044624D8102900F2BA8000F088
:10462000A3FA102618220220B54F3A44A2F108013D
:1046300053688B4200F0BA805A68D96822F00302AE
:104640001A449D68E9608D60516841F0010120467F
:10465000516003F1080500F08DFA284603B0BDE86B
:10466000F08F36F0070600F19480B14200F291809D
:1046700000F07AFAB6F5FC7FC0F09A81730A00F078
:104680008F80042B00F26F81B30903F1390003F12D
:10469000380CC3009A4F3B44A3F108055B689D4268
:1046A00006D10CE0002980F22781DB689D4206D00C
:1046B0005A6822F00302911B0F29F3DD60463D6921
:1046C000DFF840C265457CD06A6822F00302931B84
:1046D0000F2B00F37B81002BC7E904CC80F26C81A7
:1046E000B2F5007F80F01A81D308796801334FEA70
:1046F000521E012202FA0EF20A4357F833E0C5F8BF
:1047000008E007EBC3010839E9607A6047F83350E5
:10471000CEF80C50831001219940914257D8114294
:1047200006D120F003004900114200F10400FAD044
:1047300007EBC0094D468646D5F80C80454508D1A3
:104740001DE1002B80F22481D8F80C80454500F053
:104750001681D8F8042022F00302931B0F2BF0DD02
:104760002046D8E9025408EB060146F00106C8F8D5
:104770000460EC60A56043F00104C7E90411C1E9DD
:1047800002CC4C6048F8023000F0F4F908F108055A
:1047900002E00C2323600025284603B0BDE8F08F1B
:1047A0004FF4007340204FF03F0C73E7D3689A42F8
:1047B00008BF02307FF440AF3D69DFF848C165456E
:1047C00082D17A688310012199409142A7D9BD68AE
:1047D0006B6823F003094E4503D8A9EB06030F2BA2
:1047E0007ADCDFF824B1494BDBF800201B6801328A
:1047F000334405EB090A00F0338103F580530F338E
:1048000023F47F6828F00F084146204600F0B8F9ED
:10481000411C024600F0F380824500F2EE803C4BE2
:10482000196841441960084600F04E81DBF8001019
:10483000019301311BBFA2EB0A0A5044CBF80020C0
:10484000186012F0070B00F01781CBF108010A4441
:10485000CBF5805190440831A1EB0801C1F30B0A5C
:1048600051462046009200F08BF9421CDDE90023FE
:1048700000F04F81801A00EB0A081968BA6048F00E
:1048800001005144BD425060196000F02981B9F126
:104890000F0F40F227816868A9F10C0C2CF0070C6F
:1048A00000F0010040EA0C0068604FF0050E05EBD7
:1048B0000C00BCF10F0FC0E901EE00F2328150682C
:1048C0001546144B1A688A4238BF1960124B1A6891
:1048D0008A4238BF196094E0AA1943F0010346F0F8
:1048E00001066E602046BA60536000F043F9083557
:1048F000284603B0BDE8F08FD9681A44A1E600BF8E
:104900004C0400205404002054080020F00C002027
:10491000C00C0020E80C0020EC0C0020B2F5206F49
:104920004FEA522363D3142B00F2B78003F15C01EA
:10493000C9005B3307EB010E7958AEF1080E8E45C6
:1049400000F091804B6823F00303934202D98968F9
:104950008E45F7D1D1F80CE07A68C5E9021ECEF891
:104960000850CD60D6E6142B59D9542B00F29D8007
:10497000330B03F16F0003F16E0CC3008AE60EF1F6
:10498000010E1EF0030F05F108057FF4D5AE51E0CE
:10499000424445465368D8F80C1043F00103536075
:1049A00055F8083F2046D9608B6000F0E3F8F3E645
:1049B000F00806F1080237E62A442046536843F01F
:1049C00001035360083500F0D5F8E5E6A919204643
:1049D00046F0010643F001046E60C7E90411C1E925
:1049E00002CC4C60AB5000F0C5F80835D4E6930912
:1049F00003F13901C90038339CE7BD425FD0BD687F
:104A0000686820F003084645A8EB060302D80F2B80
:104A10003FF762AF204600F0ADF80025BCE603F199
:104A20005C0003F15B0CC30034E659F808394B45D0
:104A300040F0968010F0030F00F1FF30F5D17B6855
:104A400023EA01037B60490099423FF6C0AE19B9E1
:104A5000BDE649000EF1040E1942FAD0704667E631
:104A600003F11008D0E69A104FF001087B6808FAAD
:104A700002F21A437A6070E702EB08014942C1F37F
:104A80000B0A51462046009200F07AF8431CDDE9FB
:104A900000237FF4EFAEDA46EFE6542B25D8130B54
:104AA00003F16F01C9006E3344E7B3F5AA7F25D83F
:104AB000F30B03F1780003F1770CC300EAE5294B0F
:104AC000186840441860B1E6CAF30B0CBCF1000F43
:104AD0007FF4ACAEBD68C84448F001006860F0E601
:104AE0001546EEE60123536094E7B3F5AA7F23D879
:104AF000D30B03F17801C90077331BE740F254521E
:104B0000934223D8B30C03F17D0003F17C0CC30066
:104B1000C0E5ABF1080BD844A8EB02084FF0000A3F
:104B2000ABE605F1080120460093FFF793FBBD6853
:104B3000009B68681968C4E640F254518B420BD858
:104B4000930C03F17D01C9007C33F3E64FF47E73CF
:104B50007F204FF07E0C9DE54FF47E717E23E9E6C9
:104B60007B6870E7C00C00200148FFF7A1BC00BFC4
:104B7000B40C00200148FFF79DBC00BFB40C00201E
:104B800038B5074D0022044608462A60FDF75AFA58
:104B9000431C00D038BD2B68002BFBD0236038BDF0
:104BA000F40C002010B50C46B1F90E1003F014FA05
:104BB000002803DB236D0344236510BDA38923F480
:104BC0008053A38110BD00BF2DE9F0410C46B1F91F
:104BD0000C101F46CB05054616460BD421F4805118
:104BE000A1813B46B4F90E1032462846BDE8F0419B
:104BF00001F03CBDB4F90E100223002202F02CFE9D
:104C0000B4F90C10EAE700BF10B50C46B1F90E106C
:104C100002F022FEA389421C0EBF23F4805343F40A
:104C200080532065A38110BDB1F90E1001F07ABD4B
:104C30002DE9F04FD5B00C460C9191460E930A9099
:104C400002F006FE036817931846FCF739FCA389A7
:104C50001690190603D52369002B00F08B870024DA
:104C60002BAB4D46CDE92944CDE91944CDE91B4490
:104C70001294289398461894002308940024CDE9B0
:104C800014342B78002B00F0DD81AA4604E01AF8DA
:104C9000013F002B00F01681252BF8D1BAEB050659
:104CA00040F014819AF80030002B00F0CB810023F3
:104CB0004FF0FF329AF801608DF8833009930AF1C2
:104CC000010A07921F462B244FF020090AF1010A1E
:104CD000A6F120035A2B00F22D81DFE813F0BA026F
:104CE0002B012B01B5022B012B012B016A002B019B
:104CF0002B014F02E3022B015A02C9022B01C4020D
:104D00005B005B005B005B005B005B005B005B00CB
:104D10005B002B012B012B012B012B012B012B0104
:104D2000BF012B011A028600BF01BF01BF012B0189
:104D30002B012B012B01B0022B012B01C3002B01F6
:104D40002B012B0124022B015F022B012B013C07BD
:104D50002B012B012B012B012B012B012B012B01F3
:104D6000BF012B011A028800BF01BF01BF01A302CE
:104D7000880081002B0196022B018202C50070027F
:104D800081002B0124027E0039072B012B0119071A
:104D90002B017E00A6F1300300221AF8016B02EB12
:104DA000820203EB4202A6F13003092BF5D90992E6
:104DB0008EE7DDF828B0584602F04AFD43681B93A1
:104DC0001846FCF77DFB1C900646584602F040FD55
:104DD00083681993002E40F07A869AF8006075E790
:104DE0009AF8006047F0200770E747F01007BA060E
:104DF0000E9B40F18081073323F007031A465B685E
:104E000052F8084B0E929946002BC0F25F85079B23
:104E1000013301F01F8054EA090327F0800B00F0F2
:104E2000E3840A2C79F1000380F081873034012378
:104E30008DF84F415F460B930DF24F1507990B9874
:104E40009DF8832081424FF00003B8BF01460D93C7
:104E500006910F9313931093002A7CD0069B013385
:104E6000069378E047F0100717F0200900F034812E
:104E70000E9B073323F00703D3F8049053F8084B35
:104E80000E9327F4806B002300228DF88320079A6D
:104E9000511C00F00D8254EA09012BF0800740F00C
:104EA0000682002A41F01080002B40F0A2841BF003
:104EB00001030B9300F0378530238DF84F310DF24D
:104EC0004F15BBE7BAEB050600F0BC802A9B3344C4
:104ED0002A93299B0133072BC8E90056299305DC47
:104EE00008F10808089B33440893DBE60C990A98FC
:104EF00028AA03F0F1F880B90DF1AC08F2E70C999B
:104F00000A9828AA03F0E8F8002800F08C800D9B8E
:104F10001BB10D990A98FFF79DF90C9B9B8913F023
:104F2000400F089B18BF4FF0FF330893089855B007
:104F3000BDE8F08F002E00F0858000228DF8EC6037
:104F40008DF88320012306930D920B9307920F9205
:104F5000139210923BAD17F0020302D00699023172
:104F6000069117F0840B07D109990698A1EB000967
:104F7000B9F1000F00F315832A9C8AB1299A0DF12B
:104F8000830101320134C8F80010072A4FF00101F3
:104F90002A942992C8F8041000F3468308F10808FF
:104FA00083B1299B21AA01330234C8F80020072BC2
:104FB0004FF002022A942993C8F8042000F3488392
:104FC00008F10808BBF1800F00F00E82079B0B9AD6
:104FD000A3EB020BBBF1000F00F34F82FB0500F1C6
:104FE000A5810B9BC8F804301C44299BC8F80050CD
:104FF0000133072B2A94299300F3C78208F108088C
:105000007B0705D5099B069A9D1A002D00F32C837A
:10501000DDE9083206998A42ACBF9B185B180893F9
:10502000002C7FF46CAF002329930D9B1BB10D99CD
:105030000A98FFF70FF90DF1AC0855462B78002BB5
:105040007FF423AE2A9B002B3FF467AF0C9C0A9899
:1050500028AA214603F040F8A38960E70E9B073396
:1050600023F00702F2E80234CDE91434DDE9143408
:1050700024F000440E92994618462146A74B4FF063
:10508000FF32FCF713FB002840F06284A34B484634
:1050900021464FF0FF32FCF7EBFA002840F058842D
:1050A000DDE9140100220023FCF7D8FA002840F0C3
:1050B000AD879DF883209A4D9A4B27F080070321F6
:1050C000472EC8BF1D4600230D9306910B910793F1
:1050D0000F9313931093BFE617F0100340F02E8444
:1050E00017F0400200F054870E9A52F8044B0E92CB
:1050F0009946A4B2C5E653F8044B0E93FB0600F1A3
:1051000018847D0640F1128444F3C0394B4624B222
:105110007AE60E9B002253F8041B8DF883208DF84D
:10512000EC100E930EE70E9C079B54F8045B4FF0B7
:1051300000098DF88390002D00F0D5865A1C00F0F0
:1051400052851A4649462846FCF7C2F80D900028B9
:1051500001F057800D9BCDF81C905B1B0B930E94B8
:1051600023EAE3739DF883200693CDF83490CDF8BD
:105170003C90CDF84C90CDF840906DE60E9B53F8E6
:10518000042B0992002A80F2C983099A0E93524295
:1051900009929AF8006047F0040797E547F0100B72
:1051A0001BF0200900F081830E9B073323F00703D7
:1051B000D3F8049053F8084B0E93012364E60E9B3A
:1051C00053F8044B0E93302378268DF88430564BD9
:1051D000189347F0020B8DF885604FF00009022309
:1051E00052E6BD0600F18284FC0600F17386780663
:1051F00000F13C87B90540F16D860E9B089953F884
:10520000042B0E931170554618E79AF800606C2E27
:1052100003BF9AF8016047F020070AF1010A47F03E
:10522000100753E59AF80060682E03BF9AF80160F2
:1052300047F400770AF1010A47F0400746E59AF87B
:10524000006047F0080741E59AF8006047F0010761
:105250003CE59DF88330002B7FF4BFAD9AF80060E9
:105260008DF8839032E59AF8006047F080072DE5CD
:10527000524612F8016B2A2E01F0CD81A6F13003BF
:10528000092B924698BF002201F288801AF8016B20
:1052900002EB820203EB4202A6F13003092BF5D99F
:1052A000079215E59AF800608DF883400EE5BB463D
:1052B000012B3FF4B6AD022B54AD12D1189A04F075
:1052C0000F032409D35C05F8013D44EA09744FEA51
:1052D000191954EA0903F2D154AB5B1B5F460B93D7
:1052E000ACE504F00703E40844EA49744FEAD9093D
:1052F000303354EA09012A4605F8013DF1D11BF08B
:10530000010FE9D0302BE7D03023023A05F8013CF9
:1053100054AB9B1A5F460B9315468FE5FFFFEF7F5B
:10532000209D0008249D0008309D0008652E40F354
:10533000E680DDE9140100220023FCF785F900284E
:1053400000F0CD81299BBF4AC8F800200133013409
:105350000122072B2A942993C8F8042000F37D85A5
:1053600008F10808229B129A934280F2D382169B7E
:10537000179A1C44C8E90023299B2A940133072B60
:10538000299300F3EB8308F10808129B5D1E002DA2
:105390007FF736AE102D299BDFF8AC9240F36E8577
:1053A00049462246B946DDF828B00C9C10260F4627
:1053B00005E008F10808103D102D40F35B8501332E
:1053C0001032072BC8E90076CDE92932F1DD28AA91
:1053D0002146584602F080FE00287FF498ADDDE9B2
:1053E00029320DF1AC08E6E7099B069AA3EB020B04
:1053F000BBF1000F7FF7EAADBBF1100F299ADFF880
:1054000048922CDD1D9621464E460C9CDDF82890D6
:10541000102306E0ABF1100BBBF1100F08F10808E8
:105420001ADD01321031072AC8E90063CDE92921CC
:10543000F0DD28AA214648460DF1AC0802F04CFEEA
:1054400000287FF464ADABF1100BBBF1100FDDE968
:1054500029214FF01003E4DCB1461D9E0C460132B9
:105460005C44072ACDE92924C8F80090C8F804B0A4
:1054700000F31D8508F10808A8E5BBF1100F299A73
:10548000DFF8C4912DDD41462046A8464C460C9DD0
:10549000DDF82890102306E0ABF1100BBBF1100FE4
:1054A00001F1080119DD01321030072AC1E900437A
:1054B000CDE92920F0DD28AA2946484602F00CFE55
:1054C00000287FF424ADABF1100BBBF1100FDDE928
:1054D00029202BA94FF01003E5DC4546A14688465C
:1054E000044601325C44072ACDE92924C8F800901B
:1054F000C8F804B000F3CC8108F108086EE5129BEF
:10550000012B40F37C81299EC8F8005001360134FC
:105510000123072E2A942996C8F8043000F3E0816D
:1055200008F10808169B179A01361C44072EC8E993
:105530000023CDE9296400F3E08108F10808DDE9E2
:10554000140100220023FCF77FF8002840F074814A
:10555000129B0136013B01351C44072EC8F8005050
:105560002996C8F804302A9400F3598108F10808F4
:105570001A9BC8F8043001361C44072E24ABCDE931
:105580002964C8F800307FF739AD0C990A9828AA29
:1055900002F0A2FD00287FF4BAAC2A9C0DF1AC0801
:1055A0002EE5B9F1100FDDE929212BDDCDE91D3BF9
:1055B0001F96DDF828B04E461024A9460C9D04E045
:1055C000103E102E08F1080817DD01321F4B103174
:1055D000072AC8E90034CDE92921F1DD28AA2946A6
:1055E00058460DF1AC0802F077FD00287FF48FAC2F
:1055F000103E102EDDE92921E7DCDDE91D3B4D469B
:10560000B1461F9EC8F80490013209EB0104072A35
:105610000E49C8F80010CDE9292400F3FF839DF856
:10562000832008F10808A8E40C990A981D9328AA79
:1056300002F052FD00287FF46AAC2A9C1D9B0DF1FC
:10564000AC08ADE4609D0008749D0008649D0008EE
:105650000C990A9828AA02F03FFD00287FF457AC65
:105660002A9C0DF1AC08ADE4102D299B21DD0A9F89
:10567000DDF83090102604E0103D102D08F10808E8
:1056800017DD0133B04A1034072BC8E90026CDE9F5
:105690002934F1DD28AA494638460DF1AC0802F05C
:1056A0001BFD00287FF433AC103D102DDDE92934BB
:1056B000E7DC0133A44AC8F804502C44072BCDE999
:1056C0002934C8F800207FF7A3AC0C990A9828AABF
:1056D00002F002FD00287FF41AAC2A9C98E422997B
:1056E000002940F36683DDF84090129B9945A8BFDE
:1056F0009946B9F1000F0BDD299B01334C44072B70
:10570000C8E900592A94299300F32F8508F1080865
:10571000109EB9F1000FA8BFA6EB0906002E00F3FA
:105720003882DDF840B07805AB4400F16682229BF8
:10573000129A934202DBF90740F18E84169A179968
:105740001444C8E90012299A2A940132072A29929E
:1057500000F3188508F10808129AAE18A6EB0B069C
:10576000D51AAE42A8BF2E46002E0DDD299BC8F8E3
:1057700000B001333444072BC8F804602A942993FD
:1057800000F31A8608F10808002EA8BFAD1B002DF3
:105790007FF736AC102D299BDFF8B09140F36E8374
:1057A00049462246B946DDF828B00C9C10260F4623
:1057B00005E008F10808103D102D40F35B8301332C
:1057C0001032072BC8E90076CDE92932F1DD28AA8D
:1057D0002146584602F080FC00287FF498ABDDE9B2
:1057E00029320DF1AC08E6E7079B002B7FF41EABD6
:1057F0005F46002307930B9354ADFFF71FBBFA07D7
:105800003FF581AE299EC8F80050013601340123CE
:10581000072E2A942996C8F804307FF7A7AE0C9972
:105820000A9828AA02F058FC00287FF470ABDDE942
:1058300029640DF1AC089BE6129B5D1E002D7FF7DD
:1058400097AE102DDFF8049140F396832246079718
:105850000A9C0C9F4FF0100B05E008F10808103D62
:10586000102D40F3878301361032072EC8E9009BC4
:10587000CDE92962F1DD28AA3946204602F02CFC48
:1058800000287FF444ABDDE929620DF1AC08E6E7BE
:105890000C990A9828AA02F01FFC00287FF437AB65
:1058A0002A9C0DF1AC08FFF799BB1BF0100340F0E8
:1058B00028811BF0400200F079830E9A52F8044BC5
:1058C0000E929946A4B20123FFF7DEBA2D2364425B
:1058D0008DF8833069EB4909BB460123FFF7D7BA3E
:1058E0000C990A9828AA02F0F7FB00287FF40FAB66
:1058F000DDE929640DF1AC0814E60C990A9828AA90
:1059000002F0EAFB00287FF402ABDDE929640DF127
:10591000AC0814E6FD077FF573AB28E59AF8006044
:105920000E93FFF7D3B954ADFFF788BAB80500F16D
:10593000A6834FEAE4794B46FFF766BA0E9B53F80D
:10594000044B0E93FFF79DBA649D0008749D0008F8
:10595000DDE9140102460B46FBF7A8FE002840F0E3
:105960000F86612E00F04585412E00F06D84079B67
:10597000013326F02003069300F0A983472B00F0A3
:105980008885DDE9141247F480730F931346002BCA
:10599000C0F292850B9300231D938B460D93069BBB
:1059A000462B00F0FD83452B00F0448507990191BB
:1059B00026A9049123A9039122A9029102210B9BFC
:1059C0000A9800915A4600F053FF069B472B054664
:1059D00040F0318617F0010FB9460F9F40F0FC846C
:1059E000269B5B1B1293069B472B00F08283069B32
:1059F000462B00F01284229B1093109B069A013BC9
:105A0000412A229300F0AD85F2B20021002BB8BFED
:105A1000109B8DF89020BABFC3F101032D222B22D9
:105A2000092B8DF8912040F38D850DF19F04B64F21
:105A30002246104687FB0321DA17C2EBA10202EBD4
:105A40008201A3EB4101303100F8011C19466329A2
:105A5000134600F1FF32ECDC3033D9B2831E9C4296
:105A600002F8011C40F2F18513460DF1920201E0AB
:105A700013F8011B02F8011B9C42F9D10DF1A1039F
:105A80000DF192021B1A134424AA9B1A1A93129B1B
:105A90001A9A012B1A440B9240F39E850B9B169A7F
:105AA00013440B930B9A002329F4806722EAE272D5
:105AB00047F480770F930692139310931D9B002B4E
:105AC00040F03F839DF883200793FFF7C5B9199BEA
:105AD000002B3FF482A9199B1B78002B3FF47DA972
:105AE0009AF8006047F48067FFF7F0B80E9B0898BB
:105AF00053F8041B0E93C217C1E900025546FFF785
:105B00009DBA0E9B53F8044B0E930123FFF7BCB9CB
