:020000040800F2
:1000000000000220CD240008111F0008131F000863
:10001000151F0008171F0008191F00080000000026
:100020000000000000000000000000001B1F00088E
:100030001D1F0008000000001F1F0008211F0008EE
:100040001D2500081D2500081D2500081D25000888
:100050001D2500081D250008291F00081D25000872
:100060001D2500081D2500081D2500081D25000868
:100070001D2500081D2500081D2500081D25000858
:100080001D2500081D2500081D2500081D25000848
:100090001D2500081D2500081D250008331F000828
:1000A0001D2500081D2500081D2500081D25000828
:1000B0001D2500081D2500081D2500081D25000818
:1000C0001D2500081D2500081D2500081D25000808
:1000D0001D2500081D2500083D1F00084D1F0008B4
:1000E0001D2500081D2500081D2500081D250008E8
:1000F0001D2500081D2500081D2500081D250008D8
:100100001D2500081D2500081D2500081D250008C7
:100110001D2500081D2500085D1F00086D1F000833
:100120001D2500081D2500081D2500081D250008A7
:100130001D2500081D2500081D2500081D25000897
:100140001D2500081D2500081D2500081D25000887
:100150001D2500081D2500081D2500081D25000877
:100160001D2500081D2500081D2500081D25000867
:100170001D2500081D2500081D25000800000000A1
:080180001D2500081D250008E3
:1001C00010B5054C237833B9044B13B10448AFF391
:1001D00000800123237010BDC8090020000000002A
:1001E00008A3000808B5034B1BB103490348AFF34C
:1001F000008008BD00000000CC09002008A3000812
:1002000081F0004102E000BF83F0004330B54FEAC7
:1002100041044FEA430594EA050F08BF90EA020F34
:100220001FBF54EA000C55EA020C7FEA645C7FEAC7
:10023000655C00F0E2804FEA5454D4EB5555B8BFEA
:100240006D420CDD2C4480EA020281EA030382EA5B
:10025000000083EA010180EA020281EA0303362DED
:1002600088BF30BD11F0004F4FEA01314FF4801CC0
:100270004CEA113102D0404261EB410113F0004FD2
:100280004FEA03334CEA133302D0524263EB430389
:1002900094EA050F00F0A780A4F10104D5F1200E27
:1002A0000DDB02FA0EFC22FA05F2801841F1000182
:1002B00003FA0EF2801843FA05F359410EE0A5F156
:1002C00020050EF1200E012A03FA0EFC28BF4CF087
:1002D000020C43FA05F3C01851EBE37101F000453D
:1002E00007D54FF0000EDCF1000C7EEB00006EEB4A
:1002F0000101B1F5801F1BD3B1F5001F0CD34908D4
:100300005FEA30004FEA3C0C04F101044FEA44522A
:1003100012F5800F80F09A80BCF1004F08BF5FEAB1
:10032000500C50F1000041EB045141EA050130BD91
:100330005FEA4C0C404141EB0101013C28BFB1F5A3
:10034000801FE9D291F0000F04BF01460020B1FAEE
:1003500081F308BF2033A3F10B03B3F120020CDAC1
:100360000C3208DD02F1140CC2F10C0201FA0CF09F
:1003700021FA02F10CE002F11402D8BFC2F1200C04
:1003800001FA02F120FA0CFCDCBF41EA0C019040BA
:10039000E41AA2BF01EB0451294330BD6FEA040403
:1003A0001F3C1CDA0C340EDC04F11404C4F12002EE
:1003B00020FA04F001FA02F340EA030021FA04F300
:1003C00045EA030130BDC4F10C04C4F1200220FA57
:1003D00002F001FA04F340EA0300294630BD21FA95
:1003E00004F0294630BD94F0000F83F4801306BF5B
:1003F00081F480110134013D4EE77FEA645C18BF4F
:100400007FEA655C29D094EA050F08BF90EA020FE5
:1004100005D054EA000C04BF1946104630BD91EADD
:10042000030F1EBF0021002030BD5FEA545C05D1E0
:100430004000494128BF41F0004130BD14F580041F
:100440003CBF01F5801130BD01F0004545F0FE4193
:1004500041F470014FF0000030BD7FEA645C1ABFC8
:10046000194610467FEA655C1CBF0B46024650EAFF
:10047000013406BF52EA033591EA030F41F400212B
:1004800030BD00BF90F0000F04BF0021704730B5B1
:100490004FF4806404F132044FF000054FF0000186
:1004A00050E700BF90F0000F04BF0021704730B547
:1004B0004FF4806404F1320410F0004548BF40421C
:1004C0004FF000013EE700BF42004FEAE2014FEA71
:1004D00031014FEA02701FBF12F07F4393F07F4F4C
:1004E00081F06051704732F07F4208BF704793F04F
:1004F0007F4F04BF41F40021704730B54FF4607462
:1005000001F0004521F000411CE700BF50EA010264
:1005100008BF704730B54FF000050AE050EA01020D
:1005200008BF704730B511F0004502D5404261EB7D
:1005300041014FF4806404F132045FEA915C3FF4BE
:10054000D8AE4FF003025FEADC0C18BF03325FEA5B
:10055000DC0C18BF033202EBDC02C2F1200300FA0C
:1005600003FC20FA02F001FA03FE40EA0E0021FA31
:1005700002F11444BDE600BF70B54FF0FF0C4CF41F
:10058000E06C1CEA11541DBF1CEA135594EA0C0FD1
:1005900095EA0C0F00F0DEF82C4481EA030621EA0C
:1005A0004C5123EA4C5350EA013518BF52EA033547
:1005B00041F4801143F4801338D0A0FB02CE4FF0F9
:1005C0000005E1FB02E506F00042E0FB03E54FF029
:1005D0000006E1FB03569CF0000F18BF4EF0010E21
:1005E000A4F1FF04B6F5007F64F5407404D25FEA1D
:1005F0004E0E6D4146EB060642EAC62141EA5551D0
:100600004FEAC52040EA5E504FEACE2EB4F1FD0C11
:1006100088BFBCF5E06F1ED8BEF1004F08BF5FEA8F
:10062000500E50F1000041EB045170BD06F0004641
:1006300046EA010140EA020081EA0301B4EB5C04EE
:10064000C2BFD4EB0C0541EA045170BD41F48011E6
:100650004FF0000E013C00F3AB8014F1360FDEBF0B
:10066000002001F0004170BDC4F10004203C35DAE7
:100670000C341BDC04F11404C4F1200500FA05F36A
:1006800020FA04F001FA05F240EA020001F000420B
:1006900021F0004110EBD37021FA04F642EB060181
:1006A0005EEA430E08BF20EAD37070BDC4F10C04AB
:1006B000C4F1200500FA04F320FA05F001FA04F26F
:1006C00040EA020001F0004110EBD37041F100015B
:1006D0005EEA430E08BF20EAD37070BDC4F1200566
:1006E00000FA05F24EEA020E20FA04F301FA05F2CE
:1006F00043EA020321FA04F001F0004121FA04F276
:1007000020EA020000EBD3705EEA430E08BF20EA45
:10071000D37070BD94F0000F0FD101F0004640007F
:1007200041EB010111F4801F08BF013CF7D041EA01
:10073000060195F0000F18BF704703F00046520005
:1007400043EB030313F4801F08BF013DF7D043EAD6
:100750000603704794EA0C0F0CEA135518BF95EA8C
:100760000C0F0CD050EA410618BF52EA4306D1D113
:1007700081EA030101F000414FF0000070BD50EA32
:10078000410606BF1046194652EA430619D094EABC
:100790000C0F02D150EA013613D195EA0C0F05D1A6
:1007A00052EA03361CBF104619460AD181EA0301FA
:1007B00001F0004141F0FE4141F470014FF00000B2
:1007C00070BD41F0FE4141F4780170BD70B54FF04D
:1007D000FF0C4CF4E06C1CEA11541DBF1CEA1355CD
:1007E00094EA0C0F95EA0C0F00F0A7F8A4EB0504AF
:1007F00081EA030E52EA03354FEA013100F08880A6
:100800004FEA03334FF0805545EA131343EA12636E
:100810004FEA022245EA111545EA10654FEA002623
:100820000EF000419D4208BF964244F1FD0404F5DC
:10083000407402D25B084FEA3202B61A65EB030538
:100840005B084FEA32024FF480104FF4002CB6EBF5
:10085000020E75EB030E22BFB61A754640EA0C0075
:100860005B084FEA3202B6EB020E75EB030E22BFB5
:10087000B61A754640EA5C005B084FEA3202B6EBF6
:10088000020E75EB030E22BFB61A754640EA9C00B5
:100890005B084FEA3202B6EB020E75EB030E22BF85
:1008A000B61A754640EADC0055EA060E18D04FEA43
:1008B000051545EA16754FEA06164FEAC30343EAE3
:1008C00052734FEAC2025FEA1C1CC0D111F4801FB0
:1008D0000BD141EA00014FF000004FF0004CB6E7A9
:1008E00011F4801F04BF01430020B4F1FD0C88BF48
:1008F000BCF5E06F3FF6AFAEB5EB030C04BFB6EB53
:10090000020C5FEA500C50F1000041EB045170BD45
:100910000EF0004E4EEA113114EB5C04C2BFD4EB72
:100920000C0541EA045170BD41F480114FF0000EF6
:10093000013C90E645EA060E8DE60CEA135594EA72
:100940000C0F08BF95EA0C0F3FF43BAF94EA0C0F75
:100950000AD150EA01347FF434AF95EA0C0F7FF4EA
:1009600025AF104619462CE795EA0C0F06D152EA3E
:1009700003353FF4FDAE1046194622E750EA410622
:1009800018BF52EA43067FF4C5AE50EA41047FF433
:100990000DAF52EA43057FF4EBAE12E74FEA410296
:1009A000B2F1E04324BFB3F5001CDCF1FE5C0DD9CD
:1009B00001F0004C4FEAC0024CEA5070B2F1004F17
:1009C00040EB830008BF20F00100704711F0804F1A
:1009D00021D113F13872BCBF01F00040704741F4DF
:1009E00080114FEA5252C2F11802C2F1200C10FAE3
:1009F0000CF320FA02F018BF40F001004FEAC123C7
:100A00004FEAD32303FA0CFC40EA0C0023FA02F36A
:100A10004FEA4303CCE77FEA625307D150EA013340
:100A20001EBF4FF0FE4040F44000704701F0004010
:100A300040F0FE4040F40000704700BF80F00040EE
:100A400002E000BF81F0004142001FBF5FEA4103A6
:100A500092EA030F7FEA226C7FEA236C6AD04FEAA6
:100A60001262D2EB1363C1BFD218414048404140EB
:100A7000B8BF5B42192B88BF704710F0004F40F49D
:100A8000000020F07F4018BF404211F0004F41F4B9
:100A9000000121F07F4118BF494292EA030F3FD085
:100AA000A2F1010241FA03FC10EB0C00C3F1200398
:100AB00001FA03F100F0004302D5494260EB400027
:100AC000B0F5000F13D3B0F1807F06D340084FEA92
:100AD000310102F10102FE2A51D2B1F1004F40EB87
:100AE000C25008BF20F0010040EA030070474900EF
:100AF00040EB0000013A28BFB0F5000FEDD2B0FA8C
:100B000080FCACF1080CB2EB0C0200FA0CF0AABFAE
:100B100000EBC25052421843BCBFD040184370474C
:100B200092F0000F81F4000106BF80F40000013252
:100B3000013BB5E74FEA41037FEA226C18BF7FEA29
:100B4000236C21D092EA030F04D092F0000F08BF6B
:100B50000846704790EA010F1CBF0020704712F052
:100B60007F4F04D1400028BF40F00040704712F191
:100B700000723CBF00F50000704700F0004343F0F6
:100B8000FE4040F4000070477FEA226216BF08462C
:100B90007FEA23630146420206BF5FEA412390EAEF
:100BA000010F40F4800070474FF0000304E000BFE5
:100BB00010F0004348BF40425FEA000C08BF704796
:100BC00043F0964301464FF000001CE050EA01025A
:100BD00008BF70474FF000030AE000BF50EA01026F
:100BE00008BF704711F0004302D5404261EB41015C
:100BF0005FEA010C02BF84460146002043F0B64381
:100C000008BFA3F18053A3F50003BCFA8CF2083AA5
:100C1000A3EBC25310DB01FA02FC634400FA02FCAE
:100C2000C2F12002BCF1004F20FA02F243EB0200B5
:100C300008BF20F00100704702F1200201FA02FC17
:100C4000C2F1200250EA4C0021FA02F243EB02000A
:100C500008BF20EADC70704742000ED2B2F1FE4FAE
:100C60000BD34FF09E03B3EB126209D44FEA00237B
:100C700043F0004323FA02F070474FF00000704742
:100C800012F1610F01D1420202D14FF0FF307047E3
:100C90004FF00000704700BF53B94AB9002908BFA0
:100CA00000281CBF4FF0FF314FF0FF3000F092B929
:100CB000ADF1080C6DE904CE00F024F8DDF804E095
:100CC000DDE9022304B07047D0B50C4B0022064684
:100CD0000F46FFF751FC00F07FF90446FFF7D2FB07
:100CE000074B0022FFF748FC02460B4630463946C8
:100CF000FFF78AFA00F070F92146D0BD0000F03D00
:100D00000000F0412DE9F047089E0D460446884654
:100D1000002B4DD18A42944668D9B2FA82F252B180
:100D200001FA02F3C2F1200120FA01F10CFA02FCEF
:100D300041EA030894404FEA1C45210CB8FBF5FE3C
:100D40001FFA8CF705FB1E8341EA03430EFB07F1F4
:100D500099420BD91CEB03030EF1FF3080F01E818A
:100D6000994240F21B81AEF1020E63445B1AA4B2B9
:100D7000B3FBF5F005FB103344EA034400FB07F72F
:100D8000A7420AD91CEB040400F1FF3380F008816C
:100D9000A74240F2058164440238E41B40EA0E4059
:100DA00000211EB1D4400023C6E90043BDE8F0870E
:100DB0008B4208D9002E00F0EE800021C6E9000524
:100DC0000846BDE8F087B3FA83F100294AD1AB4267
:100DD00002D3824200F2F980841A65EB03030120FA
:100DE0009846002EE2D0C6E90048DFE702B9FFDEF0
:100DF000B2FA82F2002A40F09180A1EB0C054FEA92
:100E00001C471FFA8CFE0121B5FBF7F307FB1350BB
:100E1000250C45EA00450EFB03F0A84208D91CEB5F
:100E2000050503F1FF3802D2A84200F2CB80434609
:100E30002D1AA4B2B5FBF7F007FB105544EA0544A0
:100E40000EFB00FEA64508D91CEB040400F1FF359B
:100E500002D2A64500F2BB802846A4EB0E0440EA6D
:100E600003409EE7C1F120078B4022FA07FC4CEAC1
:100E7000030C20FA07F405FA01F31C43FD404FEA86
:100E80001C4900FA01F3B5FBF9F8200C1FFA8CFE9F
:100E900009FB185540EA054508FB0EF0A84202FA86
:100EA00001F20BD91CEB050508F1FF3A80F08880B0
:100EB000A84240F28580A8F1020865442D1AA4B228
:100EC000B5FBF9F009FB105544EA054500FB0EFEA1
:100ED000AE4508D91CEB050500F1FF346CD2AE45D8
:100EE0006AD90238654440EA0840A0FB0294A5EBA9
:100EF0000E05A542C846A64656D353D05EB1B3EB05
:100F0000080265EB0E0505FA07F722FA01F3CD405A
:100F10001F43C6E900750021BDE8F087C2F1200338
:100F200020FA03F10CFA02FC25FA03F395400D4375
:100F30004FEA1C471FFA8CFEB3FBF7F107FB113099
:100F40002B0C43EA004301FB0EF0984204FA02F432
:100F500008D91CEB030301F1FF382FD298422DD999
:100F6000023963441B1AADB2B3FBF7F007FB103331
:100F700045EA034500FB0EF3AB4208D91CEB05051F
:100F800000F1FF3816D2AB4214D902386544ED1A8D
:100F900040EA014138E73146304607E78646E5E654
:100FA0001846FAE64B45A9D2B9EB020864EB0C0EE1
:100FB0000138A3E74046EAE7204694E74146D1E7F7
:100FC000D0467BE7023B654432E7084609E76444C4
:100FD000023842E7704700BF4A0011D212F50012F2
:100FE00011D20DD56FF47873B3EB62520ED44FEA81
:100FF000C12343F0004343EA505323FA02F0704701
:101000004FF00000704750EA013002D14FF0FF303E
:1010100070474FF000007047000000000000000023
:1010200001F0FF01102A2BDB10F0070F08D010F899
:10103000013B013A8B422DD010F0070F42B3F6D19D
:10104000F0B441EA012141EA014122F007047FF0B6
:1010500000070023F0E80256083C85EA010586EA0D
:10106000010685FA47F5A3FA87F586FA47F6A5FA49
:1010700087F68EB9EED1F0BC01F0FF0102F0070255
:1010800032B110F8013B013A83EA010313B1F8D100
:101090000020704701387047002D06BF35460338E1
:1010A000073815F0010F07D1013015F4807F02BF1A
:1010B000013015F4C03F0130F0BC0138704700BF6B
:1010C000844641EA000313F003036DD1403A41D353
:1010D00051F8043B40F8043B51F8043B40F8043B12
:1010E00051F8043B40F8043B51F8043B40F8043B02
:1010F00051F8043B40F8043B51F8043B40F8043BF2
:1011000051F8043B40F8043B51F8043B40F8043BE1
:1011100051F8043B40F8043B51F8043B40F8043BD1
:1011200051F8043B40F8043B51F8043B40F8043BC1
:1011300051F8043B40F8043B51F8043B40F8043BB1
:1011400051F8043B40F8043B51F8043B40F8043BA1
:10115000403ABDD2303211D351F8043B40F8043B41
:1011600051F8043B40F8043B51F8043B40F8043B81
:1011700051F8043B40F8043B103AEDD20C3205D351
:1011800051F8043B40F8043B043AF9D2043208D049
:10119000D2071CBF11F8013B00F8013B01D30B88BB
:1011A00003806046704700BF082A13D38B078DD099
:1011B00010F003038AD0C3F10403D21ADB071CBF6B
:1011C00011F8013B00F8013B80D331F8023B20F8D5
:1011D000023B7BE7043AD9D3013A11F8013B00F80E
:1011E000013BF9D20B7803704B7843708B78837096
:1011F0006046704700000000000000000000000092
:1012000090F800F06DE9024520F007016FF0000C46
:1012100010F0070491F820F040F049804FF00004EE
:101220006FF00700D1E9002391F840F000F10800C9
:1012300082FA4CF2A4FA8CF283FA4CF3A2FA8CF301
:101240004BBBD1E9022382FA4CF200F10800A4FA68
:101250008CF283FA4CF3A2FA8CF3E3B9D1E90423BC
:1012600082FA4CF200F10800A4FA8CF283FA4CF3F3
:10127000A2FA8CF37BB9D1E9062301F1200182FAAD
:101280004CF200F10800A4FA8CF283FA4CF3A2FAB3
:101290008CF3002BC6D0002A04BF04301A4612BAC1
:1012A000B2FA82F2FDE8024500EBD2007047D1E9C4
:1012B000002304F00305C4F100004FEAC50514F053
:1012C000040F91F840F00CFA05F562EA05021CBF24
:1012D00063EA050362464FF00004A9E74FF0FF3CC4
:1012E00006E000BF4FF0010C02E000BF4FF0010C20
:1012F0004DF804CD4FEA410C7FEA6C5C4FEA430C99
:1013000018BF7FEA6C5C1BD001B050EA410C0CBFE7
:1013100052EA430C91EA030F02BF90EA020F002049
:10132000704710F1000F91EA030F58BF994208BFB0
:1013300090422CBFD8176FEAE37040F0010070476D
:101340004FEA410C7FEA6C5C02D150EA013C07D1C4
:101350004FEA430C7FEA6C5CD6D152EA033CD3D00F
:101360005DF8040B704700BF8446104662468C4609
:101370001946634600E000BF01B5FFF7B7FF00283C
:1013800048BF10F1000F01BD4DF808EDFFF7F4FF65
:101390000CBF012000205DF808FB00BF4DF808EDF0
:1013A000FFF7EAFF34BF012000205DF808FB00BF13
:1013B0004DF808EDFFF7E0FF94BF012000205DF835
:1013C00008FB00BF4DF808EDFFF7CEFF94BF0120EA
:1013D00000205DF808FB00BF4DF808EDFFF7C4FFE3
:1013E00034BF012000205DF808FB00BF4FEA410C2C
:1013F0007FEA6C5C02D150EA013C0AD14FEA430C0F
:101400007FEA6C5C02D152EA033C02D14FF000004B
:1014100070474FF0010070474FEA410212F5001289
:1014200015D211D56FF47873B3EB625212D94FEA2B
:10143000C12343F0004343EA505311F0004F23FA15
:1014400002F018BF404270474FF00000704750EA6A
:10145000013005D111F0004008BF6FF00040704727
:101460004FF00000704700BF30B504460D464B1EDC
:1014700000EB030E0020E05415E05B008EF8003016
:101480004FEA5C0C0132072A0CDC9EF800300CF0AD
:101490000101B1EBD31FF0D05B0083F007038EF89E
:1014A0000030EDE701306B1E834203DD14F800C00D
:1014B0000022E8E730BD000008B5064B00EB400114
:1014C00003EB011108460122898C006A01F012FB2E
:1014D00008BD00BFF009002008B5064B00EB400135
:1014E00003EB011108460022898C006A01F002FB1F
:1014F00008BD00BFF009002030B583B004460525C3
:101500008DF8005000238DF8013061F07F018DF8D7
:101510000210130E8DF80330130C8DF80430130AEB
:101520008DF805308DF8062008216846FFF79CFFEE
:10153000642001F047F804EB44042401FF2308224F
:1015400069460948005902F0DBFB284600F01EFB03
:10155000FF230F220549064802F0D2FB642001F068
:1015600031F803B030BD00BFF0090020040C0020AA
:10157000A40C00202DE9F84F054616461F4600EB47
:101580004002414B03EB021393F82F30002B52D152
:101590004FF00008C14657E0642941D005EB4503F0
:1015A000394A02EB031393F82E30002B69D1013432
:1015B00048F10008B44278EB070362D205EB450A14
:1015C000314B03EB0A1A0022BAF81C10DAF81800A3
:1015D00001F090FA09F10A0B584600F0D7FA0122FF
:1015E000BAF81C10DAF8180001F084FA584600F036
:1015F000CDFA264B19780131C9B21970244BF31872
:1016000067F100029C4278EB0203C5D36429C3D181
:101610001E4B00221A7009F101091FFA89F9BDE772
:10162000B9F1000FBAD0194B00221A7009F1FF3935
:101630001FFA89F9B2E74FF064090024A046B9E720
:1016400018F1010849F10009B04579EB070318D2F8
:1016500005EB45040C4901EB04140022A18BA069A1
:1016600001F048FA0A2000F091FA0122A18BA0694A
:1016700001F040FA0A2000F089FA94F82E30002B8D
:10168000DED0BDE8F88F00BFF0090020E40900209B
:10169000F0D8FFFF2DE9F04704460D46904600EBD9
:1016A000400A2E4B03EB0A1ABAF80600FEF7EAFED0
:1016B00000222B4BFEF760FFDAE90423FFF786F8E0
:1016C00006460F464046FEF7DDFE804689469AF8FC
:1016D0000400FEF7D7FE02460B4640464946FFF798
:1016E00075F8804689462046FFF7F6FE0A2000F08E
:1016F00069FF1DB31B4D08212846FFF7B5FE04EB1B
:1017000044000001FF2308222946144D285802F006
:10171000F7FA42464B4630463946FEF72DFFFFF7B3
:10172000D3FA02460B462046FFF724FF0A2000F0BA
:1017300049FF2046FFF7C0FEBDE8F0870A4D0821AB
:101740002846FFF791FE04EB44000001FF23082226
:101750002946024D285802F0D3FADAE7F0090020B2
:1017600000807640080000200000002010B582B004
:1017700004460023019355238DF804308DF806109C
:1017800004210DEB0100FFF76FFE04EB440424017C
:10179000FF2304220DEB02010C48005902F0B0FABD
:1017A000052000F0F3F90A4CFF230F2221460948D7
:1017B00002F0A6FAE079237A1B0403EB0063607A57
:1017C00003EB0023A07A184402B010BDF0090020FA
:1017D000040C0020A40C002010B504460121FFF7E2
:1017E000C5FF40F0030201212046FFF785FE10BD32
:1017F00008B5FFF7DDF9C0F3C7507F3808BD38B52D
:1018000004460D460021FFF7B1FF35B140F0040258
:1018100000212046FFF770FE38BD20F00402F7E7F4
:1018200038B504460D460021FFF7A0FF35B140F062
:10183000800200212046FFF75FFE38BD20F08002C5
:10184000F7E7000070B504460D466C21FFF78EFFE8
:1018500006462846FFF7CCFFC0F1080226F0706666
:1018600046EA02626C212046FFF746FE0021204630
:10187000FFF7D6FFC82305FB03F3044A136004EB0C
:101880004404034800EB0414E58070BDE80900201F
:10189000F009002008B500EB400C074B03EB0C13DC
:1018A0004FF0000C83F82EC002B108BD0A46222179
:1018B000FFF722FEF9E700BFF0090020000000005A
:1018C000D0B504460846FEF7FFFD0DA3D3E900237B
:1018D000FEF77CFF06460F460B4B1868FEF7D2FD5D
:1018E00032463B46FEF748FEFFF758F808F0E8FCA2
:1018F000FFF7B2F9014600222046FFF7CBFFD0BD2B
:10190000E17A14AE47E1E63FE809002010B504464D
:101910000548A0FB01304009FFF746F90146204683
:10192000FFF7CEFF10BD00BF8988888838B5044610
:101930000D460021FFF763FF2A4640212046FFF7AE
:10194000DBFD4FF4FA6214212046FFF7D5FD1E217E
:101950002046FFF7DBFF38BD2DE9F84F05469146DD
:1019600098469DF844A0284E00EB4004230106EB66
:101970000414F1500B9BA361BDF83030A3830D9B81
:101980002362BDF83830A384E2801DA3D3E900238D
:10199000C4E90423A4F808809DF8283023710F9B24
:1019A000A362BDF84030A385002784F82F70FFF7AD
:1019B00013FF49462846FFF745FF51462846FFF7E3
:1019C000B5FF84F82E7042469DF848102846FFF770
:1019D00061FE4FF4FA7000F0F5FD012384F82F301A
:1019E00084F82E702846FFF7F7FE20213846FFF7CF
:1019F00029FF51462846FFF799FFBDE8F88F00BF41
:101A0000CDCCCCCCCCCCFC3FF0090020003918BFA9
:101A1000012100EB4000034B03EB001080F82E1077
:101A2000704700BFF009002000EB4000024B03EBC1
:101A3000001090F82E007047F009002038B50546D8
:101A4000002401E00134E4B2012C12D804EB440379
:101A5000084A02EB03139B8DAB42F3D104EB440322
:101A600002EB0313012283F82E202046FFF724FD0A
:101A7000E8E738BDF009002038B50B4B1B7803B1FF
:101A800038BD0125084B1D70084C0022A188206834
:101A900001F030F84FF4FA7000F094FD2A46A18866
:101AA000206801F027F8EBE7500A0020540A0020D4
:101AB00038B5134B1B7803B938BD0025104B1D708A
:101AC000104C2A46A188206801F014F8642000F028
:101AD00079FD0122A188206801F00CF8642000F053
:101AE00071FD2A46A188206801F004F8642000F006
:101AF00069FD0122A188206800F0FCFFDCE700BF3F
:101B0000500A0020540A002008B5054B1860054B08
:101B10001868002302221946806802F0DDFB08BD28
:101B2000600A00201C0000200FB470B5C2B046ADA2
:101B300055F8046B00240294FB22214603A802F00E
:101B400079FB01952A46314602A802F09DFC224607
:101B500002AB9B5C1BB10132D2B2FF2AF8D1FF234A
:101B600002A90448006802F0CBF842B0BDE870401A
:101B700004B07047600A002010B50446042000F04D
:101B8000C5FD014B1C7010BD5C0A002010B44FF065
:101B9000E0235C690C4A92F800C000FB0CFC9B69D6
:101BA000002104E0E01A02441144614509D21A46BA
:101BB0004FF0E0239B699A42FAD0F3D9D21A11442C
:101BC000F3E710BC704700BF5C0A00202DE9F04F1E
:101BD0008BB000240594069407940894099400940B
:101BE0005C4B1A6B42F004021A631A6B02F0040297
:101BF0000092009A01941A6B42F080021A631A6BE9
:101C000002F080020192019A02941A6B42F00102E2
:101C10001A631A6B02F001020292029A03941A6B81
:101C200042F002021A631A6B02F002020392039A54
:101C300004941A6B42F010021A631B6B03F010033A
:101C40000493049B444E22464FF48351304600F0E7
:101C500051FFDFF8089122463021484600F04AFF44
:101C60003F4F22464FF40A41384600F043FF4FF001
:101C7000200ACDF814A00125069507954FF002081B
:101C8000CDF8208005A9304600F0BCFD4023059327
:101C9000069507954FF0030BCDF820B005A9304607
:101CA00000F0B0FD802305934FF488130693079549
:101CB00005A9304600F0A6FD10230593069507946C
:101CC000CDF820B005A9484600F09CFDCDF814A041
:101CD00006950795CDF8208005A9484600F092FDAD
:101CE00005954FF488130693079505A91D4800F044
:101CF00089FD4FF40A43059306950794CDF820809B
:101D000005A9384600F07EFD4FF400530593069474
:101D1000079405A9384600F075FD4FF480530593EC
:101D200006950794089405A9304600F06BFD2246FD
:101D30002146062000F078FC062000F0BBFC22467D
:101D40002146172000F070FC172000F0B3FC0BB008
:101D5000BDE8F08F00380240000002400008024059
:101D6000001002400004024008B5FFF767FE08BDFE
:101D700072B6FEE700B595B03022002108A802F047
:101D800059FA002303930493059306930793019351
:101D9000204A116C41F080511164126C02F08052A3
:101DA0000192019A02931C4B1A6842F480421A6015
:101DB0001B6803F480430293029B012308934FF4B2
:101DC0008033099302220E924FF480030F93042371
:101DD0001093A82111911292139308A800F0B4FE59
:101DE00098B90F23039302230493002305934FF420
:101DF000A05306934FF480530793052103A801F0E5
:101E00008BF920B915B05DF804FBFFF7B1FFFFF7C0
:101E1000AFFF00BF003802400070004000B58BB03B
:101E200000F0A4FBFFF7A6FFFFF7D0FE00F010FACA
:101E300000F004F900F02AF900F0CEF900F0EEF914
:101E4000A820FFF799FE1D48FFF75EFE01230893C7
:101E50005022079206931A4B059320230493194BA3
:101E6000039340220292019302230093CB2316494D
:101E70000020FFF771FD00210846FFF757FD10E035
:101E80001248FFF751FE00210846FFF7BFFD104A38
:101E90001378B3FA83F35B0913704FF4FA6000F020
:101EA00091FBC8220A4B19780020FFF7F3FB0020B2
:101EB000FFF7BAFD0028E3D1E9E700BFA40C00203A
:101EC00000040240000002401C0C002020A3000877
:101ED000640A00207047000082B0002100910B4B83
:101EE0005A6C42F480425A645A6C02F48042009266
:101EF000009A01911A6C42F080521A641B6C03F034
:101F000080530193019B02B0704700BF003802402C
:101F1000FEE7FEE7FEE7FEE7FEE770477047704723
:101F200008B500F03DFB08BD08B5012000F0FEFD3E
:101F300008BD08B5802000F0F9FD08BD08B50248CD
:101F400001F0D4FF08BD00BF1C0C002008B50248FA
:101F500001F0CCFF08BD00BF600C002008B50248AE
:101F600001F096FA08BD00BF700A002008B50248CB
:101F700001F08EFA08BD00BFB80A002001207047AA
:101F800008B502F02DF9162303604FF0FF3008BDAD
:101F900008B54FF0FF31FFF7F3FFFEE770B50C46D1
:101FA0001646002506E0AFF30080214601F8010B3C
:101FB00001350C46B542F6DB304670BD70B50C46B7
:101FC0001646002504E014F8010BAFF3008001353C
:101FD000B542F8DB304670BD4FF0FF3070474FF42C
:101FE00000534B600020704701207047002070476D
:101FF00010B503460C4A0D490D48006840B10C4825
:1020000000680344521A934206D8094A136010BD6F
:102010000748084C0460F2E702F0E2F80C23036082
:102020004FF0FF30F3E700BF000002200004000083
:10203000680A0020400D00207047000000B583B002
:102040000023009301930F480F4A026042F2CF022F
:102050004260836042F20F72C260836101F03AFB1A
:1020600050B90023009301936946064801F0CAFB6A
:1020700028B903B05DF804FBFFF77AFEF1E7FFF73C
:1020800077FEF6E7700A00200010004000B583B02C
:102090000023009301930F480F4A026042F2CF02DF
:1020A0004260836042F20F72C260836101F012FBF2
:1020B00050B90023009301936946064801F0A2FB42
:1020C00028B903B05DF804FBFFF752FEF1E7FFF714
:1020D0004FFEF6E7B80A00200014004000B583B0B8
:1020E0000368184A934205D0174A934216D003B0AA
:1020F0005DF804FB00210091144B1A6C42F01002B1
:102100001A641B6C03F010030093009B0A463620F0
:1021100000F08AFA362000F0CDFAE8E700210191BC
:102120000A4B1A6C42F020021A641B6C03F0200365
:102130000193019B0A46372000F076FA372000F021
:10214000B9FAD4E700100040001400400038024003
:10215000194B984203D0194B984229D0704710B5BB
:10216000174B1B781BB9174B1B7883B910BD164C46
:10217000237801332370FFF77FFC2278134B1B7801
:102180009A42F3D900230E4A13702370EEE7104CE5
:10219000237801332370FFF78BFC2278094B1B78DF
:1021A0009A42E3D9064B01221A7000222270DDE721
:1021B000084B01221A707047700A0020B80A0020EC
:1021C000010B0020E90C0020000B0020E80C00208F
:1021D0006C0A0020020B002008B50D480D4B03606F
:1021E0004FF4E133436000238360C36003610C223A
:1021F00042618361C36101F0EFFC28B90122064905
:10220000034801F0D0FF08BDFFF7B2FDF6E700BFBD
:102210001C0C002000440040EC0C002008B50A48CB
:102220000A4B03604FF4E133436000238360C360D3
:1022300003610C2242618361C36101F0CDFC00B9EE
:1022400008BDFFF795FDFBE7600C0020004800404B
:1022500008B50A480A4B03604FF4E133436000239A
:102260008360C36003610C2242618361C36101F03A
:10227000B3FC00B908BDFFF77BFDFBE7A40C002011
:102280000014014010B58CB0002307930893099304
:102290000A930B930368424A934207D0414A934200
:1022A0002FD0414A934258D00CB010BD0024019465
:1022B0003E4B1A6C42F400321A641A6C02F400327B
:1022C0000192019A02941A6B42F001021A631B6B8D
:1022D00003F001030293029B0C230793022308934C
:1022E00003230A9307230B9307A9314800F08AFAC6
:1022F00022462146262000F097F9262000F0DAF940
:10230000D2E700240394294B1A6C42F480221A6409
:102310001A6C02F480220392039A04941A6B42F01E
:1023200002021A631B6B03F002030493049B4FF435
:10233000406307930223089303230A9307230B9315
:1023400007A91C4800F05EFA22462146272000F02B
:102350006BF9272000F0AEF9A6E700210591134B99
:102360005A6C42F020025A645A6C02F02002059224
:10237000059A06911A6B42F004021A631B6B03F074
:1023800004030693069BC0230793022308930323A9
:102390000A9308230B9307A9074800F033FA83E751
:1023A0000044004000480040001401400038024052
:1023B00000000240000402400008024008B5036823
:1023C000344A934203D0344A93424ED008BD334B33
:1023D0001A78FF2A11D0531CDBB230490B703049F8
:1023E0003048007888545A1E8A5CFF2A14D0012293
:1023F0002C492D4801F0D7FEE8E7002119704FF471
:102400008072274801F016FF4FF6FF730A22274912
:10241000254801F075FCEAE79A1E8A5CFF2AE6D19E
:10242000033BCB5CFF2BE2D10B78552B08D000216E
:102430001A4B19704FF48072194801F0FBFED6E771
:102440004B78652B08D0164BDB78662BEFD1144BFD
:102450001A79174B1A70EAE78B78164A1370002B1B
:10246000F1D0154800F08CFFEDE714490A78531CB1
:10247000DBB20B701249087812498854132B02D929
:102480000E4B00221A7001220D490F4801F08BFEFD
:102490009CE700BF0014014000440040190C0020DC
:1024A000040B00201A0C0020A40C002040A30008FC
:1024B000E90C0020E80C0020700A0020180C002015
:1024C000EC0C0020040C00201C0C0020DFF834D0A1
:1024D0000D480E490E4A002302E0D458C45004337C
:1024E000C4188C42F9D30B4A0B4C002301E0136053
:1024F0000432A242FBD3FFF79FFD01F077FEFFF706
:102500008DFC70470000022000000020C809002058
:10251000BCA90008C80900203C0D0020FEE700000F
:1025200010B504460E4B18784FF47A73B3FBF0F3F2
:102530000C4A1068B0FBF3F000F0D4F868B90F2C27
:1025400001D901200AE0002221464FF0FF3000F0BF
:102550006BF8054B1C60002000E0012010BD00BF9F
:1025600014000020100000201800002008B50B4BBC
:102570001A6842F400721A601A6842F480621A60A3
:102580001A6842F480721A60032000F02FF80F20BE
:10259000FFF7C6FFFFF7A0FC002008BD003C02408B
:1025A000034A1168034B1B780B441360704700BF4C
:1025B000F00C002014000020014B1868704700BF89
:1025C000F00C002038B50446FFF7F6FF0546B4F1DD
:1025D000FF3F02D0044B1B781C44FFF7EDFF401B6C
:1025E000A042FAD338BD00BF1400002010B5044645
:1025F000C31E042B0FD80A4AD36823F4E0631B04DC
:102600001B0C240204F4E064234343F0BF6343F44F
:102610000033D36010BD90210248FFF75BFCEAE76E
:1026200000ED00E04CA3000870B505460C461646C8
:102630000F2A25D80F2C28D81B4BDB68C3F30223A5
:10264000C3F10701042928BF04211A1D062A21D934
:10265000033B4FF0FF3202FA01F124EA01049C40EF
:1026600002FA03F326EA03063443002D14DB2401A7
:10267000E4B205F1604505F5614585F8004370BD9C
:10268000A8210A48FFF726FCD4E7A9210748FFF74D
:1026900021FCD1E70023DCE705F00F052401E4B2BB
:1026A000034B5C55EBE700BF00ED00E04CA30008D6
:1026B00014ED00E010B5041E0ADB002C07DB04F06B
:1026C0001F02640901239340044A42F8243010BDDC
:1026D000BC210348FFF7FEFBEFE700BF00E100E08D
:1026E0004CA300080138B0F1807F0BD24FF0E023FB
:1026F0005861054AF02182F82310002098610722D2
:102700001A6170470120704700ED00E010B50446E3
:10271000042800D040B9042C0CD04FF0E0221369FB
:1027200023F00403136110BD40F2C7110548FFF701
:10273000D1FBF0E74FF0E022136943F0040313618B
:10274000F1E700BF4CA3000870B50446866DFFF7A3
:1027500033FF94F83530DBB2022B06D0802363655B
:10276000002384F83430012070BD054622681368C8
:1027700023F0160313602268536923F0800353612A
:10278000236CE3B12268136823F008031360226806
:10279000136823F00103136023681B6813F0010F13
:1027A00011D0FFF709FF431B052BF5D920236365E3
:1027B000032084F83500002384F83430D4E7A36C78
:1027C000002BDFD1E3E7E26D3F239340B3600123A9
:1027D00084F83530002084F83400C5E790F83530AF
:1027E000DBB2022B03D08023436501207047052311
:1027F00080F835300268136823F00103136000206D
:10280000704700002DE9F04182B007460E46564B56
:10281000984223D003F5806398421FD003F580636C
:1028200098421BD003F58063984217D003F580636C
:10283000984213D003F5806398420FD003F580636C
:1028400098420BD003F58063984207D003F580636C
:10285000984203D0AC214548FFF73CFB33689AB25D
:1028600012B11B0C1B041BB1AD214048FFF732FB1A
:102870007368012B19D9112B17D0022B15D0122BED
:1028800013D0B3F5881F10D0B3F5041F0DD0B3F5E6
:10289000441F0AD0B3F5901F07D0B3F5081F04D02A
:1028A000B3F5481F01D0032B01D1002496E0AE21DF
:1028B0002E48FFF70FFBF8E7F368032B13D8BA682D
:1028C000610003238B4022EA0302F3688B40134329
:1028D000BB607A6822EA05027368C3F30015A5405D
:1028E00015437D608BE0C0212048FFF7F3FAE6E74F
:1028F000D1211E48FFF7EEFA8AE03369DBB1092BDC
:1029000019D0012B17D0022B15D0032B13D0042B79
:1029100011D0052B0FD0062B0DD0072B0BD0082B79
:1029200009D00A2B07D00B2B05D00C2B03D00D2B75
:1029300001D00F2B10D1E208083257F8220004F022
:10294000070399000F238B4020EA030033698B4073
:10295000034347F822306BE0DE210448FFF7BAFA60
:10296000E9E7072305E000BF00000240B4A3000828
:1029700000238B40034302325A4941F822305A4B1C
:102980009A686FEA080322EA0801706810F4801F51
:1029900001D048EA0201544A9160D26803EA020178
:1029A000706810F4001F01D048EA02014E4AD1605D
:1029B000526803EA0201706810F4003F01D048EA4F
:1029C0000201494A516012681340716811F4803F56
:1029D00001D048EA0203444A136001340F2C7ED828
:1029E0000125A540336803EA050835EA0303F4D15D
:1029F000736803F00303013B012B7FF65DAF73683F
:102A000003F00303032B0DD0B368022B3FF670AF26
:102A1000FA68610003238B4022EA0302B3688B400B
:102A20001343FB60736803F00303022B3FF465AFAD
:102A30003A68610003238B4022EA0302736803F0C3
:102A400003038B4013433B60736813F4403FC4D0CF
:102A500000230193254B5A6C42F480425A645B6C0C
:102A600003F480430193019BA208911C1D4B53F872
:102A7000210004F0030399000F238B4020EA030098
:102A80001B4B9F423FF474AF03F580639F421AD003
:102A900003F580639F4218D003F580639F4216D0F0
:102AA00003F580639F4214D003F580639F4212D0E8
:102AB00003F580639F4210D003F580639F423FF48B
:102AC00050AF082355E7012353E7022351E70323BF
:102AD0004FE704234DE705234BE7062349E702B000
:102AE000BDE8F08100380140003C01400038024060
:102AF0000000024070B5054614460E4621B1012C77
:102B000008D86CB1AE6170BD40F29D110648FFF768
:102B1000E1F9F4E74FF4CF710348FFF7DBF9F0E791
:102B20003604AE61EFE700BFB4A3000808B5054B5B
:102B30005B69034200D108BD024B5861FFF714F9ED
:102B4000F9E700BF003C0140002800F05D8270B54D
:102B500082B0044603680F2B39D8236813F0010FA5
:102B60004DD063682BB1B3F5803F02D0B3F5A02FF1
:102B700032D1804B9B6803F00C03042B36D07D4B85
:102B80009B6803F00C03082B2BD06368B3F5803FE0
:102B90005FD0B3F5A02F62D0764B1A6822F4803252
:102BA0001A601A6822F480221A606368002B60D0D1
:102BB000FFF702FD05466F4B1B6813F4003F1ED163
:102BC000FFF7FAFC401B6428F5D9032023E2E62135
:102BD0006948FFF77FF9C0E7EB216748FFF77AF90B
:102BE000C7E7644B5B6813F4800FCED0614B1B6862
:102BF00013F4003F03D06368002B00F007822368C2
:102C000013F0020F66D0E368012B41D823691F2B14
:102C100044D8584B9B6813F00C0F4AD0554B9B6817
:102C200003F00C03082B3FD0E368002B77D0534B05
:102C300001221A60FFF7C0FC05464E4B1B6813F0DB
:102C4000020F63D1FFF7B8FC401B0228F5D903201F
:102C5000E1E1484A136843F480331360A5E7454B2C
:102C60001A6842F480221A601A6842F480321A60AC
:102C70009BE7FFF7A1FC05463E4B1B6813F4003FA2
:102C8000BDD0FFF799FC401B6428F5D90320C2E1B1
:102C900040F21D113848FFF71DF9B7E74FF48F7167
:102CA0003548FFF717F9B4E7324B5B6813F4800F30
:102CB000BAD1304B1B6813F0020F03D0E368012B2D
:102CC00040F0A6812B4A136823F0F803216943EAF8
:102CD000C1031360236813F0080F51D06369012BFF
:102CE0002FD863699BB3254B0122C3F8802EFFF7D1
:102CF00063FC05461F4B5B6F13F0020F40D1FFF7DB
:102D00005BFC401B0228F5D9032084E1194A1368B3
:102D100023F0F803216943EAC1031360DAE7174B94
:102D200000221A60FFF748FC0546124B1B6813F09F
:102D3000020FCFD0FFF740FC401B0228F5D903203B
:102D400069E14FF4AF710C48FFF7C4F8C9E70B4BCA
:102D50000022C3F8802EFFF72FFC0546054B5B6F62
:102D600013F0020F0CD0FFF727FC401B0228F5D907
:102D7000032050E10038024018A400080000474238
:102D8000236813F0040F7CD0A368012B01D9052B15
:102D900038D1A44B1B6C13F0805F39D10023019311
:102DA000A04B1A6C42F080521A641B6C03F08053E3
:102DB0000193019B01259C4B1B6813F4807F29D054
:102DC000A368012B3AD0052B3ED0964B1A6F22F008
:102DD00001021A671A6F22F004021A67A368002B17
:102DE0003CD0FFF7E9FB06468E4B1B6F13F0020F3A
:102DF00045D1FFF7E1FB801B41F288339842F3D9BC
:102E0000032008E14FF4C5718848FFF763F8C0E775
:102E10000025D0E7844A136843F480731360FFF7FA
:102E2000CBFB0646804B1B6813F4807FC8D1FFF7AD
:102E3000C3FB801B0228F5D90320ECE0794A136F0D
:102E400043F001031367C9E7764B1A6F42F004029F
:102E50001A671A6F42F001021A67BFE7FFF7ACFB6F
:102E60000646704B1B6F13F0020F08D0FFF7A4FB50
:102E7000801B41F288339842F3D90320CBE0002D28
:102E80003BD1A369022B3ED8A369002B00F0C2807E
:102E9000644A926802F00C02082A00F09080022B2B
:102EA00079D1E36913B1B3F5800F32D1236A3F2B97
:102EB00035D8636A323BB3F5BF7F36D8A36A022B9D
:102EC00005D0042B03D0062B01D0082B33D1E36AA5
:102ED000023B0D2B35D8564B00221A66FFF76CFBD0
:102EE0000546504B1B6813F0007F30D0FFF764FBA2
:102EF000401B0228F5D903208DE04A4A136C23F0C9
:102F000080531364BDE740F2CD114848FEF7E2FF5D
:102F1000BAE74FF4EB714548FEF7DCFFC6E740F235
:102F2000D7114248FEF7D6FFC3E74FF4EC713F4894
:102F3000FEF7D0FFC2E740F2D9113C48FEF7CAFFC6
:102F4000C5E74FF4ED713948FEF7C4FFC3E7E36905
:102F5000226A1343626A43EA8213A26A5208013A60
:102F600043EA0243E26A43EA02632E4A5360304B6B
:102F700001221A66FFF720FB04462A4B1B6813F058
:102F8000007F06D1FFF718FB001B0228F5D90320AC
:102F900041E000203FE0264B00221A66FFF70CFBC1
:102FA0000446204B1B6813F0007F06D0FFF704FB9C
:102FB000001B0228F5D903202DE000202BE0012B77
:102FC0002BD0184B5B6803F48001E269914226D153
:102FD00003F03F02216A8A422CD1616A47F6C0722F
:102FE0001A40B2EB811F27D103F44031A26A520884
:102FF000013AB1EB024F21D103F07063E26AB3EB07
:10300000026F1DD1002006E001207047012002E080
:10301000012000E0002002B070BD0120FBE701208C
:10302000F9E700BF003802400070004018A4000813
:10303000000047420120EEE70120ECE70120EAE72B
:103040000120E8E708B5314B9B6803F00C03042B23
:1030500057D0082B57D12D4B5A6802F03F025B68BE
:1030600013F4800F2AD0294B5968C1F3881C4FEA0A
:103070004C11B1EB0C006EEB0E0E4FEA8E1343EACF
:1030800090638101091A63EB0E03DB0043EA51737D
:10309000C90011EB0C0C43F10003590200234FEA65
:1030A0004C2041EADC51FDF7F7FD184B5B68C3F398
:1030B000014301335B00B0FBF3F025E0134B59688B
:1030C000C1F3881C4FEA4C11B1EB0C006EEB0E0EF5
:1030D0004FEA8E1343EA90638101091A63EB0E03F2
:1030E000DB0043EA5173C90011EB0C0C43F1000300
:1030F000990200234FEA8C2041EA9C51FDF7CCFD58
:10310000D3E7034800E0034808BD00BF0038024091
:1031100000127A000024F400002800F0F78070B557
:103120000D4604460368013B0E2B6BD8072D6FD864
:103130007A4B1B6803F00703AB4208D2EBB2774A25
:103140001370136803F00703AB4240F0E18023687B
:1031500013F0020F29D013F0040F04D0704A9368C3
:1031600043F4E0539360236813F0080F04D06C4AD3
:10317000936843F460439360A3687BB1802B0DD0C8
:10318000902B0BD0A02B09D0B02B07D0C02B05D093
:10319000D02B03D0E02B01D0F02B3FD1604A9368B5
:1031A00023F0F003A1680B439360236813F0010F31
:1031B0004ED06368032B37D86368012B3AD09A1E30
:1031C000012A3ED9564A126812F0020F00F0A2807E
:1031D00053498A6822F0030213438B60FFF7ECF92E
:1031E00006464F4B9B6803F00C036268B3EB820FFB
:1031F0002ED0FFF7E1F9801B41F288339842F0D9D5
:10320000032076E040F25A214648FEF763FE8DE740
:1032100040F25B214348FEF75DFE89E740F27E21E4
:103220004048FEF757FEB9E740F285213D48FEF7DA
:1032300051FEC1E73A4A126812F4003FC8D101209A
:1032400057E0374A126812F0007FC1D1012050E0E8
:10325000324B1B6803F00703AB4207D9EAB22F4B8E
:103260001A701B6803F00703AB4255D1236813F0B3
:10327000040F14D0E3685BB1B3F5805F08D0B3F5F9
:10328000A05F05D0B3F5C05F02D0B3F5E05F31D1E8
:10329000234A936823F4E053E1680B439360236867
:1032A00013F0080F15D023695BB1B3F5805F08D028
:1032B000B3F5A05F05D0B3F5C05F02D0B3F5E05F12
:1032C0001ED1174A936823F46043216943EAC1037E
:1032D0009360FFF7B7FE124B9B68C3F30313124AC8
:1032E000D35CD840114B1860114B1868FFF718F9E0
:1032F000002070BD40F2C3210A48FEF7EBFDC7E78E
:1033000040F2CA210748FEF7E5FDDAE701207047E1
:103310000120EEE70120ECE70120EAE7003C024053
:103320000038024018A4000828A30008100000205C
:1033300018000020014B1868704700BF10000020E3
:1033400008B5FFF7F7FF044B9B68C3F38223034ADA
:10335000D35CD84008BD00BF0038024038A3000845
:1033600008B5FFF7E7FF044B9B68C3F34233034AFA
:10337000D35CD84008BD00BF0038024038A3000825
:1033800010B5044603683E4A934237D0B3F1804FEC
:1033900034D0A2F57C42934230D002F58062934251
:1033A0002CD002F58062934228D002F580629342CD
:1033B00024D002F58062934220D002F570429342FD
:1033C0001CD002F57052934218D002F580629342ED
:1033D00014D002F58062934210D0A2F59832934245
:1033E0000CD002F58062934208D002F580629342CD
:1033F00004D040F2CF112348FEF76CFD94F83D3025
:10340000DBB2012B37D1022384F83D302268D36828
:1034100043F00103D3602368194A934220D0B3F1EB
:10342000804F1DD0A2F57C42934219D002F58062F4
:10343000934215D002F58062934211D002F5784292
:1034400093420DD002F57052934209D0A2F5943206
:10345000934205D01A6842F001021A6000200BE086
:103460009A6802F00702062A07D01A6842F00102A1
:103470001A60002000E0012010BD0020FCE700BF22
:10348000000001407CA400087047704770477047F7
:1034900010B5044603681A6912F0020F11D0DA68F9
:1034A00012F0020F0DD06FF002021A6101230377B0
:1034B00003689B6913F0030F70D0FFF7E6FF00234A
:1034C000237723681A6912F0040F12D0DA6812F019
:1034D000040F0ED06FF004021A61022323772368D1
:1034E0009B6913F4407F5FD02046FFF7CEFF002397
:1034F000237723681A6912F0080F12D0DA6812F0E5
:10350000080F0ED06FF008021A6104232377236896
:10351000DB6913F0030F4ED02046FFF7B6FF002300
:10352000237723681A6912F0100F12D0DA6812F0AC
:10353000100F0ED06FF010021A6108232377236852
:10354000DB6913F4407F3DD02046FFF79EFF002348
:10355000237723681A6912F0010F03D0DA6812F09A
:10356000010F36D123681A6912F0800F03D0DA6890
:1035700012F0800F34D123681A6912F0400F03D083
:10358000DA6812F0400F32D123681A6912F0200F66
:1035900003D0DA6812F0200F30D110BDFFF774FFAE
:1035A0002046FFF773FF8AE72046FFF76DFF2046AE
:1035B000FFF76CFF9BE72046FFF766FF2046FFF70B
:1035C00065FFACE72046FFF75FFF2046FFF75EFF91
:1035D000BDE76FF001021A612046FEF7B9FDC1E7B1
:1035E0006FF080021A61204600F099F9C3E76FF08E
:1035F00040021A612046FFF74AFFC5E76FF020023C
:103600001A61204600F08AF9C7E700000368304AD3
:10361000904212D0B0F1804F0FD0A2F57C42904280
:103620000BD002F58062904207D002F58062904292
:1036300003D002F57842904203D123F070034A6828
:103640001343234A90422AD0B0F1804F27D0A2F5ED
:103650007C42904223D002F5806290421FD002F556
:10366000806290421BD002F57842904217D002F55A
:103670007052904213D002F5806290420FD002F552
:10368000806290420BD0A2F59832904207D002F5AA
:103690008062904203D002F58062904203D123F40D
:1036A0004073CA68134323F080034A6913430360DD
:1036B0008B68C3620B688362054B984203D003F5A5
:1036C0008063984201D10B69036301234361704712
:1036D00000000140002800F08E8010B50446036809
:1036E000464A934237D0B3F1804F34D0A2F57C42A2
:1036F000934230D002F5806293422CD002F5806272
:10370000934228D002F58062934224D002F5806271
:10371000934220D002F5704293421CD002F57052C1
:10372000934218D002F58062934214D002F5806271
:10373000934210D0A2F5983293420CD002F58062E9
:10374000934208D002F58062934204D040F21311F4
:103750002B48FEF7BFFBA3683BB1102B05D0202BF5
:1037600003D0402B01D0602B2DD123692BB1B3F5B1
:10377000807F02D0B3F5007F2BD1A3690BB1802BE2
:103780002DD194F83D3083B3022384F83D30214697
:1037900051F8040BFFF73AFF012384F8463084F810
:1037A0003E3084F83F3084F8403084F8413084F86B
:1037B000423084F8433084F8443084F8453084F84B
:1037C0003D30002010BD4FF48A710D48FEF782FB9A
:1037D000CBE740F215110A48FEF77CFBCDE74FF42A
:1037E0008B710748FEF776FBCBE784F83C30204628
:1037F000FEF774FCC8E70120704700BF00000140DD
:103800007CA4000838B504460D460368414A93423B
:103810001FD0B3F1804F1CD0A2F57C42934218D048
:1038200002F58062934214D002F58062934210D078
:1038300002F5806293420CD002F58062934208D078
:1038400002F57042934204D040F2B1713248FEF763
:1038500041FB2B686BB1102B0BD0202B09D0302BE8
:1038600007D0402B05D0502B03D0602B01D0702BFC
:1038700041D16B68802B01D0002B42D194F83C30B1
:10388000012B44D0012384F83C30022384F83D30DE
:1038900023685968986821F070012A680A435A60C1
:1038A00023681C4A93421AD0B3F1804F17D0A2F577
:1038B0007C42934213D002F5806293420FD002F50E
:1038C000806293420BD002F57842934207D002F512
:1038D0007052934203D0A2F59432934204D120F067
:1038E00080006A6810439860012384F83D3000200E
:1038F00084F83C0038BD40F2B2710748FEF7EAFA9E
:10390000B7E740F2B3710448FEF7E4FAB6E70220E5
:10391000F0E700BF00000140E0A4000870477047D6
:10392000026802F10C0353E8003F23F490730C3259
:1039300042E800310029F3D1026802F1140353E890
:10394000003F23F00103143242E800310029F3D193
:10395000036B012B05D0202380F83E300023036346
:103960007047026802F10C0353E8003F23F0100394
:103970000C3242E800310029F3D1ECE790F83D30F9
:10398000DBB2212B01D0022070478368B3F5805F42
:1039900017D0036A5A1C02621A7803685A60C38CF3
:1039A0009BB2013B9BB2C3844BB90268D36823F03E
:1039B0008003D3600268D36843F04003D3600020E3
:1039C00070470369002BE4D1036A1B880268C3F3C4
:1039D00008035360036A02330362E0E738B5044624
:1039E0004268574B9A423FD8E36813B1B3F5005F82
:1039F00040D123692BB1B3F5806F02D0B3F5C06F0E
:103A00003ED163694FF6F372134200D123B940F6F9
:103A100064614C48FEF75EFA2268136923F4405350
:103A2000E1680B431361A36822691343626913437E
:103A3000E2691A432168CB6823F4164323F00C0390
:103A40001343CB602268536923F44073A1690B438D
:103A5000536123683C4A934218D002F58062934236
:103A600014D0FFF76DFC13E040F661613548FEF7B6
:103A700031FAB9E740F662613248FEF72BFAB8E74F
:103A800040F663612F48FEF725FABAE7FFF768FCB6
:103A9000E369B3F5004F29D00021031849411B18F1
:103AA00041F10001C90041EA5371DB001818636855
:103AB0004FEA83024FEA937341F10001FDF7ECF8FE
:103AC000224DA5FB00325109642303FB11031B01A6
:103AD0003233A5FB03235B0903F0F00202EB011272
:103AE00003F00F03216813448B6038BD00230218D4
:103AF00043EB0301121841F10001C90041EA527180
:103B0000D200101841F10001626892185B41FDF784
:103B1000C3F80E4DA5FB00325109642303FB1103CA
:103B2000DB003233A5FB03235B095A0002F4F87271
:103B300002EB011203F00703216813448B60D4E702
:103B4000A037A00048A50008001001401F85EB51D8
:103B50002DE9F84305460F4616469946DDF82080C4
:103B60002C68246837EA04030CBF4FF0010C4FF0B7
:103B7000000CB4452DD1B8F1FF3FF1D0B8F1000FE2
:103B800005D0FEF719FDA0EB09004045E8D92A68E9
:103B900002F10C0353E8003F23F4D0730C3242E8E7
:103BA00000310029F3D12A6802F1140353E8003FE1
:103BB00023F00103143242E800310029F3D120231D
:103BC00085F83D3085F83E30002385F83C300320F1
:103BD00000E00020BDE8F883002800F08B8010B5DD
:103BE00004468369002B55D00368434A934210D0A2
:103BF000A2F54C4293420CD002F58062934208D069
:103C000002F54C42934204D040F273113B48FEF758
:103C100061F9A36943B1B3F5807F05D0B3F5007FA7
:103C200002D0B3F5407F2FD1A36813B1B3F5805F05
:103C30004ED1E36913B1B3F5004F4FD194F83D3045
:103C4000002B51D0242384F83D302268D36823F41C
:103C50000053D3602046FFF7C1FE2268136923F4A6
:103C6000904313612268536923F02A035361226849
:103C7000D36843F40053D36000202064202384F8E9
:103C80003D3084F83E3010BD4FF4BA711B48FEF74A
:103C900021F9C9E70368184A9342C5D0A2F54C42FE
:103CA0009342C1D002F580629342BDD002F580629A
:103CB0009342B9D002F580629342B5D002F54442F6
:103CC0009342B1D04FF4BC710C48FEF703F9ABE757
:103CD0004FF4BD710948FEF7FDF8AAE740F27B11E9
:103CE0000648FEF7F7F8A9E784F83C302046FEF7CF
:103CF000C9FAA7E7012070470010014048A5000855
:103D00002DE9F04182B01E4690F83D30DBB2202B09
:103D100054D104460D469046002953D0002A53D072
:103D200090F83C30012B51D0012380F83C30002327
:103D30000364212380F83D30FEF73EFC0746A4F8DB
:103D40002480A4F82680A368B3F5805F05D04FF0E7
:103D50000008002384F83C3012E0236913B14FF0CF
:103D60000008F6E7A8460025F3E738F8023B22688A
:103D7000C3F308035360E28C92B2013A92B2E28438
:103D8000E38C9BB273B100963B4600228021204613
:103D9000FFF7DEFEE0B9002DE7D015F8012B236810
:103DA0005A60E8E700963B46002240212046FFF794
:103DB000CFFE78B9202384F83D3000E0022002B025
:103DC000BDE8F0810120FAE70120F8E70220F6E7DC
:103DD0000320F4E70320F2E7704708B50168CA68DA
:103DE00022F04002CA60202280F83D20FFF7F4FF55
:103DF000002008BD704708B5806B0023C385C384CD
:103E0000FFF7F8FF08BD704790F83E30DBB2222B79
:103E100067D18368B3F5805F4DD0826AB3F5805F68
:103E200004D0002B54D10369002B51D103685B6887
:103E30001370836A01338362C38D9BB2013B9BB2D3
:103E4000C385002B4FD100B583B00268D36823F03F
:103E50002003D3600268D36823F48073D3600268C0
:103E6000536923F001035361202380F83E30036B34
:103E7000012B33D100230363026802F10C0353E8E2
:103E8000003F23F010030C3242E800310029F3D147
:103E900003681A6812F0100F06D0002201921A6807
:103EA00001925B680193019B818DFFF7ACFF0020BD
:103EB00003B05DF804FB0269002AAED1826A036890
:103EC0005B68C3F308031380836A02338362B3E73A
:103ED00003685B6803F07F031370AAE7FEF76EFACE
:103EE000E5E70220704700207047000030B583B03E
:103EF000044602681368D068516913F00F0505D1B4
:103F000013F0200F02D010F0200F19D12DB111F0B5
:103F1000010119D110F4907F16D1216B01297DD0B8
:103F200013F0800F03D010F0800F40F0158113F0D4
:103F3000400F03D010F0400F40F0128103B030BDAD
:103F40002046FFF761FFF9E713F0010F06D010F4E8
:103F5000807F03D0226C42F00102226413F0040F30
:103F600004D019B1226C42F00202226413F0020F55
:103F700004D019B1226C42F00402226413F0080F3D
:103F800007D010F0200F00D119B1226C42F00802C6
:103F90002264226C002AD1D013F0200F02D010F03E
:103FA000200F29D123685B6903F04003226C12F0D3
:103FB000080F00D163B32046FFF7B2FC23685B69AA
:103FC00013F0400F20D0226802F1140353E8003FA1
:103FD00023F04003143242E800310029F3D1A36BEF
:103FE00073B1614A1A65A06BFEF7F8FB0028A5D0F3
:103FF000A06B036D9847A1E72046FFF705FFD1E7C7
:104000002046FFF7F7FE99E72046FFF7F3FE95E716
:104010002046FFF7EFFE002323648FE713F0100F15
:104020003FF47EAF10F0100F3FF47AAF00230193FE
:104030001368019353680193019B536913F0400F78
:1040400050D0A26B13685B689BB2002B3FF476AF35
:10405000A18D99427FF672AFE385D369B3F5807F76
:1040600037D0226802F10C0353E8003F23F4807339
:104070000C3242E800310029F3D1226802F1140326
:1040800053E8003F23F00103143242E800310029D5
:10409000F3D1226802F1140353E8003F23F04003F8
:1040A000143242E800310029F3D1202384F83E3055
:1040B00000232363226802F10C0353E8003F23F03E
:1040C00010030C3242E800310029F3D1A06BFEF757
:1040D0003BFBA18DE38D9BB2C91A89B22046FFF745
:1040E00092FE2BE7A18DE38D9BB2C91A89B2E38DB5
:1040F0009BB2002B3FF422AF00293FF41FAF226890
:1041000002F10C0353E8003F23F490730C3242E8B1
:1041100000300028F3D1226802F1140353E8003F75
:1041200023F00103143242E800300028F3D12023A9
:1041300084F83E3000232363226802F10C0353E825
:10414000003F23F010030C3242E800300028F3D186
:104150002046FFF758FEF1E62046FFF70FFCEDE69C
:104160002046FFF73AFEE9E6F73D000881628285C6
:10417000C28500230364222280F83E2080F83C3070
:10418000036923B10268D36843F48073D360026883
:10419000536943F0010353610268D36843F020037D
:1041A000D3600020704708B590F83E30DBB2202B7A
:1041B0000DD171B17AB190F83C30012B0DD00123B3
:1041C00080F83C3000230363FFF7D0FF00E00220BB
:1041D00008BD0120FCE70120FAE70220F8E7000013
:1041E000014B1868704700BF1C00002070B50D4ED1
:1041F0000D4D761BB61006D0002455F8043B013453
:104200009847A642F9D1094E094D761B06F07CF875
:10421000B61006D0002455F8043B01349847A64256
:10422000F9D170BDB0A90008B0A90008B8A900086C
:10423000B0A90008830730B548D0541E002A3FD0EB
:10424000CAB2034601E0013C3AD303F8012B9D07B3
:10425000F9D1032C2DD9CDB245EA05250F2C45EA1D
:10426000054536D9A4F1100222F00F0C03F1200EFF
:10427000E6444FEA121C03F1100242E9045542E9F8
:10428000025510327245F8D10CF1010214F00C0FF6
:1042900003EB021204F00F0C13D0ACF1040323F073
:1042A00003030433134442F8045B9342FBD10CF044
:1042B00003042CB1CAB21C4403F8012B9C42FBD16D
:1042C00030BD64461346002CF4D1F9E7034614468A
:1042D000BFE71A46A446E0E72DE9F043694CD4F85D
:1042E000008083B004460E4617461D46B8F1000F05
:1042F00003D0D8F83830002B77D0022F05D0012F0B
:1043000000F2AC80002DC0F2A980636EDA0752D5AE
:104310002146404600F074F9216B41B104F140039D
:10432000994202D0404600F097FA00232363B4F983
:104330000CC000231CF0800FA361636064D12CF4D7
:104340004A6C2CF0030C022FA4F80CC06AD001AB0D
:104350006A462146404600F021FCA3891843A0810B
:10436000002D2FD0002E2ED0D8F83830002B38D08A
:10437000009B2660AB42B4F90C301CBF43F40063D1
:10438000A381012F04BF43F00103A3819AB213F06C
:104390000803C4E904652CD0D1075DD56D42A56141
:1043A000656E002315F00105A36027D0002528467F
:1043B00003B0BDE8F083A3899B05A9D4A06D00F0EC
:1043C00079FBA5E7009D284600F018FC064600286A
:1043D00047D0A38943F08003A381D8F83830002B5D
:1043E000C6D1404600F040F9C2E7404600F03CF933
:1043F00083E7A360656E15F00105D7D1930524D539
:10440000284603B0BDE8F0832169404600F024FA55
:10441000B4F90CC02CF44A6C2CF0030C022FA4F855
:104420000CC094D10025002204F14303A2600122B4
:10443000C4E904322360636E4CF0020CD807A4F880
:104440000CC0DDD41CF4007FDAD1A06D00F034FB89
:10445000284603B0BDE8F083A560CBE74FF0FF35F9
:10446000CEE7DDF80090A94504D0484600F0C6FB31
:10447000064620B9B4F90CC04FF0FF35D3E74D46DE
:10448000A7E700BF1C00002070B50B4E9AB0044691
:104490006FF00045CDE90445134600940A463068A4
:1044A000064C02956946039400F0C4FE009B00226E
:1044B0001A701AB070BD00BF1C0000200802FFFF78
:1044C000024B13B1024800F005B87047000000002D
:1044D0008D470008002301461A46184602F0DEBB4D
:1044E000B1F90C20F8B50C461107074642D46368B1
:1044F00042F40062002BA28159DDA56A002D54D040
:1045000000233E683B6093B212F4805253D1E169BC
:1045100001233846A847421C63D0A389A56A5B07DC
:1045200005D56368C01A236B0BB1E36BC01AE16950
:10453000024600233846A847411C3ED13B68002B69
:104540003BD01D2B01D0162B52D1A38922692260AA
:1045500023F4006300216160A381216B3E6021B3DD
:1045600004F14003994202D0384600F075F900206A
:104570002063F8BD2669C6B193B2256826609A0704
:104580000CBF63690023AD1BA3600CE0D4F824C00A
:10459000E1692B4632463846E047B0F1000CA5EB06
:1045A0000C05664416DD002DF0DC0020F8BDE36B41
:1045B000002BA2DCF9E7206DB1E7B4F90C302269D9
:1045C000226023F40063A3810022DB046260C4D56F
:1045D0002065C2E7A38943F040034FF0FF30A38179
:1045E000F8BD3B68002B98D01D2B06D0162B04D0AD
:1045F000A38943F04003A381F8BD3E60D5E700BF27
:1046000038B50C46054608B1836BA3B1B4F90C006C
:10461000B8B1636EDB0701D4810515D52846214664
:10462000FFF75EFF636EDA07054602D4A3899B0598
:104630000ED5284638BD00F017F8B4F90C00002854
:10464000E7D10546284638BDA06D00F033FAE5E70E
:10465000A06D00F031FA284638BD00BF014900F0D6
:1046600001BA00BF357D00082DE9F0478246394880
:1046700000F020FADAF83840002C66D1DAF804505D
:10468000354ACAF83C200323CAE9B843DFF8CC9086
:10469000DFF8CC80334F344E04230AF53B72CAF85E
:1046A000E8222146C5E90243C5E90044C5E90444BE
:1046B0006C660822AC6105F15C00FFF7BBFDC5E943
:1046C0000759C5E90987EE6205F1580000F0EEF9D7
:1046D000DAF80850254BEB602146C5E90044C5E9EE
:1046E00004446C66AC60AC61082205F15C00FFF725
:1046F000A1FDC5E90759C5E90987EE6205F1580032
:1047000000F0D4F9DAF80C50194BEB602146C5E9FA
:104710000044C5E904446C66AC60AC61082205F154
:104720005C00FFF787FD05F15800C5E90759C5E9A9
:104730000A76C5F8248000F0B9F90123CAF83830A8
:104740000448BDE8F04700F0B7B9BDE8F0470148BC
:1047500000F0B2B9000D00205D460008A951000824
:10476000CD5100080D5200082D520008090001002B
:1047700012000200014800F09DB900BFFC0C0020AF
:10478000014800F099B900BFFC0C002038B5084B77
:10479000084D5B1B9C1007D0043B1D44013C55F8A1
:1047A00004399847002CF9D1BDE8384005F0B2BD76
:1047B000BCA90008B8A90008F8B5244F0C46064665
:1047C00000F0D4FCBA685568C4F57E630F3325F059
:1047D00003052B4423F47F6323F00F03A3F58054D8
:1047E000B4F5805F07DB0021304600F0CBFCBB68EE
:1047F0002B44984204D0304600F0BEFC0020F8BDA7
:104800006142304600F0BEFC01300DD0104ABB685A
:104810002D1B45F001055D60136830461B1B1360BE
:1048200000F0AAFC0120F8BD0021304600F0AAFCEF
:10483000BA68831A0F2BDEDD43F001035360054B8A
:1048400003491B68C01A0860D5E700BF4C0400206C
:10485000040D002054080020002961D0F8B50C4652
:10486000064600F083FC54F8042C7B4FA4F10805A5
:1048700022F0010105EB010CB868DCF8043060455A
:1048800023F0030300F08B80D207CCF8043032D43D
:1048900054F8082CAD1A1144AA6807F108008242A6
:1048A0006AD00CEB0304D4F804E0EC68D4601EF08A
:1048B000010FA26000F0978041F001036B60CCF81B
:1048C0000010B1F5007F35D27A68CB084809012184
:1048D000013381401143796007EBC30257F833106D
:1048E000083AC5E9021247F83350CD603046BDE8BA
:1048F000F84000F041BC0CEB03025268D00710D422
:10490000194407F10800DCF80830834273D0DCF862
:104910000C20DA60936041F001036B606950D0E7CE
:10492000704741F00103B1F5007F44F8043CCCF836
:104930000010C9D3B1F5206F4FEA512348D28B093B
:1049400003F1390003F13802C300F818FB580838A6
:10495000984259D05A6822F003028A4202D99B68D1
:104960009842F7D1D868C5E902308560DD603046ED
:10497000BDE8F84000F000BC0CEB03025268D2071F
:1049800063D40B44DCE90212CA60916043F0010277
:104990006A603046EB50BDE8F84000F0EDBB0B44D8
:1049A000D10707D454F8082CAD1A1344D5E90212E4
:1049B000CA60916043F001026A60284ABD601268D3
:1049C0009A4293D8264B30461968FFF7F5FE8DE7DB
:1049D000142B0AD9542B1FD80B0B03F16F0003F1D2
:1049E0006E02C300B1E719448DE703F15C0003F1E7
:1049F0005B02C300A9E741F00103C7E90455C5E91B
:104A000002006B60695071E779689210012404FA22
:104A100002F20A437A60A6E7B3F5AA7F06D8CB0B69
:104A200003F1780003F17702C3008EE740F254529D
:104A3000934206D88B0C03F17D0003F17C02C30086
:104A400083E74FF47E737E227FE741F001036B60C2
:104A5000CCF800104AE700BF4C04002058080020A2
:104A6000340D00202DE9F8430746884600F53876D6
:104A70004FF00009D6E90154013D11D4A389012B5F
:104A800005F1FF3508D9B4F90E300133214603D0C2
:104A90003846C04749EA00096B1C04F16804EDD1AF
:104AA0003668002EE6D14846BDE8F883704700BF5F
:104AB000704700BF704700BF704700BF2DE9F0414D
:104AC0008B890C46990796B008D504F1430301225F
:104AD000C4E90432236016B0BDE8F081B4F90E10C9
:104AE0000029064627DB6A4603F08AF9002821DB05
:104AF000019D05F47045A5F50055B5FA85F54FF40F
:104B000080686D094FF400674146304600F07EF83A
:104B1000B4F90C30F0B1204AF26343F08003C4F8DA
:104B20001480A3812060206135BB3B43A38116B074
:104B3000BDE8F081A38913F0800519D04FF040083B
:104B40004146304600F062F80025B4F90C302F469B
:104B50000028E0D19A05BED423F0030304F14302F8
:104B600043F002030121C4E90421A3812260B2E7DA
:104B70004FF480682F46C7E7B4F90E10304603F0B3
:104B800055F910B9B4F90C30CFE7A38923F003032A
:104B900043F001031BB2C8E75D46000870B50C4640
:104BA000B1F90E10002996B015461E4614DB6A4670
:104BB00003F026F900280FDB019A02F47042A2F5F7
:104BC0000052B2FA82F24FF4806352094FF400604F
:104BD00032602B6016B070BDB4F90C10002311F0D8
:104BE0008000336004D0402218462A6016B070BDA1
:104BF0004FF480632B6016B070BD00BF024B0146BE
:104C0000186800F003B800BF1C0000202DE9F04F29
:104C100001F10B06162E83B0044624D8102900F2A9
:104C2000BA8000F0A3FA102618220220B54F3A44A9
:104C3000A2F1080153688B4200F0BA805A68D96823
:104C400022F003021A449D68E9608D60516841F0CA
:104C500001012046516003F1080500F08DFA284655
:104C600003B0BDE8F08F36F0070600F19480B14242
:104C700000F2918000F07AFAB6F5FC7FC0F09A81DC
:104C8000730A00F08F80042B00F26F81B30903F1E7
:104C9000390003F1380CC3009A4F3B44A3F10805D7
:104CA0005B689D4206D10CE0002980F22781DB6819
:104CB0009D4206D05A6822F00302911B0F29F3DDB2
:104CC00060463D69DFF840C265457CD06A6822F0E5
:104CD0000302931B0F2B00F37B81002BC7E904CC4D
:104CE00080F26C81B2F5007F80F01A81D308796878
:104CF00001334FEA521E012202FA0EF20A4357F81C
:104D000033E0C5F808E007EBC3010839E9607A60D1
:104D100047F83350CEF80C5083100121994091424E
:104D200057D8114206D120F003004900114200F18A
:104D30000400FAD007EBC0094D468646D5F80C8032
:104D4000454508D11DE1002B80F22481D8F80C8064
:104D5000454500F01681D8F8042022F00302931B89
:104D60000F2BF0DD2046D8E9025408EB060146F08F
:104D70000106C8F80460EC60A56043F00104C7E9CF
:104D80000411C1E902CC4C6048F8023000F0F4F99B
:104D900008F1080502E00C2323600025284603B033
:104DA000BDE8F08F4FF4007340204FF03F0C73E7E5
:104DB000D3689A4208BF02307FF440AF3D69DFF804
:104DC00048C1654582D17A6883100121994091429A
:104DD000A7D9BD686B6823F003094E4503D8A9EB3A
:104DE00006030F2B7ADCDFF824B1494BDBF80020F7
:104DF0001B680132334405EB090A00F0338103F5E7
:104E000080530F3323F47F6828F00F084146204673
:104E100000F0B8F9411C024600F0F380824500F230
:104E2000EE803C4B196841441960084600F04E8101
:104E3000DBF80010019301311BBFA2EB0A0A5044BA
:104E4000CBF80020186012F0070B00F01781CBF1AF
:104E500008010A44CBF5805190440831A1EB0801C8
:104E6000C1F30B0A51462046009200F08BF9421C18
:104E7000DDE9002300F04F81801A00EB0A08196871
:104E8000BA6048F001005144BD425060196000F022
:104E90002981B9F10F0F40F227816868A9F10C0C44
:104EA0002CF0070C00F0010040EA0C0068604FF0A5
:104EB000050E05EB0C00BCF10F0FC0E901EE00F28E
:104EC000328150681546144B1A688A4238BF1960FF
:104ED000124B1A688A4238BF196094E0AA1943F04D
:104EE000010346F001066E602046BA60536000F090
:104EF00043F90835284603B0BDE8F08FD9681A4455
:104F0000A1E600BF4C0400205404002054080020F7
:104F1000340D0020040D00202C0D0020300D002049
:104F2000B2F5206F4FEA522363D3142B00F2B780FF
:104F300003F15C01C9005B3307EB010E7958AEF158
:104F4000080E8E4500F091804B6823F003039342D6
:104F500002D989688E45F7D1D1F80CE07A68C5E9A5
:104F6000021ECEF80850CD60D6E6142B59D9542B2A
:104F700000F29D80330B03F16F0003F16E0CC30050
:104F80008AE60EF1010E1EF0030F05F108057FF40D
:104F9000D5AE51E0424445465368D8F80C1043F072
:104FA0000103536055F8083F2046D9608B6000F03C
:104FB000E3F8F3E6F00806F1080237E62A44204653
:104FC000536843F001035360083500F0D5F8E5E677
:104FD000A919204646F0010643F001046E60C7E9B6
:104FE0000411C1E902CC4C60AB5000F0C5F80835A3
:104FF000D4E6930903F13901C90038339CE7BD4277
:105000005FD0BD68686820F003084645A8EB06033A
:1050100002D80F2B3FF762AF204600F0ADF8002515
:10502000BCE603F15C0003F15B0CC30034E659F805
:1050300008394B4540F0968010F0030F00F1FF3027
:10504000F5D17B6823EA01037B60490099423FF672
:10505000C0AE19B9BDE649000EF1040E1942FAD0EE
:10506000704667E603F11008D0E69A104FF0010889
:105070007B6808FA02F21A437A6070E702EB0801D3
:105080004942C1F30B0A51462046009200F07AF8DB
:10509000431CDDE900237FF4EFAEDA46EFE6542B44
:1050A00025D8130B03F16F01C9006E3344E7B3F544
:1050B000AA7F25D8F30B03F1780003F1770CC30026
:1050C000EAE5294B186840441860B1E6CAF30B0CB6
:1050D000BCF1000F7FF4ACAEBD68C84448F00100DD
:1050E0006860F0E61546EEE60123536094E7B3F5F9
:1050F000AA7F23D8D30B03F17801C90077331BE7CC
:1051000040F25452934223D8B30C03F17D0003F1D3
:105110007C0CC300C0E5ABF1080BD844A8EB020837
:105120004FF0000AABE605F1080120460093FFF7B7
:1051300093FBBD68009B68681968C4E640F254514F
:105140008B420BD8930C03F17D01C9007C33F3E64D
:105150004FF47E737F204FF07E0C9DE54FF47E71FF
:105160007E23E9E67B6870E7040D00200148FFF725
:10517000A1BC00BFF80C00200148FFF79DBC00BF98
:10518000F80C002038B5074D0022044608462A6076
:10519000FCF72EFF431C00D038BD2B68002BFBD042
:1051A000236038BD380D002010B50C46B1F90E1043
:1051B00003F012FA002803DB236D0344236510BDBE
:1051C000A38923F48053A38110BD00BF2DE9F041D2
:1051D0000C46B1F90C101F46CB05054616460BD4FC
:1051E00021F48051A1813B46B4F90E103246284685
:1051F000BDE8F04101F03CBDB4F90E1002230022DD
:1052000002F02AFEB4F90C10EAE700BF10B50C4614
:10521000B1F90E1002F020FEA389421C0EBF23F448
:10522000805343F480532065A38110BDB1F90E1063
:1052300001F07ABD2DE9F04FD5B00C460C919146A6
:105240000E930A9002F004FE036817931846FBF7CA
:10525000D7FFA3891690190603D52369002B00F008
:105260008B8700242BAB4D46CDE92944CDE9194469
:10527000CDE91B441294289398461894002308946F
:105280000024CDE914342B78002B00F0DD81AA46F0
:1052900004E01AF8013F002B00F01681252BF8D10D
:1052A000BAEB050640F014819AF80030002B00F0AC
:1052B000CB8100234FF0FF329AF801608DF88330E4
:1052C00009930AF1010A07921F462B244FF0200987
:1052D0000AF1010AA6F120035A2B00F22D81DFE822
:1052E00013F0BA022B012B01B5022B012B012B016C
:1052F0006A002B012B014F02E3022B015A02C90263
:105300002B01C4025B005B005B005B005B005B0089
:105310005B005B005B002B012B012B012B012B01A0
:105320002B012B01BF012B011A028600BF01BF0117
:10533000BF012B012B012B012B01B0022B012B01F3
:10534000C3002B012B012B0124022B015F022B0137
:105350002B013C072B012B012B012B012B012B01D6
:105360002B012B01BF012B011A028800BF01BF01D5
:10537000BF01A302880081002B0196022B0182024B
:10538000C500700281002B0124027E0039072B0129
:105390002B0119072B017E00A6F1300300221AF819
:1053A000016B02EB820203EB4202A6F13003092BF0
:1053B000F5D909928EE7DDF828B0584602F048FD8D
:1053C00043681B931846FBF71BFF1C900646584684
:1053D00002F03EFD83681993002E40F07A869AF819
:1053E000006075E79AF8006047F0200770E747F023
:1053F0001007BA060E9B40F18081073323F00703A4
:105400001A465B6852F8084B0E929946002BC0F280
:105410005F85079B013301F01F8054EA090327F0E1
:10542000800B00F0E3840A2C79F1000380F081877F
:10543000303401238DF84F415F460B930DF24F1529
:1054400007990B989DF8832081424FF00003B8BF65
:1054500001460D9306910F9313931093002A7CD06D
:10546000069B0133069378E047F0100717F02009F8
:1054700000F034810E9B073323F00703D3F8049028
:1054800053F8084B0E9327F4806B002300228DF80D
:105490008320079A511C00F00D8254EA09012BF079
:1054A000800740F00682002A41F01080002B40F077
:1054B000A2841BF001030B9300F0378530238DF895
:1054C0004F310DF24F15BBE7BAEB050600F0BC807B
:1054D0002A9B33442A93299B0133072BC8E90056A2
:1054E000299305DC08F10808089B33440893DBE6A0
:1054F0000C990A9828AA03F0EFF880B90DF1AC08CE
:10550000F2E70C990A9828AA03F0E6F8002800F0C0
:105510008C800D9B1BB10D990A98FFF79DF90C9B90
:105520009B8913F0400F089B18BF4FF0FF3308937F
:10553000089855B0BDE8F08F002E00F0858000225D
:105540008DF8EC608DF88320012306930D920B9368
:1055500007920F92139210923BAD17F0020302D004
:1055600006990231069117F0840B07D10999069824
:10557000A1EB0009B9F1000F00F315832A9C8AB151
:10558000299A0DF1830101320134C8F80010072A6D
:105590004FF001012A942992C8F8041000F34683C1
:1055A00008F1080883B1299B21AA01330234C8F805
:1055B0000020072B4FF002022A942993C8F80420F8
:1055C00000F3488308F10808BBF1800F00F00E8259
:1055D000079B0B9AA3EB020BBBF1000F00F34F826A
:1055E000FB0500F1A5810B9BC8F804301C44299BE6
:1055F000C8F800500133072B2A94299300F3C7827F
:1056000008F108087B0705D5099B069A9D1A002D0D
:1056100000F32C83DDE9083206998A42ACBF9B185F
:105620005B180893002C7FF46CAF002329930D9B2B
:105630001BB10D990A98FFF70FF90DF1AC0855460B
:105640002B78002B7FF423AE2A9B002B3FF467AF0F
:105650000C9C0A9828AA214603F03EF8A38960E72B
:105660000E9B073323F00702F2E80234CDE914342D
:10567000DDE9143424F000440E9299461846214680
:10568000A74B4FF0FF32FBF7B1FE002840F06284D9
:10569000A34B484621464FF0FF32FBF789FE002816
:1056A00040F05884DDE9140100220023FBF776FE68
:1056B000002840F0AD879DF883209A4D9A4B27F043
:1056C00080070321472EC8BF1D4600230D93069176
:1056D0000B9107930F9313931093BFE617F01003EA
:1056E00040F02E8417F0400200F054870E9A52F8D2
:1056F000044B0E929946A4B2C5E653F8044B0E93A0
:10570000FB0600F118847D0640F1128444F3C03991
:105710004B4624B27AE60E9B002253F8041B8DF808
:1057200083208DF8EC100E930EE70E9C079B54F827
:10573000045B4FF000098DF88390002D00F0D586B2
:105740005A1C00F052851A4649462846FBF768FC69
:105750000D90002801F057800D9BCDF81C905B1B2D
:105760000B930E9423EAE3739DF883200693CDF800
:105770003490CDF83C90CDF84C90CDF840906DE64B
:105780000E9B53F8042B0992002A80F2C983099AD0
:105790000E93524209929AF8006047F0040797E589
:1057A00047F0100B1BF0200900F081830E9B07339C
:1057B00023F00703D3F8049053F8084B0E9301230A
:1057C00064E60E9B53F8044B0E93302378268DF835
:1057D0008430564B189347F0020B8DF885604FF0DC
:1057E0000009022352E6BD0600F18284FC0600F1A6
:1057F0007386780600F13C87B90540F16D860E9BF3
:10580000089953F8042B0E931170554618E79AF82F
:1058100000606C2E03BF9AF8016047F020070AF180
:10582000010A47F0100753E59AF80060682E03BF9D
:105830009AF8016047F400770AF1010A47F040073F
:1058400046E59AF8006047F0080741E59AF80060DD
:1058500047F001073CE59DF88330002B7FF4BFAD96
:105860009AF800608DF8839032E59AF8006047F06E
:1058700080072DE5524612F8016B2A2E01F0CD81EA
:10588000A6F13003092B924698BF002201F28880CE
:105890001AF8016B02EB820203EB4202A6F130031D
:1058A000092BF5D9079215E59AF800608DF8834029
:1058B0000EE5BB46012B3FF4B6AD022B54AD12D121
:1058C000189A04F00F032409D35C05F8013D44EA5B
:1058D00009744FEA191954EA0903F2D154AB5B1B5E
:1058E0005F460B93ACE504F00703E40844EA49740F
:1058F0004FEAD909303354EA09012A4605F8013D37
:10590000F1D11BF0010FE9D0302BE7D03023023A60
:1059100005F8013C54AB9B1A5F460B9315468FE587
:10592000FFFFEF7FB0A50008B4A50008C0A50008E0
:10593000652E40F3E680DDE9140100220023FBF729
:1059400023FD002800F0CD81299BBF4AC8F8002024
:10595000013301340122072B2A942993C8F804202B
:1059600000F37D8508F10808229B129A934280F289
:10597000D382169B179A1C44C8E90023299B2A94BA
:105980000133072B299300F3EB8308F10808129BDE
:105990005D1E002D7FF736AE102D299BDFF8AC92EF
:1059A00040F36E8549462246B946DDF828B00C9C86
:1059B00010260F4605E008F10808103D102D40F3B1
:1059C0005B8501331032072BC8E90076CDE9293217
:1059D000F1DD28AA2146584602F07EFE00287FF419
:1059E00098ADDDE929320DF1AC08E6E7099B069A8E
:1059F000A3EB020BBBF1000F7FF7EAADBBF1100F79
:105A0000299ADFF848922CDD1D9621464E460C9CC3
:105A1000DDF82890102306E0ABF1100BBBF1100F5E
:105A200008F108081ADD01321031072AC8E90063BD
:105A3000CDE92921F0DD28AA214648460DF1AC0820
:105A400002F04AFE00287FF464ADABF1100BBBF10D
:105A5000100FDDE929214FF01003E4DCB1461D9E53
:105A60000C4601325C44072ACDE92924C8F800908D
:105A7000C8F804B000F31D8508F10808A8E5BBF1DB
:105A8000100F299ADFF8C4912DDD41462046A84623
:105A90004C460C9DDDF82890102306E0ABF1100B6E
:105AA000BBF1100F01F1080119DD01321030072A96
:105AB000C1E90043CDE92920F0DD28AA294648465E
:105AC00002F00AFE00287FF424ADABF1100BBBF10D
:105AD000100FDDE929202BA94FF01003E5DC454626
:105AE000A1468846044601325C44072ACDE92924B0
:105AF000C8F80090C8F804B000F3CC8108F1080899
:105B00006EE5129B012B40F37C81299EC8F8005062
