:020000040800F2
:1000000000000220E124000891200008932000084D
:1000100095200008972000089920000800000000A3
:100020000000000000000000000000009B2000080D
:100030009D200008000000009F200008A12000086B
:100040003125000831250008312500083125000838
:100050003125000831250008312500083125000828
:100060003125000831250008312500083125000818
:100070003125000831250008312500083125000808
:1000800031250008312500083125000831250008F8
:10009000312500083125000831250008A920000875
:1000A00031250008312500083125000831250008D8
:1000B00031250008312500083125000831250008C8
:1000C00031250008312500083125000831250008B8
:1000D0003125000831250008B52000083125000829
:1000E0003125000831250008312500083125000898
:1000F0003125000831250008312500083125000888
:100100003125000831250008312500083125000877
:100110003125000831250008C5200008D520000839
:100120003125000831250008312500083125000857
:100130003125000831250008312500083125000847
:100140003125000831250008312500083125000837
:100150003125000831250008312500083125000827
:100160003125000831250008312500083125000817
:100170003125000831250008312500080000000065
:080180003125000831250008BB
:1001880010B5054C237833B9044B13B10448AFF3C9
:1001980000800123237010BD6004002000000000CF
:1001A800883D000808B5034B1BB103490348AFF36A
:1001B800008008BD0000000064040020883D00089D
:1001C80081F0004102E000BF83F0004330B54FEA00
:1001D80041044FEA430594EA050F08BF90EA020F6D
:1001E8001FBF54EA000C55EA020C7FEA645C7FEA00
:1001F800655C00F0E2804FEA5454D4EB5555B8BF23
:100208006D420CDD2C4480EA020281EA030382EA93
:10021800000083EA010180EA020281EA0303362D25
:1002280088BF30BD11F0004F4FEA01314FF4801CF8
:100238004CEA113102D0404261EB410113F0004F0A
:100248004FEA03334CEA133302D0524263EB4303C1
:1002580094EA050F00F0A780A4F10104D5F1200E5F
:100268000DDB02FA0EFC22FA05F2801841F10001BA
:1002780003FA0EF2801843FA05F359410EE0A5F18E
:1002880020050EF1200E012A03FA0EFC28BF4CF0BF
:10029800020C43FA05F3C01851EBE37101F0004575
:1002A80007D54FF0000EDCF1000C7EEB00006EEB82
:1002B8000101B1F5801F1BD3B1F5001F0CD349080C
:1002C8005FEA30004FEA3C0C04F101044FEA445263
:1002D80012F5800F80F09A80BCF1004F08BF5FEAEA
:1002E800500C50F1000041EB045141EA050130BDCA
:1002F8005FEA4C0C404141EB0101013C28BFB1F5DC
:10030800801FE9D291F0000F04BF01460020B1FA26
:1003180081F308BF2033A3F10B03B3F120020CDAF9
:100328000C3208DD02F1140CC2F10C0201FA0CF0D7
:1003380021FA02F10CE002F11402D8BFC2F1200C3C
:1003480001FA02F120FA0CFCDCBF41EA0C019040F2
:10035800E41AA2BF01EB0451294330BD6FEA04043B
:100368001F3C1CDA0C340EDC04F11404C4F1200226
:1003780020FA04F001FA02F340EA030021FA04F338
:1003880045EA030130BDC4F10C04C4F1200220FA8F
:1003980002F001FA04F340EA0300294630BD21FACD
:1003A80004F0294630BD94F0000F83F4801306BF93
:1003B80081F480110134013D4EE77FEA645C18BF87
:1003C8007FEA655C29D094EA050F08BF90EA020F1E
:1003D80005D054EA000C04BF1946104630BD91EA16
:1003E800030F1EBF0021002030BD5FEA545C05D119
:1003F8004000494128BF41F0004130BD14F5800458
:100408003CBF01F5801130BD01F0004545F0FE41CB
:1004180041F470014FF0000030BD7FEA645C1ABF00
:10042800194610467FEA655C1CBF0B46024650EA37
:10043800013406BF52EA033591EA030F41F4002163
:1004480030BD00BF90F0000F04BF0021704730B5E9
:100458004FF4806404F132044FF000054FF00001BE
:1004680050E700BF90F0000F04BF0021704730B57F
:100478004FF4806404F1320410F0004548BF404254
:100488004FF000013EE700BF42004FEAE2014FEAA9
:1004980031014FEA02701FBF12F07F4393F07F4F84
:1004A80081F06051704732F07F4208BF704793F087
:1004B8007F4F04BF41F40021704730B54FF460749A
:1004C80001F0004521F000411CE700BF50EA01029D
:1004D80008BF704730B54FF000050AE050EA010246
:1004E80008BF704730B511F0004502D5404261EBB6
:1004F80041014FF4806404F132045FEA915C3FF4F7
:10050800D8AE4FF003025FEADC0C18BF03325FEA93
:10051800DC0C18BF033202EBDC02C2F1200300FA44
:1005280003FC20FA02F001FA03FE40EA0E0021FA69
:1005380002F11444BDE600BF70B54FF0FF0C4CF457
:10054800E06C1CEA11541DBF1CEA135594EA0C0F09
:1005580095EA0C0F00F0DEF82C4481EA030621EA44
:100568004C5123EA4C5350EA013518BF52EA03357F
:1005780041F4801143F4801338D0A0FB02CE4FF031
:100588000005E1FB02E506F00042E0FB03E54FF061
:100598000006E1FB03569CF0000F18BF4EF0010E59
:1005A800A4F1FF04B6F5007F64F5407404D25FEA55
:1005B8004E0E6D4146EB060642EAC62141EA555108
:1005C8004FEAC52040EA5E504FEACE2EB4F1FD0C4A
:1005D80088BFBCF5E06F1ED8BEF1004F08BF5FEAC8
:1005E800500E50F1000041EB045170BD06F000467A
:1005F80046EA010140EA020081EA0301B4EB5C0427
:10060800C2BFD4EB0C0541EA045170BD41F480111E
:100618004FF0000E013C00F3AB8014F1360FDEBF43
:10062800002001F0004170BDC4F10004203C35DA1F
:100638000C341BDC04F11404C4F1200500FA05F3A2
:1006480020FA04F001FA05F240EA020001F0004243
:1006580021F0004110EBD37021FA04F642EB0601B9
:100668005EEA430E08BF20EAD37070BDC4F10C04E3
:10067800C4F1200500FA04F320FA05F001FA04F2A7
:1006880040EA020001F0004110EBD37041F1000193
:100698005EEA430E08BF20EAD37070BDC4F120059E
:1006A80000FA05F24EEA020E20FA04F301FA05F206
:1006B80043EA020321FA04F001F0004121FA04F2AE
:1006C80020EA020000EBD3705EEA430E08BF20EA7E
:1006D800D37070BD94F0000F0FD101F000464000B8
:1006E80041EB010111F4801F08BF013CF7D041EA3A
:1006F800060195F0000F18BF704703F0004652003E
:1007080043EB030313F4801F08BF013DF7D043EA0E
:100718000603704794EA0C0F0CEA135518BF95EAC4
:100728000C0F0CD050EA410618BF52EA4306D1D14B
:1007380081EA030101F000414FF0000070BD50EA6A
:10074800410606BF1046194652EA430619D094EAF4
:100758000C0F02D150EA013613D195EA0C0F05D1DE
:1007680052EA03361CBF104619460AD181EA030132
:1007780001F0004141F0FE4141F470014FF00000EA
:1007880070BD41F0FE4141F4780170BD70B54FF085
:10079800FF0C4CF4E06C1CEA11541DBF1CEA135505
:1007A80094EA0C0F95EA0C0F00F0A7F8A4EB0504E7
:1007B80081EA030E52EA03354FEA013100F08880DE
:1007C8004FEA03334FF0805545EA131343EA1263A7
:1007D8004FEA022245EA111545EA10654FEA00265C
:1007E8000EF000419D4208BF964244F1FD0404F515
:1007F800407402D25B084FEA3202B61A65EB030571
:100808005B084FEA32024FF480104FF4002CB6EB2D
:10081800020E75EB030E22BFB61A754640EA0C00AD
:100828005B084FEA3202B6EB020E75EB030E22BFED
:10083800B61A754640EA5C005B084FEA3202B6EB2E
:10084800020E75EB030E22BFB61A754640EA9C00ED
:100858005B084FEA3202B6EB020E75EB030E22BFBD
:10086800B61A754640EADC0055EA060E18D04FEA7B
:10087800051545EA16754FEA06164FEAC30343EA1B
:1008880052734FEAC2025FEA1C1CC0D111F4801FE8
:100898000BD141EA00014FF000004FF0004CB6E7E1
:1008A80011F4801F04BF01430020B4F1FD0C88BF80
:1008B800BCF5E06F3FF6AFAEB5EB030C04BFB6EB8B
:1008C800020C5FEA500C50F1000041EB045170BD7E
:1008D8000EF0004E4EEA113114EB5C04C2BFD4EBAB
:1008E8000C0541EA045170BD41F480114FF0000E2F
:1008F800013C90E645EA060E8DE60CEA135594EAAB
:100908000C0F08BF95EA0C0F3FF43BAF94EA0C0FAD
:100918000AD150EA01347FF434AF95EA0C0F7FF422
:1009280025AF104619462CE795EA0C0F06D152EA76
:1009380003353FF4FDAE1046194622E750EA41065A
:1009480018BF52EA43067FF4C5AE50EA41047FF46B
:100958000DAF52EA43057FF4EBAE12E74FEA4102CE
:10096800B2F1E04324BFB3F5001CDCF1FE5C0DD905
:1009780001F0004C4FEAC0024CEA5070B2F1004F4F
:1009880040EB830008BF20F00100704711F0804F52
:1009980021D113F13872BCBF01F00040704741F417
:1009A80080114FEA5252C2F11802C2F1200C10FA1B
:1009B8000CF320FA02F018BF40F001004FEAC123FF
:1009C8004FEAD32303FA0CFC40EA0C0023FA02F3A3
:1009D8004FEA4303CCE77FEA625307D150EA013379
:1009E8001EBF4FF0FE4040F44000704701F0004049
:1009F80040F0FE4040F40000704700BF80F0004027
:100A080002E000BF81F0004142001FBF5FEA4103DE
:100A180092EA030F7FEA226C7FEA236C6AD04FEADE
:100A28001262D2EB1363C1BFD21841404840414023
:100A3800B8BF5B42192B88BF704710F0004F40F4D5
:100A4800000020F07F4018BF404211F0004F41F4F1
:100A5800000121F07F4118BF494292EA030F3FD0BD
:100A6800A2F1010241FA03FC10EB0C00C3F12003D0
:100A780001FA03F100F0004302D5494260EB40005F
:100A8800B0F5000F13D3B0F1807F06D340084FEACA
:100A9800310102F10102FE2A51D2B1F1004F40EBBF
:100AA800C25008BF20F0010040EA03007047490027
:100AB80040EB0000013A28BFB0F5000FEDD2B0FAC4
:100AC80080FCACF1080CB2EB0C0200FA0CF0AABFE7
:100AD80000EBC25052421843BCBFD0401843704785
:100AE80092F0000F81F4000106BF80F4000001328B
:100AF800013BB5E74FEA41037FEA226C18BF7FEA62
:100B0800236C21D092EA030F04D092F0000F08BFA3
:100B18000846704790EA010F1CBF0020704712F08A
:100B28007F4F04D1400028BF40F00040704712F1C9
:100B380000723CBF00F50000704700F0004343F02E
:100B4800FE4040F4000070477FEA226216BF084664
:100B58007FEA23630146420206BF5FEA412390EA27
:100B6800010F40F4800070474FF0000304E000BF1D
:100B780010F0004348BF40425FEA000C08BF7047CE
:100B880043F0964301464FF000001CE050EA010292
:100B980008BF70474FF000030AE000BF50EA0102A7
:100BA80008BF704711F0004302D5404261EB410194
:100BB8005FEA010C02BF84460146002043F0B643B9
:100BC80008BFA3F18053A3F50003BCFA8CF2083ADE
:100BD800A3EBC25310DB01FA02FC634400FA02FCE7
:100BE800C2F12002BCF1004F20FA02F243EB0200EE
:100BF80008BF20F00100704702F1200201FA02FC50
:100C0800C2F1200250EA4C0021FA02F243EB020042
:100C180008BF20EADC7070474FF0FF0C1CEAD05286
:100C28001EBF1CEAD15392EA0C0F93EA0C0F6FD047
:100C38001A4480EA010C400218BF5FEA41211ED025
:100C48004FF0006343EA501043EA5111A0FB013111
:100C58000CF00040B1F5000F3EBF490041EAD371E6
:100C68005B0040EA010062F17F02FD2A1DD8B3F162
:100C7800004F40EBC25008BF20F00100704790F0D1
:100C8800000F0CF0004C08BF49024CEA502040EA23
:100C980051207F3AC2BFD2F1FF0340EAC2507047E9
:100CA80040F400004FF00003013A5DDC12F1190F27
:100CB800DCBF00F000407047C2F10002410021FA99
:100CC80002F1C2F1200200FA02FC5FEA310040F1B1
:100CD800000053EA4C0308BF20EADC70704792F02A
:100CE800000F00F0004C02BF400010F4000F013A62
:100CF800F9D040EA0C0093F0000F01F0004C02BF5D
:100D0800490011F4000F013BF9D041EA0C018FE7CB
:100D18000CEAD15392EA0C0F18BF93EA0C0F0AD0D1
:100D280030F0004C18BF31F0004CD8D180EA0100F7
:100D380000F00040704790F0000F17BF90F0004F90
:100D4800084691F0000F91F0004F14D092EA0C0F72
:100D580001D142020FD193EA0C0F03D14B0218BF05
:100D6800084608D180EA010000F0004040F0FE404B
:100D780040F40000704740F0FE4040F440007047E7
:100D88004FF0FF0C1CEAD0521EBF1CEAD15392EA66
:100D98000C0F93EA0C0F69D0A2EB030280EA010C56
:100DA80049024FEA402037D04FF0805343EA1111EF
:100DB80043EA10130CF000408B4238BF5B0042F14D
:100DC8007D024FF4000C8B4224BF5B1A40EA0C00F2
:100DD800B3EB510F24BFA3EB510340EA5C00B3EB24
:100DE800910F24BFA3EB910340EA9C00B3EBD10F12
:100DF80024BFA3EBD10340EADC001B0118BF5FEA64
:100E08001C1CE0D1FD2A3FF650AF8B4240EBC2508C
:100E180008BF20F0010070470CF0004C4CEA50204D
:100E28007F32C2BFD2F1FF0340EAC250704740F49C
:100E380000004FF00003013A37E792F0000F00F08E
:100E4800004C02BF400010F4000F013AF9D040EA0C
:100E58000C0093F0000F01F0004C02BF490011F4A0
:100E6800000F013BF9D041EA0C0195E70CEAD15398
:100E780092EA0C0F08D142027FF47DAF93EA0C0F7F
:100E88007FF470AF084676E793EA0C0F04D14B0263
:100E98003FF44CAF08466EE730F0004C18BF31F015
:100EA800004CCAD130F000427FF45CAF31F000430F
:100EB8007FF43CAF5FE700BF42000ED2B2F1FE4FB5
:100EC8000BD34FF09E03B3EB126209D44FEA002311
:100ED80043F0004323FA02F070474FF000007047D8
:100EE80012F1610F01D1420202D14FF0FF30704779
:100EF8004FF00000704700BF53B94AB9002908BF36
:100F080000281CBF4FF0FF314FF0FF3000F092B9BE
:100F1800ADF1080C6DE904CE00F024F8DDF804E02A
:100F2800DDE9022304B07047D0B50C4B0022064619
:100F38000F46FFF701FB00F07FF90446FFF782FA3E
:100F4800074B0022FFF7F8FA02460B4630463946AF
:100F5800FFF73AF900F070F92146D0BD0000F03DE6
:100F68000000F0412DE9F047089E0D4604468846EA
:100F7800002B4DD18A42944668D9B2FA82F252B116
:100F880001FA02F3C2F1200120FA01F10CFA02FC85
:100F980041EA030894404FEA1C45210CB8FBF5FED2
:100FA8001FFA8CF705FB1E8341EA03430EFB07F18A
:100FB80099420BD91CEB03030EF1FF3080F01E8120
:100FC800994240F21B81AEF1020E63445B1AA4B24F
:100FD800B3FBF5F005FB103344EA034400FB07F7C5
:100FE800A7420AD91CEB040400F1FF3380F0088102
:100FF800A74240F2058164440238E41B40EA0E40EF
:1010080000211EB1D4400023C6E90043BDE8F087A3
:101018008B4208D9002E00F0EE800021C6E90005B9
:101028000846BDE8F087B3FA83F100294AD1AB42FC
:1010380002D3824200F2F980841A65EB030301208F
:101048009846002EE2D0C6E90048DFE702B9FFDE85
:10105800B2FA82F2002A40F09180A1EB0C054FEA27
:101068001C471FFA8CFE0121B5FBF7F307FB135051
:10107800250C45EA00450EFB03F0A84208D91CEBF5
:10108800050503F1FF3802D2A84200F2CB8043469F
:101098002D1AA4B2B5FBF7F007FB105544EA054436
:1010A8000EFB00FEA64508D91CEB040400F1FF3531
:1010B80002D2A64500F2BB802846A4EB0E0440EA03
:1010C80003409EE7C1F120078B4022FA07FC4CEA57
:1010D800030C20FA07F405FA01F31C43FD404FEA1C
:1010E8001C4900FA01F3B5FBF9F8200C1FFA8CFE35
:1010F80009FB185540EA054508FB0EF0A84202FA1C
:1011080001F20BD91CEB050508F1FF3A80F0888045
:10111800A84240F28580A8F1020865442D1AA4B2BD
:10112800B5FBF9F009FB105544EA054500FB0EFE36
:10113800AE4508D91CEB050500F1FF346CD2AE456D
:101148006AD90238654440EA0840A0FB0294A5EB3E
:101158000E05A542C846A64656D353D05EB1B3EB9A
:10116800080265EB0E0505FA07F722FA01F3CD40F0
:101178001F43C6E900750021BDE8F087C2F12003CE
:1011880020FA03F10CFA02FC25FA03F395400D430B
:101198004FEA1C471FFA8CFEB3FBF7F107FB11302F
:1011A8002B0C43EA004301FB0EF0984204FA02F4C8
:1011B80008D91CEB030301F1FF382FD298422DD92F
:1011C800023963441B1AADB2B3FBF7F007FB1033C7
:1011D80045EA034500FB0EF3AB4208D91CEB0505B5
:1011E80000F1FF3816D2AB4214D902386544ED1A23
:1011F80040EA014138E73146304607E78646E5E6EA
:101208001846FAE64B45A9D2B9EB020864EB0C0E76
:101218000138A3E74046EAE7204694E74146D1E78C
:10122800D0467BE7023B654432E7084609E7644459
:10123800023842E7704700BF4A0011D212F5001287
:1012480011D20DD56FF47873B3EB62520ED44FEA16
:10125800C12343F0004343EA505323FA02F0704796
:101268004FF00000704750EA013002D14FF0FF30D4
:1012780070474FF00000704730B504460D464B1ECE
:1012880000EB030E0020E05415E05B008EF8003000
:101298004FEA5C0C0132072A0CDC9EF800300CF097
:1012A8000101B1EBD31FF0D05B0083F007038EF888
:1012B8000030EDE701306B1E834203DD14F800C0F7
:1012C8000022E8E730BD000008B5064B00EB4001FE
:1012D80003EB011108460122898C006A01F04FFBDB
:1012E80008BD00BF8004002008B5064B00EB400194
:1012F80003EB011108460022898C006A01F03FFBCC
:1013080008BD00BF8004002010B582B00446052344
:101318008DF8003000238DF8013061F07F018DF8E1
:101328000210130E8DF80330130C8DF80430130AD5
:101338008DF805308DF8062008216846FFF79CFFD8
:1013480004EB44042401FF2308226946024800599B
:1013580002F09DF902B010BD800400202DE9F84F7D
:10136800804693469A460025A94602E0013549F190
:1013780000095D4579EB0A0318D20D4F08EB4804C4
:1013880007EB04140022A18BA06901F0F8FA0A20E7
:1013980000F0EEFC0122A18BA06901F0F0FA0A200E
:1013A80000F0E6FC94F82E30002BDFD0BDE8F88F73
:1013B800800400202DE9F04704460D46904600EBD6
:1013C800400A2E4B03EB0A1ABAF80600FFF73AF860
:1013D80000222B4BFFF7B0F8DAE90423FFF7D6F920
:1013E80006460F464046FFF72DF8804689469AF88C
:1013F8000400FFF727F802460B4640464946FFF728
:10140800C5F9804689462046FFF76EFF0A2001F09D
:10141800DFF81DB31B4D08212846FFF72DFF04EB0D
:1014280044000001FF2308222946144D285802F0E1
:101438002EF942464B4630463946FFF77DF8FFF70E
:1014480073FD02460B462046FFF788FF0A2001F08D
:10145800BFF82046FFF738FFBDE8F0870A4D08219E
:101468002846FFF709FF04EB44000001FF23082288
:101478002946024D285802F00AF9DAE780040020CC
:1014880000807640080000200000002010B582B0DF
:1014980004460023019355238DF804308DF8061077
:1014A80004210DEB0100FFF7E7FE04EB44042401DF
:1014B800FF2304220DEB02010C48005902F0E7F863
:1014C800052000F055FC0A4CFF230F22214609484D
:1014D80002F0DDF8E079237A1B0403EB0063607AFD
:1014E80003EB0023A07A184402B010BD800400204A
:1014F800A40600200007002010B504460121FFF7CC
:10150800C5FF40F0030201212046FFF7FDFE10BD94
:1015180008B5FFF72DFBC0F3C7507F3808BD38B5B5
:1015280004460D460021FFF7B1FF35B140F0040233
:1015380000212046FFF7E8FE38BD20F00402F7E757
:1015480038B504460D460021FFF7A0FF35B140F03D
:10155800800200212046FFF7D7FE38BD20F0800228
:10156800F7E7000070B506460C466C21FFF78EFFC2
:1015780005462046FFF7CCFFC0F1080225F070654C
:1015880045EA02626C213046FFF7BEFE0121304673
:10159800FFF7D6FFC82101FB04F4014B1C6070BDA6
:1015A8007C04002008B500EB400C074B03EB0C1340
:1015B8004FF0000C83F82EC002B108BD0A46222164
:1015C800FFF7A2FEF9E700BF80040020000000003A
:1015D800D0B504460846FEF757FF0DA3D3E900230C
:1015E800FFF7D4F806460F460B4B1868FEF72AFF9C
:1015F80032463B46FEF7A0FFFFF7B0F902F09CFB2E
:10160800FFF75AFC014600222046FFF7CBFFD0BD6A
:10161800E17A14AE47E1E63F7C04002010B50446A9
:101628000548A0FB01304009FFF79EFA0146204615
:10163800FFF7CEFF10BD00BF8988888838B50446FB
:101648000D460021FFF76BFF2A4640212046FFF791
:101658005BFE4FF4FA6214212046FFF755FE1E2167
:101668002046FFF7DBFF38BDF8B5044617461E468F
:10167800214D00EB400C4FEA0C1305EB0C1CE95014
:10168800079BCCF81830BDF82030ACF81C30099B0B
:10169800CCF82030BDF82830ACF82430ACF806205F
:1016A80013A3D3E90023CCE90423ACF808609DF820
:1016B80018308CF804300B9BCCF8283000EB400C29
:1016C80005EB0C1CBDF83030ACF82C30FFF714FFDC
:1016D80039462046FFF746FF9DF834102046FFF7AD
:1016E800ADFF32469DF838102046FFF763FEF8BD7F
:1016F800CDCCCCCCCCCCFC3F80040020F8B5054642
:10170800002401E00134E4B2012C1AD804EB4403AC
:101718000C4A02EB03139B8DAB42F3D117466600CC
:1017280004EB440302EB0313012283F82E20204626
:10173800FFF7CAFD264407EB0616002386F82E306D
:10174800E0E7F8BD8004002010B586B00446002309
:1017580001930293039304930593012281880068FF
:1017680001F00DF9A388019311230293E379039300
:101778000223049301A9206801F008F806B010BDFF
:1017880000B587B000230193029303930493059354
:1017980083880193C379039301A9006800F0F6FFD9
:1017A80007B05DF804FB00002DE9F04383B08146E3
:1017B8000E467F4B93E8030089E80300B379002BBA
:1017C80033D14FF4FA6400F0FDFEB268831AA342E5
:1017D80000D26ABB00F0F6FE0130B0603046FFF779
:1017E800B3FF0022B188306801F0C9F8122000F078
:1017F800EFFE0122B188306801F0C1F83046FFF7EA
:10180800BFFF72B60024B188306801F0B1F8012832
:1018180015D10134A4B242F210739C42F3D962B6D6
:101828004FF043433361F36086E04FF47A74CAE7BC
:101838003369C9F80030F368C9F804307CE0002443
:10184800B188306801F094F801280BD00134A4B2B3
:1018580042F210739C42F3D962B64FF043433361AE
:10186800F36069E00024B188306801F081F801284C
:1018780007D10134A4B242F210739C42F3D962B684
:101888005AE04C4B93E8030000908DF804104FF099
:10189800000833E00134A4B2B188306801F068F878
:1018A800012825D04FF6FF739C42F3D1002501E0B3
:1018B8000135ADB2B188306801F05AF8012803D17A
:1018C8004FF6FF739D42F3D1A5420BD9012303FACA
:1018D80007F208F108030DEB030111F8083C134364
:1018E80001F8083C013FFFB2FF2F03D00024D3E7E3
:1018F8000025DFE708F101085FFA88F8B8F1040F5E
:1019080001D80727F0E762B69DF800509DF801005E
:101918002B189DF8024054FA83F39DF8037057FA88
:1019280083F3DBB29DF80420934209D0D9F8003044
:101938003361D9F80430F360484603B0BDE8F0835A
:1019480096F80680B8F1010F0ED0B8F1000FEDD16E
:101958002846FFF709F9C9F800009DF80200FFF7CB
:1019680003F9C9F80400E1E740EA0520FFF700F9A8
:101978001149FFF751F9C9F8000014F0800F09D197
:1019880047EA0420FFF7F4F80B49FFF745F9C9F8CF
:101998000400DAE704F07F008DF8020047EA00202F
:1019A800FFF7E6F80549FFF737F9C9F80400CCE76F
:1019B800A03D0008A83D0008CDCCCC3DCDCCCCBD89
:1019C80008B5034B18609980012200F0D8FF08BDC4
:1019D800E404002038B50B4B1B7803B138BD012552
:1019E800084B1D70084C0022A188206800F0C7FF32
:1019F8004FF4FA7000F0ECFD2A46A188206800F048
:101A0800BEFFEBE7E0040020E404002038B5134BE8
:101A18001B7803B938BD0025104B1D70104C2A46A1
:101A2800A188206800F0ABFF642000F0D1FD0122FE
:101A3800A188206800F0A3FF642000F0C9FD2A46B1
:101A4800A188206800F09BFF642000F0C1FD0122FE
:101A5800A188206800F093FFDCE700BFE0040020C5
:101A6800E40400202DE9F84307468846002621E0D3
:101A7800BA574FF0010909FA05F31A40104CD2B2CF
:101A8800A18A206900F07BFF484600F0A1FD4A4684
:101A9800A189A06800F073FF484600F099FD002274
:101AA800A189A06800F06BFF013D6DB2002DDFDA5F
:101AB8000136F6B2464501D20725F7E7BDE8F883B7
:101AC800EC0400202DE9F84380468946002720E0F1
:101AD80033785B003370144C0122A189A06800F0B0
:101AE8004EFF012000F074FDA18BA06900F040FFBB
:101AF800337818433070012000F06AFD0022A18974
:101B0800A06800F03CFF013D6DB2002DE0DA01371E
:101B1800FFB24F4506D208EB0706002308F8073046
:101B28000725F2E7BDE8F883EC04002070B582B021
:101B38000D4616468DF807000A4C0022A188206839
:101B480000F01DFF01210DF10700FFF78BFF314663
:101B58002846FFF7B7FF0122A188206800F00FFF91
:101B680002B070BDEC04002010B582B08DF80700FB
:101B78008DF80610C3B263F07F038DF807300B4C65
:101B88000022A188206800F0FAFE01210DF107006B
:101B9800FFF768FF01210DF10600FFF763FF01223F
:101BA800A188206800F0EBFE02B010BDEC04002014
:101BB80010B582B0044601220DF107010020FFF79D
:101BC800B5FF64B19DF8073063F07F038DF80730E7
:101BD8009DF807100020FFF7C7FF02B010BD9DF861
:101BE800073003F07F038DF80730F1E710B582B0B6
:101BF800044601220DF107010020FFF797FF64B1A9
:101C08009DF8073043F040038DF807309DF8071022
:101C18000020FFF7A9FF02B010BD9DF8073023F0A0
:101C280040038DF80730F1E710B582B00446012271
:101C38000DF107010020FFF779FF032C0CD09DF868
:101C4800073023F010038DF807309DF807100020A7
:101C5800FFF78AFF02B010BD9DF8073043F010036C
:101C68008DF80730F1E700B583B001220DF10701C7
:101C78000020FFF75BFF9DF8071041F020018DF869
:101C880007100020FFF770FF03B05DF804FB0000A9
:101C980010B5134C2060A180A260A381029B236130
:101CA800BDF80C30A382049BA361BDF81430A38354
:101CB800012200F064FE0122A189A06800F05FFE05
:101CC8000122A18A206900F05AFE9DF81800FFF74A
:101CD800ABFF0020FFF76CFF0020FFF787FF10BD68
:101CE800EC0400200000000030B583B00120FFF7AD
:101CF8005FFF0A2000F06CFCFFF7B5FF412000F001
:101D080067FC022201A90120FFF710FF9DF80430AB
:101D18009DF8050040EA03204008FEF725FF124918
:101D2800FEF77AFF4FF06051FEF776FF0F49FFF795
:101D380027F84FF07E51FEF765FEFEF7A5FB08A3D6
:101D4800D3E90023FEF722FD04460D460020FFF7E5
:101D58002FFF2046294603B030BD00BFAFF30080F7
:101D68008F17D2E1218C6F3F0000D7430000C84293
:101D780010B44FF0E0235C690C4A92F800C000FBF5
:101D88000CFC9B69002104E0E01A024411446145FF
:101D980009D21A464FF0E0239B699A42FAD0F3D948
:101DA800D21A1144F3E710BC704700BF0C0500209D
:101DB8002DE9F0418AB0002405940694079408940C
:101DC800099401943F4B1A6B42F004021A631A6B90
:101DD80002F004020192019A02941A6B42F0800206
:101DE8001A631A6B02F080020292029A03941A6B29
:101DF80042F001021A631A6B02F001020392039A7D
:101E080004941A6B42F010021A631B6B03F0100360
:101E18000493049B2C4E22464FF48351304600F025
:101E2800AEFD2A4F22464FF40A41384600F0A7FD7E
:101E3800202305930125069507954FF00208CDF854
:101E4800208005A9304600F0A1FC402305930695A3
:101E580007950323089305A9304600F097FC8023D3
:101E680005934FF488130693079505A9304600F0AB
:101E78008DFC4FF40A43059306950794CDF820800E
:101E880005A9384600F082FC4FF4005305930694E8
:101E9800079405A9384600F079FC4FF48053059360
:101EA80006950794089405A9304600F06FFC224671
:101EB8002146172000F0B2FB172000F0E7FB0AB01C
:101EC800BDE8F081003802400000024000100240E6
:101ED80008B5FFF713FC08BD72B6FEE700B595B06C
:101EE8003022002108A801F065FE00230393049323
:101EF8000593069307930193204A116C41F0805192
:101F08001164126C02F080520192019A02931C4BE8
:101F18001A6842F480421A601B6803F480430293F3
:101F2800029B012308934FF48033099302220E92F7
:101F38004FF480030F9304231093A8211191129258
:101F4800139308A800F030FD98B90F2303930223D8
:101F58000493002305934FF4A05306934FF4805342
:101F68000793052103A800F085FF20B915B05DF897
:101F780004FBFFF7B1FFFFF7AFFF00BF00380240D7
:101F88000070004010B58CB000F0F6FAFFF7A6FF1D
:101F9800FFF70EFF00F094F900F0A2F800F0C8F87F
:101FA80000F06CF9002008905023079380230693D3
:101FB800224C059420230493039440220292019416
:101FC80002230093CB231E49FFF74EFB4FF48051A9
:101FD8002046FFF7F5FC1B48042304934FF40053F5
:101FE800039302904FF40063019300904FF4004371
:101FF80002464FF40071FFF74BFE05220121002035
:10200800FFF7D8F94FF47A7000F0E2FA05220021C0
:102018000846FFF7CFF94FF47A7000F0D9FA0A4B67
:102028001B78002BE9D009490AA8FFF7BDFBFFF789
:102038005BFE054B00221A70DFE700BF000002407C
:10204800BC06002000100240A2050020100000205D
:1020580082B0002100910B4B5A6C42F480425A64C2
:102068005A6C02F480420092009A01911A6C42F074
:1020780080521A641B6C03F080530193019B02B0D9
:10208800704700BF00380240FEE7FEE7FEE7FEE7C4
:10209800FEE770477047704708B500F087FA08BD3B
:1020A80008B5802000F072FC08BD000008B50248A1
:1020B80001F0E2FB08BD00BFBC06002008B50248DD
:1020C80000F0F6FF08BD00BF1005002008B5024863
:1020D80000F0EEFF08BD00BF580500207047000063
:1020E80000B583B00023009301930F480F4A0260A4
:1020F80042F2CF024260836042F20F72C260836193
:1021080001F0F8F850B90023009301936946064896
:1021180001F01CF928B903B05DF804FBFFF7DCFEF9
:10212800F1E7FFF7D9FEF6E71005002000100040A0
:1021380000B583B00023009301930F480F4A026053
:1021480042F2CF024260836042F20F72C260836142
:1021580001F0D0F850B9002300930193694606486E
:1021680001F0F4F828B903B05DF804FBFFF7B4FEFA
:10217800F1E7FFF7B1FEF6E758050020001400402C
:1021880000B583B00368184A934205D0174A9342B2
:1021980016D003B05DF804FB00210091144B1A6CB3
:1021A80042F010021A641B6C03F010030093009BAA
:1021B8000A46362000F032FA362000F067FAE8E7DF
:1021C800002101910A4B1A6C42F020021A641B6C20
:1021D80003F020030193019B0A46372000F01EFA02
:1021E800372000F053FAD4E70010004000140040F4
:1021F80000380240194B984203D0194B984229D015
:10220800704710B5174B1B781BB9174B1B7883B950
:1022180010BD164C237801332370FFF7DBFB2278BF
:10222800134B1B789A42F3D900230E4A137023707C
:10223800EEE7104C237801332370FFF7E7FB227891
:10224800094B1B789A42E3D9064B01221A700022E7
:102258002270DDE7084B01221A7070471005002034
:1022680058050020A105002045070020A0050020F2
:10227800440700200D050020A205002008B50D48E0
:102288000D4B03604FF4E133436000238360C36068
:1022980003610C2242618361C36101F0C9F928B965
:1022A80001220649034801F044FC08BDFFF714FE6B
:1022B800F6E700BFBC0600200044004048070020A5
:1022C80008B50A480A4B03604FF4E1334360002322
:1022D8008360C36003610C2242618361C36101F0C2
:1022E800A7F900B908BDFFF7F7FDFBE700070020D5
:1022F8000014014010B58AB0002305930693079394
:102308000893099303682B4A934204D02A4A9342BC
:102318002CD00AB010BD00240194284B1A6C42F44A
:1023280000321A641A6C02F400320192019A029483
:102338001A6B42F001021A631B6B03F0010302934C
:10234800029B0C2305930223069303230893072378
:10235800099305A91A4800F019FA224621462620B1
:1023680000F05CF9262000F091F9D2E700210391F2
:10237800124B5A6C42F020025A645A6C02F0200246
:102388000392039A04911A6B42F004021A631B6BBE
:1023980003F004030493049BC023059302230693CC
:1023A800032308930823099305A9064800F0EEF9CA
:1023B800AFE700BF0044004000140140003802406D
:1023C800000002400008024008B50368344A9342FE
:1023D80003D0344A93424ED008BD334B1A78FF2AB3
:1023E80011D0531CDBB230490B70304930480078AB
:1023F80088545A1E8A5CFF2A14D001222C492D4881
:1024080001F097FBE8E7002119704FF48072274824
:1024180001F0D0FB4FF6FF730A222749254801F047
:1024280036F9EAE79A1E8A5CFF2AE6D1033BCB5CC1
:10243800FF2BE2D10B78552B08D000211A4B1970CD
:102448004FF48072194801F0B5FBD6E74B78652B3D
:1024580008D0164BDB78662BEFD1144B1A79174B43
:102468001A70EAE78B78164A1370002BF1D01548DA
:1024780000F0D6FDEDE714490A78531CDBB20B7067
:102488001249087812498854132B02D90E4B00229E
:102498001A7001220D490F4801F04BFB9CE700BF61
:1024A8000014014000440040B9060020A4050020A3
:1024B800BA06002000070020C83D00084507002094
:1024C8004407002010050020B80600204807002017
:1024D800A4060020BC060020DFF834D00D480E49C1
:1024E8000E4A002302E0D458C4500433C4188C4266
:1024F800F9D30B4A0B4C002301E013600432A242CB
:10250800FBD3FFF7EBFD01F031FBFFF73BFD704715
:1025180000000220000000205C040020EC3D0008C0
:102528006004002054070020FEE7000010B50446B0
:102538000E4B18784FF47A73B3FBF0F30C4A10681B
:10254800B0FBF3F000F0B0F868B90F2C01D9012006
:102558000AE0002221464FF0FF3000F05FF8054BFB
:102568001C60002000E0012010BD00BF28000020F2
:10257800240000202C00002008B50B4B1A6842F4F8
:1025880000721A601A6842F480621A601A6842F48B
:1025980080721A60032000F02FF80F20FFF7C6FFA3
:1025A800FFF756FD002008BD003C0240034A1168B1
:1025B800034B1B780B441360704700BF4C07002087
:1025C80028000020014B1868704700BF4C07002006
:1025D80038B50446FFF7F6FF0546B4F1FF3F02D0D1
:1025E800044B1B781C44FFF7EDFF401BA042FAD3B5
:1025F80038BD00BF28000020074AD36823F4E063F1
:102608001B041B0C000200F4E060034343F0BF63AB
:1026180043F40033D360704700ED00E000B5194B78
:10262800DB68C3F30223C3F1070CBCF1040F28BF16
:102638004FF0040C03F1040EBEF1060F18D9033B4A
:102648004FF0FF3E0EFA0CFC21EA0C0199400EFAFD
:1026580003F322EA0303194300280BDB0901C9B27B
:1026680000F1604000F5614080F800135DF804FB5C
:102678000023E5E700F00F000901C9B2024B195425
:10268800F4E700BF00ED00E014ED00E0002807DBF0
:1026980000F01F02400901239340024A42F820300B
:1026A800704700BF00E100E00138B0F1807F0BD235
:1026B8004FF0E0235861054AF02182F823100020EA
:1026C800986107221A6170470120704700ED00E009
:1026D80070B50446866DFFF775FF94F83530DBB2A8
:1026E800022B06D080236365002384F83430012050
:1026F80070BD05462268136823F01603136022682C
:10270800536923F080035361236CE3B12268136893
:1027180023F0080313602268136823F00103136091
:1027280023681B6813F0010F11D0FFF74BFF431B01
:10273800052BF5D920236365032084F83500002391
:1027480084F83430D4E7A36C002BDFD1E3E7E26DE3
:102758003F239340B360012384F83530002084F888
:102768003400C5E790F83530DBB2022B03D0802364
:10277800436501207047052380F8353002681368E7
:1027880023F00103136000207047000000230F2B83
:1027980000F2E48070B582B060E085685E000324D2
:1027A800B44025EA0405CC68B4402C4384604568ED
:1027B80025EA02054C68C4F300129A402A43426095
:1027C8005AE0DC08083450F8246003F0070295004A
:1027D8000F22AA4026EA020E0A69AA4042EA0E021D
:1027E80040F824205CE0072200E0002202FA0EF202
:1027F8002A4302345A4D45F824205A4A94686FEA0D
:102808000C0224EA0C054E6816F4801F01D04CEA2D
:102818000405544CA560E46802EA04054E6816F401
:10282800001F01D04CEA04054E4CE560646802EADA
:1028380004054E6816F4003F01D04CEA0405494CE3
:102848006560246822404D6815F4803F01D04CEA49
:102858000402444C226001330F2B7DD801229A4098
:102868000C6804EA020C32EA0404F4D14C6804F05F
:102878000304013C012C90D94A6802F00302032AA0
:1028880009D0C4685D000322AA4024EA02048A68C9
:10289800AA402243C2604A6802F00302022A90D08A
:1028A80004684FEA430E032202FA0EF224EA0204F5
:1028B8004A6802F0030202FA0EF2224302604A68F2
:1028C80012F4403FC7D000220192274A546C44F4C6
:1028D80080445464526C02F480420192019A9C082C
:1028E800A51C1F4A52F8255003F003024FEA820E36
:1028F8000F2202FA0EF225EA02051C4A90423FF422
:1029080074AF02F5806290421AD002F5806290425C
:1029180018D002F58062904216D002F5806290428B
:1029280014D002F58062904212D002F58062904283
:1029380010D002F5806290423FF455AF082255E767
:10294800012253E7022251E703224FE704224DE711
:1029580005224BE7062249E702B070BD704700BF69
:1029680000380140003C01400038024000000240AD
:102978000369194201D001207047002070470AB14D
:1029880081617047090481617047000008B5054BF3
:102998005B69034200D108BD024B5861FFF798FA02
:1029A800F9E700BF003C0140002800F0E08170B565
:1029B80082B00446036813F0010F3BD09F4B9B681D
:1029C80003F00C03042B2CD09C4B9B6803F00C03E6
:1029D800082B21D06368B3F5803F4FD0B3F5A02F03
:1029E80052D0964B1A6822F480321A601A6822F480
:1029F80080221A606368002B50D0FFF7E3FD05467C
:102A08008E4B1B6813F4003F14D1FFF7DBFD401B0E
:102A18006428F5D90320B1E1884B5B6813F4800F73
:102A2800D8D0864B1B6813F4003F03D06368002B93
:102A380000F09F81236813F0020F54D07F4B9B68EE
:102A480013F00C0F3ED07D4B9B6803F00C03082B52
:102A580033D0E368002B68D0794B01221A60FFF766
:102A6800B1FD0546754B1B6813F0020F54D1FFF7F3
:102A7800A9FD401B0228F5D903207FE16F4A13689E
:102A880043F480331360B5E76C4B1A6842F4802234
:102A98001A601A6842F480321A60ABE7FFF792FDB9
:102AA8000546664B1B6813F4003FC3D0FFF78AFD49
:102AB800401B6428F5D9032060E1604B5B6813F480
:102AC800800FC6D15D4B1B6813F0020F03D0E3687B
:102AD800012B40F05081594A136823F0F80321690B
:102AE80043EAC1031360236813F0080F42D06369F7
:102AF8006BB3534B0122C3F8802EFFF763FD0546E5
:102B08004E4B5B6F13F0020F34D1FFF75BFD401B98
:102B18000228F5D9032031E1484A136823F0F80365
:102B2800216943EAC1031360DDE7454B00221A60BF
:102B3800FFF748FD0546414B1B6813F0020FD2D042
:102B4800FFF740FD401B0228F5D9032016E13C4B56
:102B58000022C3F8802EFFF735FD0546374B5B6F23
:102B680013F0020F06D0FFF72DFD401B0228F5D900
:102B7800032003E1236813F0040F77D02F4B1B6C5D
:102B880013F0805F33D1002301932C4B1A6C42F071
:102B980080521A641B6C03F080530193019B01253A
:102BA800284B1B6813F4807F23D0A368012B34D0F3
:102BB800052B38D0214B1A6F22F001021A671A6FC1
:102BC80022F004021A67A368002B3DD0FFF7FAFC35
:102BD80006461A4B1B6F13F0020F46D1FFF7F2FCA3
:102BE800801B41F288339842F3D90320C6E00025C0
:102BF800D6E7144A136843F480731360FFF7E2FCC6
:102C08000646104B1B6813F4807FCED1FFF7DAFC21
:102C1800801B0228F5D90320B0E0084A136F43F05F
:102C280001031367CFE7054B1A6F42F004021A67D6
:102C38001A6F42F001021A67C5E700BF0038024068
:102C48000000474200700040FFF7BCFC0646524BAC
:102C58001B6F13F0020F08D0FFF7B4FC801B41F282
:102C680088339842F3D9032088E0EDB9A369002B93
:102C780000F08380484A926802F00C02082A51D07A
:102C8800022B17D0454B00221A66FFF79BFC04461F
:102C9800414B1B6813F0007F42D0FFF793FC001BE9
:102CA8000228F5D9032069E03B4A136C23F08053CE
:102CB8001364DBE7394B00221A66FFF783FC0546ED
:102CC800354B1B6813F0007F06D0FFF77BFC401BD9
:102CD8000228F5D9032051E0E369226A1343626AA6
:102CE80043EA8213A26A5208013A43EA0243E26ABB
:102CF80043EA0263284A5360284B01221A66FFF709
:102D080061FC0446244B1B6813F0007F06D1FFF7D3
:102D180059FC001B0228F5D903202FE000202DE0E4
:102D280000202BE0012B2BD01B4B5B6803F48001A8
:102D3800E269914226D103F03F02216A8A4223D1F7
:102D4800616A47F6C0721A40B2EB811F1ED103F4C4
:102D58004031A26A5208013AB1EB024F18D103F090
:102D68007063E26AB3EB026F14D1002006E0012021
:102D78007047012002E0012000E0002002B070BD91
:102D88000120FBE70120F9E70120F7E70120F5E73B
:102D98000120F3E70120F1E7003802400000474234
:102DA80008B5314B9B6803F00C03042B57D0082B54
:102DB80057D12D4B5A6802F03F025B6813F4800F1D
:102DC8002AD0294B5968C1F3881C4FEA4C11B1EB42
:102DD8000C006EEB0E0E4FEA8E1343EA90638101EE
:102DE800091A63EB0E03DB0043EA5173C90011EBC8
:102DF8000C0C43F10003590200234FEA4C2041EA2E
:102E0800DC51FEF779F8184B5B68C3F301430133D3
:102E18005B00B0FBF3F025E0134B5968C1F3881C45
:102E28004FEA4C11B1EB0C006EEB0E0E4FEA8E130D
:102E380043EA90638101091A63EB0E03DB0043EA5E
:102E48005173C90011EB0C0C43F1000399020023E4
:102E58004FEA8C2041EA9C51FEF74EF8D3E703482D
:102E680000E0034808BD00BF0038024000127A00A5
:102E78000024F400002800F09B8070B50D4604463D
:102E88004F4B1B6803F007038B4208D2CBB24C4A66
:102E98001370136803F007038B4240F08B8023689C
:102EA80013F0020F17D013F0040F04D0454A9368AB
:102EB80043F4E0539360236813F0080F04D0414AA9
:102EC800936843F4604393603E4A936823F0F003A9
:102ED800A1680B439360236813F0010F32D0636835
:102EE800012B21D09A1E012A25D9364A126812F0E0
:102EF800020F61D033498A6822F0030213438B60C2
:102F0800FFF760FB06462F4B9B6803F00C036268D3
:102F1800B3EB820F16D0FFF755FB801B41F28833C5
:102F28009842F0D9032042E0264A126812F4003F82
:102F3800E0D101203BE0234A126812F0007FD9D18A
:102F4800012034E01E4B1B6803F00703AB4207D98E
:102F5800EAB21B4B1A701B6803F00703AB422DD172
:102F6800236813F0040F06D0164A936823F4E0533D
:102F7800E1680B439360236813F0080F07D0114AE8
:102F8800936823F46043216943EAC1039360FFF720
:102F980007FF0C4B9B68C3F303130B4AD35CD84061
:102FA8000A4B18600A4B1868FFF7C0FA002070BD7A
:102FB800012070470120FAE70120F8E70120F6E731
:102FC800003C024000380240B03D000824000020C8
:102FD8002C000020014B1868704700BF2400002017
:102FE80008B5FFF7F7FF044B9B68C3F38223034A36
:102FF800D35CD84008BD00BF00380240C03D00087F
:1030080008B5FFF7E7FF044B9B68C3F34233034A55
:10301800D35CD84008BD00BF00380240C03D00085E
:1030280090F83D30DBB2012B37D1022380F83D30D8
:103038000268D36843F00103D3600368194A9342D6
:1030480020D0B3F1804F1DD0A2F57C42934219D015
:1030580002F58062934215D002F58062934211D046
:1030680002F5784293420DD002F57052934209D08E
:10307800A2F59432934205D01A6842F001021A6010
:10308800002070479A6802F00702062A07D01A68DB
:1030980042F001021A6000207047012070470020AA
:1030A800704700BF00000140704770477047704785
:1030B80010B5044603681A6912F0020F11D0DA68D5
:1030C80012F0020F0DD06FF002021A61012303778C
:1030D80003689B6913F0030F70D0FFF7E6FF002326
:1030E800237723681A6912F0040F12D0DA6812F0F5
:1030F800040F0ED06FF004021A61022323772368AD
:103108009B6913F4407F5FD02046FFF7CEFF002372
:10311800237723681A6912F0080F12D0DA6812F0C0
:10312800080F0ED06FF008021A6104232377236872
:10313800DB6913F0030F4ED02046FFF7B6FF0023DC
:10314800237723681A6912F0100F12D0DA6812F088
:10315800100F0ED06FF010021A610823237723682E
:10316800DB6913F4407F3DD02046FFF79EFF002324
:10317800237723681A6912F0010F03D0DA6812F076
:10318800010F36D123681A6912F0800F03D0DA686C
:1031980012F0800F34D123681A6912F0400F03D05F
:1031A800DA6812F0400F32D123681A6912F0200F42
:1031B80003D0DA6812F0200F30D110BDFFF774FF8A
:1031C8002046FFF773FF8AE72046FFF76DFF20468A
:1031D800FFF76CFF9BE72046FFF766FF2046FFF7E7
:1031E80065FFACE72046FFF75FFF2046FFF75EFF6D
:1031F800BDE76FF001021A612046FEF7FBFFC1E749
:103208006FF080021A61204600F0E7F8C3E76FF01C
:1032180040021A612046FFF74AFFC5E76FF0200217
:103228001A61204600F0D8F8C7E700000368304A62
:10323800904212D0B0F1804F0FD0A2F57C4290425C
:103248000BD002F58062904207D002F5806290426E
:1032580003D002F57842904203D123F070034A6804
:103268001343234A90422AD0B0F1804F27D0A2F5C9
:103278007C42904223D002F5806290421FD002F532
:10328800806290421BD002F57842904217D002F536
:103298007052904213D002F5806290420FD002F52E
:1032A800806290420BD0A2F59832904207D002F586
:1032B8008062904203D002F58062904203D123F4E9
:1032C8004073CA68134323F080034A6913430360B9
:1032D8008B68C3620B688362054B984203D003F581
:1032E8008063984201D10B690363012343617047EE
:1032F8000000014040B310B5044690F83D30F3B1EA
:10330800022384F83D30214651F8040BFFF78EFF65
:10331800012384F8463084F83E3084F83F3084F83E
:10332800403084F8413084F8423084F8433084F8DF
:10333800443084F8453084F83D30002010BD80F8D2
:103348003C30FEF71DFFDBE70120704790F83C306A
:10335800012B3CD010B4012380F83C30022380F8C4
:103368003D3003685A689C6822F0700C0A6842EA8B
:103378000C025A600368174A93421AD0B3F1804F7F
:1033880017D0A2F57C42934213D002F58062934293
:103398000FD002F5806293420BD002F57842934237
:1033A80007D002F57052934203D0A2F594329342AB
:1033B80004D124F080044A6814439C60012380F8F7
:1033C8003D30002380F83C30184610BC704702207E
:1033D800704700BF0000014070477047026802F163
:1033E8000C0353E8003F23F490730C3242E8003199
:1033F8000029F3D1026802F1140353E8003F23F0D7
:103408000103143242E800310029F3D1036B012B88
:1034180005D0202380F83E300023036370470268FC
:1034280002F10C0353E8003F23F010030C3242E88A
:1034380000310029F3D1ECE790F83D30DBB2212BC5
:1034480001D0022070478368B3F5805F17D0036A04
:103458005A1C02621A7803685A60C38C9BB2013BFB
:103468009BB2C3844BB90268D36823F08003D3604E
:103478000268D36843F04003D360002070470369B3
:10348800002BE4D1036A1B880268C3F30803536066
:10349800036A02330362E0E738B504460268136939
:1034A80023F44053C1680B431361836802691343D3
:1034B80042691343C2691A430168CB6823F416436F
:1034C80023F00C031343CB600268536923F4407361
:1034D80081690B4353610368314A934206D002F570
:1034E8008062934202D0FFF77BFD01E0FFF788FD81
:1034F800E369B3F5004F29D00021031849411B188F
:1035080041F10001C90041EA5371DB0018186368F2
:103518004FEA83024FEA937341F10001FDF7ECFC97
:10352800204DA5FB00325109642303FB11031B0145
:103538003233A5FB03235B0903F0F00202EB01120F
:1035480003F00F03216813448B6038BD0023021871
:1035580043EB0301121841F10001C90041EA52711D
:10356800D200101841F10001626892185B41FDF722
:10357800C3FC0C4DA5FB00325109642303FB110366
:10358800DB003233A5FB03235B095A0002F4F8720F
:1035980002EB011203F00703216813448B60D4E7A0
:1035A800001001401F85EB512DE9F84305460F46F1
:1035B80016469946DDF820802C68246837EA04030B
:1035C8000CBF4FF0010C4FF0000CB4452DD1B8F1F1
:1035D800FF3FF1D0B8F1000F05D0FEF7F3FFA0EBE5
:1035E80009004045E8D92A6802F10C0353E8003F76
:1035F80023F4D0730C3242E800310029F3D12A6851
:1036080002F1140353E8003F23F00103143242E8A7
:1036180000310029F3D1202385F83D3085F83E306C
:10362800002385F83C30032000E00020BDE8F88343
:1036380058B310B5044690F83D300BB3242384F8F2
:103648003D302268D36823F40053D3602046FFF747
:1036580023FF2268136923F4904313612268536996
:1036680023F02A0353612268D36843F40053D360DC
:1036780000202064202384F83D3084F83E3010BDBB
:1036880080F83C30FEF736FED8E7012070472DE978
:10369800F04182B01E4690F83D30DBB2202B54D169
:1036A80004460D469046002953D0002A53D090F87E
:1036B8003C30012B51D0012380F83C3000230364B7
:1036C800212380F83D30FEF77DFF0746A4F82480CB
:1036D800A4F82680A368B3F5805F05D04FF00008F2
:1036E800002384F83C3012E0236913B14FF000083E
:1036F800F6E7A8460025F3E738F8023B2268C3F34B
:1037080008035360E28C92B2013A92B2E284E38CED
:103718009BB273B100963B46002280212046FFF7FA
:1037280043FFE0B9002DE7D015F8012B23685A6054
:10373800E8E700963B46002240212046FFF734FF89
:1037480078B9202384F83D3000E0022002B0BDE8BB
:10375800F0810120FAE70120F8E70220F6E70320CC
:10376800F4E70320F2E7704708B50168CA6822F059
:103778004002CA60202280F83D20FFF7F4FF0020B5
:1037880008BD704708B5806B0023C385C384FFF765
:10379800F8FF08BD704790F83E30DBB2222B67D1A6
:1037A8008368B3F5805F4DD0826AB3F5805F04D03B
:1037B800002B54D10369002B51D103685B68137047
:1037C800836A01338362C38D9BB2013B9BB2C3857D
:1037D800002B4FD100B583B00268D36823F02003D3
:1037E800D3600268D36823F48073D3600268536996
:1037F80023F001035361202380F83E30036B012B33
:1038080033D100230363026802F10C0353E8003F3D
:1038180023F010030C3242E800310029F3D1036889
:103828001A6812F0100F06D0002201921A6801924D
:103838005B680193019B818DFFF7ACFF002003B00B
:103848005DF804FB0269002AAED1826A03685B68EE
:10385800C3F308031380836A02338362B3E7036800
:103868005B6803F07F031370AAE7FEF7ADFDE5E799
:10387800022070470020704730B583B004460268C4
:103888001368D068516913F00F0505D113F0200FA4
:1038980002D010F0200F19D12DB111F0010119D16A
:1038A80010F4907F16D1216B01297DD013F0800F81
:1038B80003D010F0800F40F0158113F0400F03D0B3
:1038C80010F0400F40F0128103B030BD2046FFF7E2
:1038D80062FFF9E713F0010F06D010F4807F03D0E0
:1038E800226C42F00102226413F0040F04D019B1D3
:1038F800226C42F00202226413F0020F04D019B1C4
:10390800226C42F00402226413F0080F07D010F072
:10391800200F00D119B1226C42F008022264226CF7
:10392800002AD1D013F0200F02D010F0200F29D197
:1039380023685B6903F04003226C12F0080F00D182
:1039480063B32046FFF74AFD23685B6913F0400F15
:1039580020D0226802F1140353E8003F23F040030B
:10396800143242E800310029F3D1A36B73B1614AE4
:103978001A65A06BFEF7F6FE0028A5D0A06B036DB4
:103988009847A1E72046FFF706FFD1E72046FFF753
:10399800F8FE99E72046FFF7F4FE95E72046FFF783
:1039A800F0FE002323648FE713F0100F3FF47EAF7F
:1039B80010F0100F3FF47AAF0023019313680193BE
:1039C80053680193019B536913F0400F50D0A26BC9
:1039D80013685B689BB2002B3FF476AFA18D9942C8
:1039E8007FF672AFE385D369B3F5807F37D022685D
:1039F80002F10C0353E8003F23F480730C3242E8D1
:103A080000310029F3D1226802F1140353E8003F82
:103A180023F00103143242E800310029F3D122686F
:103A280002F1140353E8003F23F04003143242E844
:103A380000310029F3D1202384F83E30002323638A
:103A4800226802F10C0353E8003F23F010030C3204
:103A580042E800310029F3D1A06BFEF739FEA18DB1
:103A6800E38D9BB2C91A89B22046FFF793FE2BE774
:103A7800A18DE38D9BB2C91A89B2E38D9BB2002B4D
:103A88003FF422AF00293FF41FAF226802F10C0374
:103A980053E8003F23F490730C3242E800300028CA
:103AA800F3D1226802F1140353E8003F23F0010325
:103AB800143242E800300028F3D1202384F83E3045
:103AC80000232363226802F10C0353E8003F23F02C
:103AD80010030C3242E800300028F3D12046FFF7EB
:103AE80059FEF1E62046FFF7A7FCEDE62046FFF772
:103AF8003BFEE9E68D37000881628285C285002396
:103B08000364222280F83E2080F83C30036923B108
:103B18000268D36843F48073D3600268536943F042
:103B2800010353610268D36843F02003D360002087
:103B3800704708B590F83E30DBB2202B0DD171B13B
:103B48007AB190F83C30012B0DD0012380F83C303D
:103B580000230363FFF7D0FF00E0022008BD012027
:103B6800FCE70120FAE70220F8E7000070B50D4EE7
:103B78000D4D761BB61006D0002455F8043B0134D1
:103B88009847A642F9D1094E094D761B00F0F8F87E
:103B9800B61006D0002455F8043B01349847A642D5
:103BA800F9D170BDE03D0008E03D0008E83D00089F
:103BB800E03D0008830730B548D0541E002A3FD0A6
:103BC800CAB2034601E0013C3AD303F8012B9D0732
:103BD800F9D1032C2DD9CDB245EA05250F2C45EA9C
:103BE800054536D9A4F1100222F00F0C03F1200E7E
:103BF800E6444FEA121C03F1100242E9045542E977
:103C0800025510327245F8D10CF1010214F00C0F74
:103C180003EB021204F00F0C13D0ACF1040323F0F1
:103C280003030433134442F8045B9342FBD10CF0C2
:103C380003042CB1CAB21C4403F8012B9C42FBD1EB
:103C480030BD64461346002CF4D1F9E70346144608
:103C5800BFE71A46A446E0E7024B13B1024800F05A
:103C680005B8704700000000813C000800230146A9
:103C78001A46184600F01AB838B5084B084D5B1BB1
:103C88009C1007D0043B1D44013C55F80439984763
:103C9800002CF9D1BDE8384000F078B8EC3D0008B8
:103CA800E83D0008704700BF704700BF2DE9F047A6
:103CB800DFF87CA00646DAF8000098460F469146E1
:103CC800FFF7F0FF1B4B1B68D3F8484124B3656826
:103CD8001F2D26DC5EB96B1C0235DAF80000636024
:103CE80044F82570FFF7E0FF0020BDE8F08704EBFB
:103CF80085010123C1F88890D4F88821AB401A4384
:103D0800022EC4F88821C1F80881E4D1D4F88C21A6
:103D18001343C4F88C31DEE703F5A674C3F84841B1
:103D2800D5E7DAF80000FFF7BFFF4FF0FF30DCE718
:103D380058040020D43D000808B5C0F3C7537F3BA2
:103D4800162B014615DC002B02460BDB0B481841ED
:103D5800014205D04FF480011941114421EA0001C4
:103D6800084608BD013300F00041F9D141F07E5109
:103D7800F6E7802BF4D1FCF747FE08BDFFFF7F0074
:103D8800F8B500BFF8BC08BC9E467047F8B500BF40
:083D9800F8BC08BC9E46704710
:103DA000000000C3000000C300000000000000008D
:103DB00000000000000000000102030406070809DB
:103DC0000000000001020304CAFDBEDDD2E7B3F625
:083DD00000000000300000209B
:083DD80094D1FF7F01000000FF
:083DE000613C0008AD01000880
:043DE8008901000845
:103DEC0005008000000081000500800000008900B3
:103DFC000008024002000101000000000000000069
:103E0C00000000000024F40001000000100000007D
:103E1C00000000001C03002084030020EC030020A1
:103E2C000000000000000000000000000000000086
:103E3C000000000000000000000000000000000076
:103E4C000000000000000000000000000000000066
:103E5C000000000000000000000000000000000056
:103E6C000000000000000000000000000000000046
:103E7C000000000000000000000000000000000036
:103E8C000000000000000000000000000000000026
:103E9C000000000000000000000000000000000016
:103EAC000000000000000000000000000000000006
:103EBC0000000000000000000100000000000000F5
:103ECC000E33CDAB34126DE6ECDE05000B000000BA
:103EDC0000000000000000000000000000000000D6
:103EEC0000000000000000000000000000000000C6
:103EFC0000000000000000000000000000000000B6
:103F0C0000000000000000000000000000000000A5
:0C423C00000000000000000050070020FF
:04000005080024E1EA
:00000001FF
